{
  "contractName": "sParaERC20Token",
  "abi": [
    {
      "inputs": [],
      "stateMutability": "nonpayable",
      "type": "constructor"
    },
    {
      "anonymous": false,
      "inputs": [
        {
          "indexed": true,
          "internalType": "address",
          "name": "owner",
          "type": "address"
        },
        {
          "indexed": true,
          "internalType": "address",
          "name": "spender",
          "type": "address"
        },
        {
          "indexed": false,
          "internalType": "uint256",
          "name": "value",
          "type": "uint256"
        }
      ],
      "name": "Approval",
      "type": "event"
    },
    {
      "anonymous": false,
      "inputs": [
        {
          "indexed": true,
          "internalType": "uint256",
          "name": "epoch",
          "type": "uint256"
        },
        {
          "indexed": false,
          "internalType": "uint256",
          "name": "rebase",
          "type": "uint256"
        },
        {
          "indexed": false,
          "internalType": "uint256",
          "name": "index",
          "type": "uint256"
        }
      ],
      "name": "LogRebase",
      "type": "event"
    },
    {
      "anonymous": false,
      "inputs": [
        {
          "indexed": true,
          "internalType": "uint256",
          "name": "index",
          "type": "uint256"
        }
      ],
      "name": "LogSetIndex",
      "type": "event"
    },
    {
      "anonymous": false,
      "inputs": [
        {
          "indexed": false,
          "internalType": "address",
          "name": "stakingContract",
          "type": "address"
        }
      ],
      "name": "LogStakingContractUpdated",
      "type": "event"
    },
    {
      "anonymous": false,
      "inputs": [
        {
          "indexed": true,
          "internalType": "uint256",
          "name": "epoch",
          "type": "uint256"
        },
        {
          "indexed": false,
          "internalType": "uint256",
          "name": "timestamp",
          "type": "uint256"
        },
        {
          "indexed": false,
          "internalType": "uint256",
          "name": "totalSupply",
          "type": "uint256"
        }
      ],
      "name": "LogSupply",
      "type": "event"
    },
    {
      "anonymous": false,
      "inputs": [
        {
          "indexed": true,
          "internalType": "address",
          "name": "previousOwner",
          "type": "address"
        },
        {
          "indexed": true,
          "internalType": "address",
          "name": "newOwner",
          "type": "address"
        }
      ],
      "name": "OwnershipTransferred",
      "type": "event"
    },
    {
      "anonymous": false,
      "inputs": [
        {
          "indexed": true,
          "internalType": "address",
          "name": "from",
          "type": "address"
        },
        {
          "indexed": true,
          "internalType": "address",
          "name": "to",
          "type": "address"
        },
        {
          "indexed": false,
          "internalType": "uint256",
          "name": "value",
          "type": "uint256"
        }
      ],
      "name": "Transfer",
      "type": "event"
    },
    {
      "inputs": [],
      "name": "DOMAIN_SEPARATOR",
      "outputs": [
        {
          "internalType": "bytes32",
          "name": "",
          "type": "bytes32"
        }
      ],
      "stateMutability": "view",
      "type": "function",
      "constant": true
    },
    {
      "inputs": [],
      "name": "INDEX",
      "outputs": [
        {
          "internalType": "uint256",
          "name": "",
          "type": "uint256"
        }
      ],
      "stateMutability": "view",
      "type": "function",
      "constant": true
    },
    {
      "inputs": [],
      "name": "PERMIT_TYPEHASH",
      "outputs": [
        {
          "internalType": "bytes32",
          "name": "",
          "type": "bytes32"
        }
      ],
      "stateMutability": "view",
      "type": "function",
      "constant": true
    },
    {
      "inputs": [],
      "name": "claimOwnership",
      "outputs": [],
      "stateMutability": "nonpayable",
      "type": "function"
    },
    {
      "inputs": [],
      "name": "decimals",
      "outputs": [
        {
          "internalType": "uint8",
          "name": "",
          "type": "uint8"
        }
      ],
      "stateMutability": "view",
      "type": "function",
      "constant": true
    },
    {
      "inputs": [],
      "name": "initializer",
      "outputs": [
        {
          "internalType": "address",
          "name": "",
          "type": "address"
        }
      ],
      "stateMutability": "view",
      "type": "function",
      "constant": true
    },
    {
      "inputs": [],
      "name": "name",
      "outputs": [
        {
          "internalType": "string",
          "name": "",
          "type": "string"
        }
      ],
      "stateMutability": "view",
      "type": "function",
      "constant": true
    },
    {
      "inputs": [
        {
          "internalType": "address",
          "name": "owner",
          "type": "address"
        }
      ],
      "name": "nonces",
      "outputs": [
        {
          "internalType": "uint256",
          "name": "",
          "type": "uint256"
        }
      ],
      "stateMutability": "view",
      "type": "function",
      "constant": true
    },
    {
      "inputs": [],
      "name": "owner",
      "outputs": [
        {
          "internalType": "address",
          "name": "",
          "type": "address"
        }
      ],
      "stateMutability": "view",
      "type": "function",
      "constant": true
    },
    {
      "inputs": [],
      "name": "pendingOwner",
      "outputs": [
        {
          "internalType": "address",
          "name": "",
          "type": "address"
        }
      ],
      "stateMutability": "view",
      "type": "function",
      "constant": true
    },
    {
      "inputs": [
        {
          "internalType": "address",
          "name": "owner",
          "type": "address"
        },
        {
          "internalType": "address",
          "name": "spender",
          "type": "address"
        },
        {
          "internalType": "uint256",
          "name": "amount",
          "type": "uint256"
        },
        {
          "internalType": "uint256",
          "name": "deadline",
          "type": "uint256"
        },
        {
          "internalType": "uint8",
          "name": "v",
          "type": "uint8"
        },
        {
          "internalType": "bytes32",
          "name": "r",
          "type": "bytes32"
        },
        {
          "internalType": "bytes32",
          "name": "s",
          "type": "bytes32"
        }
      ],
      "name": "permit",
      "outputs": [],
      "stateMutability": "nonpayable",
      "type": "function"
    },
    {
      "inputs": [
        {
          "internalType": "uint256",
          "name": "",
          "type": "uint256"
        }
      ],
      "name": "rebases",
      "outputs": [
        {
          "internalType": "uint256",
          "name": "epoch",
          "type": "uint256"
        },
        {
          "internalType": "uint256",
          "name": "rebase",
          "type": "uint256"
        },
        {
          "internalType": "uint256",
          "name": "totalStakedBefore",
          "type": "uint256"
        },
        {
          "internalType": "uint256",
          "name": "totalStakedAfter",
          "type": "uint256"
        },
        {
          "internalType": "uint256",
          "name": "amountRebased",
          "type": "uint256"
        },
        {
          "internalType": "uint256",
          "name": "index",
          "type": "uint256"
        },
        {
          "internalType": "uint32",
          "name": "timeOccured",
          "type": "uint32"
        }
      ],
      "stateMutability": "view",
      "type": "function",
      "constant": true
    },
    {
      "inputs": [],
      "name": "stakingContract",
      "outputs": [
        {
          "internalType": "address",
          "name": "",
          "type": "address"
        }
      ],
      "stateMutability": "view",
      "type": "function",
      "constant": true
    },
    {
      "inputs": [],
      "name": "symbol",
      "outputs": [
        {
          "internalType": "string",
          "name": "",
          "type": "string"
        }
      ],
      "stateMutability": "view",
      "type": "function",
      "constant": true
    },
    {
      "inputs": [],
      "name": "totalSupply",
      "outputs": [
        {
          "internalType": "uint256",
          "name": "",
          "type": "uint256"
        }
      ],
      "stateMutability": "view",
      "type": "function",
      "constant": true
    },
    {
      "inputs": [
        {
          "internalType": "address",
          "name": "newOwner",
          "type": "address"
        },
        {
          "internalType": "bool",
          "name": "direct",
          "type": "bool"
        },
        {
          "internalType": "bool",
          "name": "renounce",
          "type": "bool"
        }
      ],
      "name": "transferOwnership",
      "outputs": [],
      "stateMutability": "nonpayable",
      "type": "function"
    },
    {
      "inputs": [
        {
          "internalType": "address",
          "name": "stakingContract_",
          "type": "address"
        }
      ],
      "name": "initialize",
      "outputs": [
        {
          "internalType": "bool",
          "name": "",
          "type": "bool"
        }
      ],
      "stateMutability": "nonpayable",
      "type": "function"
    },
    {
      "inputs": [
        {
          "internalType": "uint256",
          "name": "_INDEX",
          "type": "uint256"
        }
      ],
      "name": "setIndex",
      "outputs": [],
      "stateMutability": "nonpayable",
      "type": "function"
    },
    {
      "inputs": [
        {
          "internalType": "uint256",
          "name": "profit_",
          "type": "uint256"
        },
        {
          "internalType": "uint256",
          "name": "epoch_",
          "type": "uint256"
        }
      ],
      "name": "rebase",
      "outputs": [
        {
          "internalType": "uint256",
          "name": "",
          "type": "uint256"
        }
      ],
      "stateMutability": "nonpayable",
      "type": "function"
    },
    {
      "inputs": [
        {
          "internalType": "address",
          "name": "who",
          "type": "address"
        }
      ],
      "name": "balanceOf",
      "outputs": [
        {
          "internalType": "uint256",
          "name": "",
          "type": "uint256"
        }
      ],
      "stateMutability": "view",
      "type": "function",
      "constant": true
    },
    {
      "inputs": [
        {
          "internalType": "uint256",
          "name": "amount",
          "type": "uint256"
        }
      ],
      "name": "gonsForBalance",
      "outputs": [
        {
          "internalType": "uint256",
          "name": "",
          "type": "uint256"
        }
      ],
      "stateMutability": "view",
      "type": "function",
      "constant": true
    },
    {
      "inputs": [
        {
          "internalType": "uint256",
          "name": "gons",
          "type": "uint256"
        }
      ],
      "name": "balanceForGons",
      "outputs": [
        {
          "internalType": "uint256",
          "name": "",
          "type": "uint256"
        }
      ],
      "stateMutability": "view",
      "type": "function",
      "constant": true
    },
    {
      "inputs": [],
      "name": "circulatingSupply",
      "outputs": [
        {
          "internalType": "uint256",
          "name": "",
          "type": "uint256"
        }
      ],
      "stateMutability": "view",
      "type": "function",
      "constant": true
    },
    {
      "inputs": [],
      "name": "index",
      "outputs": [
        {
          "internalType": "uint256",
          "name": "",
          "type": "uint256"
        }
      ],
      "stateMutability": "view",
      "type": "function",
      "constant": true
    },
    {
      "inputs": [
        {
          "internalType": "address",
          "name": "to",
          "type": "address"
        },
        {
          "internalType": "uint256",
          "name": "value",
          "type": "uint256"
        }
      ],
      "name": "transfer",
      "outputs": [
        {
          "internalType": "bool",
          "name": "",
          "type": "bool"
        }
      ],
      "stateMutability": "nonpayable",
      "type": "function"
    },
    {
      "inputs": [
        {
          "internalType": "address",
          "name": "owner_",
          "type": "address"
        },
        {
          "internalType": "address",
          "name": "spender",
          "type": "address"
        }
      ],
      "name": "allowance",
      "outputs": [
        {
          "internalType": "uint256",
          "name": "",
          "type": "uint256"
        }
      ],
      "stateMutability": "view",
      "type": "function",
      "constant": true
    },
    {
      "inputs": [
        {
          "internalType": "address",
          "name": "from",
          "type": "address"
        },
        {
          "internalType": "address",
          "name": "to",
          "type": "address"
        },
        {
          "internalType": "uint256",
          "name": "value",
          "type": "uint256"
        }
      ],
      "name": "transferFrom",
      "outputs": [
        {
          "internalType": "bool",
          "name": "",
          "type": "bool"
        }
      ],
      "stateMutability": "nonpayable",
      "type": "function"
    },
    {
      "inputs": [
        {
          "internalType": "address",
          "name": "spender",
          "type": "address"
        },
        {
          "internalType": "uint256",
          "name": "value",
          "type": "uint256"
        }
      ],
      "name": "approve",
      "outputs": [
        {
          "internalType": "bool",
          "name": "",
          "type": "bool"
        }
      ],
      "stateMutability": "nonpayable",
      "type": "function"
    },
    {
      "inputs": [
        {
          "internalType": "address",
          "name": "spender",
          "type": "address"
        },
        {
          "internalType": "uint256",
          "name": "addedValue",
          "type": "uint256"
        }
      ],
      "name": "increaseAllowance",
      "outputs": [
        {
          "internalType": "bool",
          "name": "",
          "type": "bool"
        }
      ],
      "stateMutability": "nonpayable",
      "type": "function"
    },
    {
      "inputs": [
        {
          "internalType": "address",
          "name": "spender",
          "type": "address"
        },
        {
          "internalType": "uint256",
          "name": "subtractedValue",
          "type": "uint256"
        }
      ],
      "name": "decreaseAllowance",
      "outputs": [
        {
          "internalType": "bool",
          "name": "",
          "type": "bool"
        }
      ],
      "stateMutability": "nonpayable",
      "type": "function"
    }
  ],
  "bytecode": "0x60a06040523480156200001157600080fd5b506040518060400160405280600581526020017f73506172610000000000000000000000000000000000000000000000000000008152506040518060400160405280600581526020017f5350415241000000000000000000000000000000000000000000000000000000815250600982600390805190602001906200009892919062000377565b508160049080519060200190620000b192919062000377565b5080600560006101000a81548160ff021916908360ff16021790555050505060004690507f8b73c3c69bb8fe3d512ecc4cf759cc79239f7b179b0ffacaa9a75d522b39400f62000106620002b860201b60201c565b805190602001206040518060400160405280600181526020017f310000000000000000000000000000000000000000000000000000000000000081525080519060200120833060405160200162000162959493929190620004a2565b60405160208183030381529060405280519060200120608081815250505033600760006101000a81548173ffffffffffffffffffffffffffffffffffffffff021916908373ffffffffffffffffffffffffffffffffffffffff1602179055503373ffffffffffffffffffffffffffffffffffffffff16600073ffffffffffffffffffffffffffffffffffffffff167f8be0079c531659141344cd1fd0a4f28419497f9722a3daafe3b4186f6b6457e060405160405180910390a333600a60006101000a81548173ffffffffffffffffffffffffffffffffffffffff021916908373ffffffffffffffffffffffffffffffffffffffff1602179055506611c37937e08000600281905550620002ac6002546611c37937e080006000196200028991906200052e565b60001962000298919062000595565b6200035260201b620021db1790919060201c565b600d819055506200066d565b606060038054620002c990620005ff565b80601f0160208091040260200160405190810160405280929190818152602001828054620002f790620005ff565b8015620003485780601f106200031c5761010080835404028352916020019162000348565b820191906000526020600020905b8154815290600101906020018083116200032a57829003601f168201915b5050505050905090565b60008082116200036157600080fd5b81836200036f919062000635565b905092915050565b8280546200038590620005ff565b90600052602060002090601f016020900481019282620003a95760008555620003f5565b82601f10620003c457805160ff1916838001178555620003f5565b82800160010185558215620003f5579182015b82811115620003f4578251825591602001919060010190620003d7565b5b50905062000404919062000408565b5090565b5b808211156200042357600081600090555060010162000409565b5090565b6000819050919050565b6200043c8162000427565b82525050565b6000819050919050565b620004578162000442565b82525050565b600073ffffffffffffffffffffffffffffffffffffffff82169050919050565b60006200048a826200045d565b9050919050565b6200049c816200047d565b82525050565b600060a082019050620004b9600083018862000431565b620004c8602083018762000431565b620004d7604083018662000431565b620004e660608301856200044c565b620004f5608083018462000491565b9695505050505050565b7f4e487b7100000000000000000000000000000000000000000000000000000000600052601260045260246000fd5b60006200053b8262000442565b9150620005488362000442565b9250826200055b576200055a620004ff565b5b828206905092915050565b7f4e487b7100000000000000000000000000000000000000000000000000000000600052601160045260246000fd5b6000620005a28262000442565b9150620005af8362000442565b925082821015620005c557620005c462000566565b5b828203905092915050565b7f4e487b7100000000000000000000000000000000000000000000000000000000600052602260045260246000fd5b600060028204905060018216806200061857607f821691505b602082108114156200062f576200062e620005d0565b5b50919050565b6000620006428262000442565b91506200064f8362000442565b925082620006625762000661620004ff565b5b828204905092915050565b6080516132c762000690600039600081816110480152611f6601526132c76000f3fe608060405234801561001057600080fd5b50600436106101da5760003560e01c806370a08231116101045780639ce110d7116100a2578063d505accf11610071578063d505accf146105b1578063dd62ed3e146105cd578063e30c3978146105fd578063ee99205c1461061b576101da565b80639ce110d714610503578063a457c2d714610521578063a9059cbb14610551578063c4d66de814610581576101da565b80637ecebe00116100de5780637ecebe00146104795780638da5cb5b146104a95780639358928b146104c757806395d89b41146104e5576101da565b806370a08231146103e357806373c69eb7146104135780637965d56d14610449576101da565b80632986c0e51161017c5780633644e5151161014b5780633644e5151461036f578063395093511461038d57806340a5737f146103bd5780634e71e0c8146103d9576101da565b80632986c0e5146102f75780632df75cb11461031557806330adf81f14610333578063313ce56714610351576101da565b8063095ea7b3116101b8578063095ea7b31461024957806318160ddd146102795780631bd396741461029757806323b872dd146102c7576101da565b8063058ecdb4146101df57806306fdde031461020f578063078dfbe71461022d575b600080fd5b6101f960048036038101906101f4919061255f565b610639565b60405161020691906125ae565b60405180910390f35b610217610851565b6040516102249190612662565b60405180910390f35b6102476004803603810190610242919061271a565b6108e3565b005b610263600480360381019061025e919061276d565b610b3c565b60405161027091906127bc565b60405180910390f35b610281610c2e565b60405161028e91906125ae565b60405180910390f35b6102b160048036038101906102ac91906127d7565b610c38565b6040516102be91906125ae565b60405180910390f35b6102e160048036038101906102dc9190612804565b610c56565b6040516102ee91906127bc565b60405180910390f35b6102ff610ff0565b60405161030c91906125ae565b60405180910390f35b61031d611002565b60405161032a91906125ae565b60405180910390f35b61033b611008565b6040516103489190612870565b60405180910390f35b61035961102f565b60405161036691906128a7565b60405180910390f35b610377611046565b6040516103849190612870565b60405180910390f35b6103a760048036038101906103a2919061276d565b61106a565b6040516103b491906127bc565b60405180910390f35b6103d760048036038101906103d291906127d7565b611266565b005b6103e161137c565b005b6103fd60048036038101906103f891906128c2565b611513565b60405161040a91906125ae565b60405180910390f35b61042d600480360381019061042891906127d7565b611570565b604051610440979695949392919061290e565b60405180910390f35b610463600480360381019061045e91906127d7565b6115d2565b60405161047091906125ae565b60405180910390f35b610493600480360381019061048e91906128c2565b6115f0565b6040516104a091906125ae565b60405180910390f35b6104b1611640565b6040516104be919061298c565b60405180910390f35b6104cf611666565b6040516104dc91906125ae565b60405180910390f35b6104ed6116ac565b6040516104fa9190612662565b60405180910390f35b61050b61173e565b604051610518919061298c565b60405180910390f35b61053b6004803603810190610536919061276d565b611764565b60405161054891906127bc565b60405180910390f35b61056b6004803603810190610566919061276d565b6119f4565b60405161057891906127bc565b60405180910390f35b61059b600480360381019061059691906128c2565b611ba8565b6040516105a891906127bc565b60405180910390f35b6105cb60048036038101906105c691906129ff565b611e7e565b005b6105e760048036038101906105e29190612aa1565b612108565b6040516105f491906125ae565b60405180910390f35b61060561218f565b604051610612919061298c565b60405180910390f35b6106236121b5565b604051610630919061298c565b60405180910390f35b6000600960009054906101000a900473ffffffffffffffffffffffffffffffffffffffff1673ffffffffffffffffffffffffffffffffffffffff163373ffffffffffffffffffffffffffffffffffffffff16146106cb576040517f08c379a00000000000000000000000000000000000000000000000000000000081526004016106c290612b2d565b60405180910390fd5b6000806106d6611666565b9050600085141561076b57837f917acfbe39be6509ccf7fecb66a7e42ce2be1083c2d7dd3b9b7491dabddb8da442600254604051610715929190612b4d565b60405180910390a2837f6012dbce857565c4a40974aa5de8373a761fc429077ef0c8c8611d1e20d63fb26000610749610ff0565b604051610757929190612bbb565b60405180910390a26002549250505061084b565b60008111156107a25761079b8161078d600254886121fd90919063ffffffff16565b6121db90919063ffffffff16565b91506107a6565b8491505b6107bb8260025461223490919063ffffffff16565b6002819055506000196fffffffffffffffffffffffffffffffff1660025411156107fb576000196fffffffffffffffffffffffffffffffff166002819055505b6108316002546611c37937e080006000196108169190612c13565b6000196108239190612c73565b6121db90919063ffffffff16565b600d81905550610842818686612257565b50600254925050505b92915050565b60606003805461086090612cd6565b80601f016020809104026020016040519081016040528092919081815260200182805461088c90612cd6565b80156108d95780601f106108ae576101008083540402835291602001916108d9565b820191906000526020600020905b8154815290600101906020018083116108bc57829003601f168201915b5050505050905090565b600760009054906101000a900473ffffffffffffffffffffffffffffffffffffffff1673ffffffffffffffffffffffffffffffffffffffff163373ffffffffffffffffffffffffffffffffffffffff1614610973576040517f08c379a000000000000000000000000000000000000000000000000000000000815260040161096a90612d54565b60405180910390fd5b8115610af557600073ffffffffffffffffffffffffffffffffffffffff168373ffffffffffffffffffffffffffffffffffffffff161415806109b25750805b6109f1576040517f08c379a00000000000000000000000000000000000000000000000000000000081526004016109e890612dc0565b60405180910390fd5b8273ffffffffffffffffffffffffffffffffffffffff16600760009054906101000a900473ffffffffffffffffffffffffffffffffffffffff1673ffffffffffffffffffffffffffffffffffffffff167f8be0079c531659141344cd1fd0a4f28419497f9722a3daafe3b4186f6b6457e060405160405180910390a382600760006101000a81548173ffffffffffffffffffffffffffffffffffffffff021916908373ffffffffffffffffffffffffffffffffffffffff1602179055506000600860006101000a81548173ffffffffffffffffffffffffffffffffffffffff021916908373ffffffffffffffffffffffffffffffffffffffff160217905550610b37565b82600860006101000a81548173ffffffffffffffffffffffffffffffffffffffff021916908373ffffffffffffffffffffffffffffffffffffffff1602179055505b505050565b600081600f60003373ffffffffffffffffffffffffffffffffffffffff1673ffffffffffffffffffffffffffffffffffffffff16815260200190815260200160002060008573ffffffffffffffffffffffffffffffffffffffff1673ffffffffffffffffffffffffffffffffffffffff168152602001908152602001600020819055508273ffffffffffffffffffffffffffffffffffffffff163373ffffffffffffffffffffffffffffffffffffffff167f8c5be1e5ebec7d5bd14f71427d1e84f3dd0314c0f7b2291e5b200ac8c7c3b92584604051610c1c91906125ae565b60405180910390a36001905092915050565b6000600254905090565b6000610c4f600d54836121fd90919063ffffffff16565b9050919050565b6000610ce782600f60008773ffffffffffffffffffffffffffffffffffffffff1673ffffffffffffffffffffffffffffffffffffffff16815260200190815260200160002060003373ffffffffffffffffffffffffffffffffffffffff1673ffffffffffffffffffffffffffffffffffffffff168152602001908152602001600020546123e990919063ffffffff16565b600f60008673ffffffffffffffffffffffffffffffffffffffff1673ffffffffffffffffffffffffffffffffffffffff16815260200190815260200160002060003373ffffffffffffffffffffffffffffffffffffffff1673ffffffffffffffffffffffffffffffffffffffff168152602001908152602001600020819055503373ffffffffffffffffffffffffffffffffffffffff168473ffffffffffffffffffffffffffffffffffffffff167f8c5be1e5ebec7d5bd14f71427d1e84f3dd0314c0f7b2291e5b200ac8c7c3b925600f60008873ffffffffffffffffffffffffffffffffffffffff1673ffffffffffffffffffffffffffffffffffffffff16815260200190815260200160002060003373ffffffffffffffffffffffffffffffffffffffff1673ffffffffffffffffffffffffffffffffffffffff16815260200190815260200160002054604051610e4091906125ae565b60405180910390a36000610e5383610c38565b9050610ea781600e60008873ffffffffffffffffffffffffffffffffffffffff1673ffffffffffffffffffffffffffffffffffffffff168152602001908152602001600020546123e990919063ffffffff16565b600e60008773ffffffffffffffffffffffffffffffffffffffff1673ffffffffffffffffffffffffffffffffffffffff16815260200190815260200160002081905550610f3c81600e60008773ffffffffffffffffffffffffffffffffffffffff1673ffffffffffffffffffffffffffffffffffffffff1681526020019081526020016000205461223490919063ffffffff16565b600e60008673ffffffffffffffffffffffffffffffffffffffff1673ffffffffffffffffffffffffffffffffffffffff168152602001908152602001600020819055508373ffffffffffffffffffffffffffffffffffffffff168573ffffffffffffffffffffffffffffffffffffffff167fddf252ad1be2c89b69c2b068fc378daa952ba7f163c4a11628f55a4df523b3ef85604051610fdc91906125ae565b60405180910390a360019150509392505050565b6000610ffd600c546115d2565b905090565b600c5481565b7f6e71edae12b1b97f4d1f60370fef10105fa2faae0126114a169c64845d6126c960001b81565b6000600560009054906101000a900460ff16905090565b7f000000000000000000000000000000000000000000000000000000000000000081565b60006110fb82600f60003373ffffffffffffffffffffffffffffffffffffffff1673ffffffffffffffffffffffffffffffffffffffff16815260200190815260200160002060008673ffffffffffffffffffffffffffffffffffffffff1673ffffffffffffffffffffffffffffffffffffffff1681526020019081526020016000205461223490919063ffffffff16565b600f60003373ffffffffffffffffffffffffffffffffffffffff1673ffffffffffffffffffffffffffffffffffffffff16815260200190815260200160002060008573ffffffffffffffffffffffffffffffffffffffff1673ffffffffffffffffffffffffffffffffffffffff168152602001908152602001600020819055508273ffffffffffffffffffffffffffffffffffffffff163373ffffffffffffffffffffffffffffffffffffffff167f8c5be1e5ebec7d5bd14f71427d1e84f3dd0314c0f7b2291e5b200ac8c7c3b925600f60003373ffffffffffffffffffffffffffffffffffffffff1673ffffffffffffffffffffffffffffffffffffffff16815260200190815260200160002060008773ffffffffffffffffffffffffffffffffffffffff1673ffffffffffffffffffffffffffffffffffffffff1681526020019081526020016000205460405161125491906125ae565b60405180910390a36001905092915050565b600760009054906101000a900473ffffffffffffffffffffffffffffffffffffffff1673ffffffffffffffffffffffffffffffffffffffff163373ffffffffffffffffffffffffffffffffffffffff16146112f6576040517f08c379a00000000000000000000000000000000000000000000000000000000081526004016112ed90612d54565b60405180910390fd5b6000600c541461133b576040517f08c379a000000000000000000000000000000000000000000000000000000000815260040161133290612e2c565b60405180910390fd5b61134481610c38565b600c81905550600c547f4dd23f23e8fad98bd3817ee69155b701f911c04ba790df40c43aaed54ada487460405160405180910390a250565b6000600860009054906101000a900473ffffffffffffffffffffffffffffffffffffffff1690508073ffffffffffffffffffffffffffffffffffffffff163373ffffffffffffffffffffffffffffffffffffffff1614611411576040517f08c379a000000000000000000000000000000000000000000000000000000000815260040161140890612e98565b60405180910390fd5b8073ffffffffffffffffffffffffffffffffffffffff16600760009054906101000a900473ffffffffffffffffffffffffffffffffffffffff1673ffffffffffffffffffffffffffffffffffffffff167f8be0079c531659141344cd1fd0a4f28419497f9722a3daafe3b4186f6b6457e060405160405180910390a380600760006101000a81548173ffffffffffffffffffffffffffffffffffffffff021916908373ffffffffffffffffffffffffffffffffffffffff1602179055506000600860006101000a81548173ffffffffffffffffffffffffffffffffffffffff021916908373ffffffffffffffffffffffffffffffffffffffff16021790555050565b6000611569600d54600e60008573ffffffffffffffffffffffffffffffffffffffff1673ffffffffffffffffffffffffffffffffffffffff168152602001908152602001600020546121db90919063ffffffff16565b9050919050565b600b818154811061158057600080fd5b90600052602060002090600702016000915090508060000154908060010154908060020154908060030154908060040154908060050154908060060160009054906101000a900463ffffffff16905087565b60006115e9600d54836121db90919063ffffffff16565b9050919050565b6000611639600660008473ffffffffffffffffffffffffffffffffffffffff1673ffffffffffffffffffffffffffffffffffffffff16815260200190815260200160002061240c565b9050919050565b600760009054906101000a900473ffffffffffffffffffffffffffffffffffffffff1681565b60006116a7611696600960009054906101000a900473ffffffffffffffffffffffffffffffffffffffff16611513565b6002546123e990919063ffffffff16565b905090565b6060600480546116bb90612cd6565b80601f01602080910402602001604051908101604052809291908181526020018280546116e790612cd6565b80156117345780601f1061170957610100808354040283529160200191611734565b820191906000526020600020905b81548152906001019060200180831161171757829003601f168201915b5050505050905090565b600a60009054906101000a900473ffffffffffffffffffffffffffffffffffffffff1681565b600080600f60003373ffffffffffffffffffffffffffffffffffffffff1673ffffffffffffffffffffffffffffffffffffffff16815260200190815260200160002060008573ffffffffffffffffffffffffffffffffffffffff1673ffffffffffffffffffffffffffffffffffffffff168152602001908152602001600020549050808310611874576000600f60003373ffffffffffffffffffffffffffffffffffffffff1673ffffffffffffffffffffffffffffffffffffffff16815260200190815260200160002060008673ffffffffffffffffffffffffffffffffffffffff1673ffffffffffffffffffffffffffffffffffffffff16815260200190815260200160002081905550611908565b61188783826123e990919063ffffffff16565b600f60003373ffffffffffffffffffffffffffffffffffffffff1673ffffffffffffffffffffffffffffffffffffffff16815260200190815260200160002060008673ffffffffffffffffffffffffffffffffffffffff1673ffffffffffffffffffffffffffffffffffffffff168152602001908152602001600020819055505b8373ffffffffffffffffffffffffffffffffffffffff163373ffffffffffffffffffffffffffffffffffffffff167f8c5be1e5ebec7d5bd14f71427d1e84f3dd0314c0f7b2291e5b200ac8c7c3b925600f60003373ffffffffffffffffffffffffffffffffffffffff1673ffffffffffffffffffffffffffffffffffffffff16815260200190815260200160002060008873ffffffffffffffffffffffffffffffffffffffff1673ffffffffffffffffffffffffffffffffffffffff168152602001908152602001600020546040516119e191906125ae565b60405180910390a3600191505092915050565b600080611a0c600d54846121fd90919063ffffffff16565b9050611a6081600e60003373ffffffffffffffffffffffffffffffffffffffff1673ffffffffffffffffffffffffffffffffffffffff168152602001908152602001600020546123e990919063ffffffff16565b600e60003373ffffffffffffffffffffffffffffffffffffffff1673ffffffffffffffffffffffffffffffffffffffff16815260200190815260200160002081905550611af581600e60008773ffffffffffffffffffffffffffffffffffffffff1673ffffffffffffffffffffffffffffffffffffffff1681526020019081526020016000205461223490919063ffffffff16565b600e60008673ffffffffffffffffffffffffffffffffffffffff1673ffffffffffffffffffffffffffffffffffffffff168152602001908152602001600020819055508373ffffffffffffffffffffffffffffffffffffffff163373ffffffffffffffffffffffffffffffffffffffff167fddf252ad1be2c89b69c2b068fc378daa952ba7f163c4a11628f55a4df523b3ef85604051611b9591906125ae565b60405180910390a3600191505092915050565b6000600a60009054906101000a900473ffffffffffffffffffffffffffffffffffffffff1673ffffffffffffffffffffffffffffffffffffffff163373ffffffffffffffffffffffffffffffffffffffff1614611c3a576040517f08c379a0000000000000000000000000000000000000000000000000000000008152600401611c3190612f04565b60405180910390fd5b600073ffffffffffffffffffffffffffffffffffffffff168273ffffffffffffffffffffffffffffffffffffffff161415611caa576040517f08c379a0000000000000000000000000000000000000000000000000000000008152600401611ca190612f70565b60405180910390fd5b81600960006101000a81548173ffffffffffffffffffffffffffffffffffffffff021916908373ffffffffffffffffffffffffffffffffffffffff1602179055506611c37937e08000600019611d009190612c13565b600019611d0d9190612c73565b600e6000600960009054906101000a900473ffffffffffffffffffffffffffffffffffffffff1673ffffffffffffffffffffffffffffffffffffffff1673ffffffffffffffffffffffffffffffffffffffff16815260200190815260200160002081905550600960009054906101000a900473ffffffffffffffffffffffffffffffffffffffff1673ffffffffffffffffffffffffffffffffffffffff16600073ffffffffffffffffffffffffffffffffffffffff167fddf252ad1be2c89b69c2b068fc378daa952ba7f163c4a11628f55a4df523b3ef600254604051611df491906125ae565b60405180910390a37f817c653428858ed536dc085c5d8273734c517b55de44b55f5c5877a75e3373a182604051611e2b919061298c565b60405180910390a16000600a60006101000a81548173ffffffffffffffffffffffffffffffffffffffff021916908373ffffffffffffffffffffffffffffffffffffffff16021790555060019050919050565b83421115611ec1576040517f08c379a0000000000000000000000000000000000000000000000000000000008152600401611eb890612fdc565b60405180910390fd5b60007f6e71edae12b1b97f4d1f60370fef10105fa2faae0126114a169c64845d6126c960001b888888611f31600660008e73ffffffffffffffffffffffffffffffffffffffff1673ffffffffffffffffffffffffffffffffffffffff16815260200190815260200160002061240c565b89604051602001611f4796959493929190612ffc565b60405160208183030381529060405280519060200120905060006119017f000000000000000000000000000000000000000000000000000000000000000083604051602001611f98939291906130c2565b604051602081830303815290604052805190602001209050600060018287878760405160008152602001604052604051611fd594939291906130ff565b6020604051602081039080840390855afa158015611ff7573d6000803e3d6000fd5b505050602060405103519050600073ffffffffffffffffffffffffffffffffffffffff168173ffffffffffffffffffffffffffffffffffffffff161415801561206b57508973ffffffffffffffffffffffffffffffffffffffff168173ffffffffffffffffffffffffffffffffffffffff16145b6120aa576040517f08c379a00000000000000000000000000000000000000000000000000000000081526004016120a190613190565b60405180910390fd5b6120f1600660008c73ffffffffffffffffffffffffffffffffffffffff1673ffffffffffffffffffffffffffffffffffffffff16815260200190815260200160002061241a565b6120fc8a8a8a612439565b50505050505050505050565b6000600f60008473ffffffffffffffffffffffffffffffffffffffff1673ffffffffffffffffffffffffffffffffffffffff16815260200190815260200160002060008373ffffffffffffffffffffffffffffffffffffffff1673ffffffffffffffffffffffffffffffffffffffff16815260200190815260200160002054905092915050565b600860009054906101000a900473ffffffffffffffffffffffffffffffffffffffff1681565b600960009054906101000a900473ffffffffffffffffffffffffffffffffffffffff1681565b60008082116121e957600080fd5b81836121f591906131b0565b905092915050565b60008083148061222557508183838561221691906131e1565b92508261222391906131b0565b145b61222e57600080fd5b92915050565b6000828284612243919061323b565b915081101561225157600080fd5b92915050565b60008061228785612279670de0b6b3a7640000876121fd90919063ffffffff16565b6121db90919063ffffffff16565b9050600b6040518060e001604052808581526020018381526020018781526020016122b0611666565b81526020018681526020016122c3610ff0565b81526020014263ffffffff168152509080600181540180825580915050600190039060005260206000209060070201600090919091909150600082015181600001556020820151816001015560408201518160020155606082015181600301556080820151816004015560a0820151816005015560c08201518160060160006101000a81548163ffffffff021916908363ffffffff1602179055505050827f917acfbe39be6509ccf7fecb66a7e42ce2be1083c2d7dd3b9b7491dabddb8da442600254604051612394929190612b4d565b60405180910390a2827f6012dbce857565c4a40974aa5de8373a761fc429077ef0c8c8611d1e20d63fb2826123c7610ff0565b6040516123d5929190612b4d565b60405180910390a260019150509392505050565b60008282846123f89190612c73565b915081111561240657600080fd5b92915050565b600081600001549050919050565b600181600001600082825461242f919061323b565b9250508190555050565b80600f60008573ffffffffffffffffffffffffffffffffffffffff1673ffffffffffffffffffffffffffffffffffffffff16815260200190815260200160002060008473ffffffffffffffffffffffffffffffffffffffff1673ffffffffffffffffffffffffffffffffffffffff168152602001908152602001600020819055508173ffffffffffffffffffffffffffffffffffffffff168373ffffffffffffffffffffffffffffffffffffffff167f8c5be1e5ebec7d5bd14f71427d1e84f3dd0314c0f7b2291e5b200ac8c7c3b9258360405161251791906125ae565b60405180910390a3505050565b600080fd5b6000819050919050565b61253c81612529565b811461254757600080fd5b50565b60008135905061255981612533565b92915050565b6000806040838503121561257657612575612524565b5b60006125848582860161254a565b92505060206125958582860161254a565b9150509250929050565b6125a881612529565b82525050565b60006020820190506125c3600083018461259f565b92915050565b600081519050919050565b600082825260208201905092915050565b60005b838110156126035780820151818401526020810190506125e8565b83811115612612576000848401525b50505050565b6000601f19601f8301169050919050565b6000612634826125c9565b61263e81856125d4565b935061264e8185602086016125e5565b61265781612618565b840191505092915050565b6000602082019050818103600083015261267c8184612629565b905092915050565b600073ffffffffffffffffffffffffffffffffffffffff82169050919050565b60006126af82612684565b9050919050565b6126bf816126a4565b81146126ca57600080fd5b50565b6000813590506126dc816126b6565b92915050565b60008115159050919050565b6126f7816126e2565b811461270257600080fd5b50565b600081359050612714816126ee565b92915050565b60008060006060848603121561273357612732612524565b5b6000612741868287016126cd565b935050602061275286828701612705565b925050604061276386828701612705565b9150509250925092565b6000806040838503121561278457612783612524565b5b6000612792858286016126cd565b92505060206127a38582860161254a565b9150509250929050565b6127b6816126e2565b82525050565b60006020820190506127d160008301846127ad565b92915050565b6000602082840312156127ed576127ec612524565b5b60006127fb8482850161254a565b91505092915050565b60008060006060848603121561281d5761281c612524565b5b600061282b868287016126cd565b935050602061283c868287016126cd565b925050604061284d8682870161254a565b9150509250925092565b6000819050919050565b61286a81612857565b82525050565b60006020820190506128856000830184612861565b92915050565b600060ff82169050919050565b6128a18161288b565b82525050565b60006020820190506128bc6000830184612898565b92915050565b6000602082840312156128d8576128d7612524565b5b60006128e6848285016126cd565b91505092915050565b600063ffffffff82169050919050565b612908816128ef565b82525050565b600060e082019050612923600083018a61259f565b612930602083018961259f565b61293d604083018861259f565b61294a606083018761259f565b612957608083018661259f565b61296460a083018561259f565b61297160c08301846128ff565b98975050505050505050565b612986816126a4565b82525050565b60006020820190506129a1600083018461297d565b92915050565b6129b08161288b565b81146129bb57600080fd5b50565b6000813590506129cd816129a7565b92915050565b6129dc81612857565b81146129e757600080fd5b50565b6000813590506129f9816129d3565b92915050565b600080600080600080600060e0888a031215612a1e57612a1d612524565b5b6000612a2c8a828b016126cd565b9750506020612a3d8a828b016126cd565b9650506040612a4e8a828b0161254a565b9550506060612a5f8a828b0161254a565b9450506080612a708a828b016129be565b93505060a0612a818a828b016129ea565b92505060c0612a928a828b016129ea565b91505092959891949750929550565b60008060408385031215612ab857612ab7612524565b5b6000612ac6858286016126cd565b9250506020612ad7858286016126cd565b9150509250929050565b7f4f53430000000000000000000000000000000000000000000000000000000000600082015250565b6000612b176003836125d4565b9150612b2282612ae1565b602082019050919050565b60006020820190508181036000830152612b4681612b0a565b9050919050565b6000604082019050612b62600083018561259f565b612b6f602083018461259f565b9392505050565b6000819050919050565b6000819050919050565b6000612ba5612ba0612b9b84612b76565b612b80565b612529565b9050919050565b612bb581612b8a565b82525050565b6000604082019050612bd06000830185612bac565b612bdd602083018461259f565b9392505050565b7f4e487b7100000000000000000000000000000000000000000000000000000000600052601260045260246000fd5b6000612c1e82612529565b9150612c2983612529565b925082612c3957612c38612be4565b5b828206905092915050565b7f4e487b7100000000000000000000000000000000000000000000000000000000600052601160045260246000fd5b6000612c7e82612529565b9150612c8983612529565b925082821015612c9c57612c9b612c44565b5b828203905092915050565b7f4e487b7100000000000000000000000000000000000000000000000000000000600052602260045260246000fd5b60006002820490506001821680612cee57607f821691505b60208210811415612d0257612d01612ca7565b5b50919050565b7f4f776e61626c653a2063616c6c6572206973206e6f7420746865206f776e6572600082015250565b6000612d3e6020836125d4565b9150612d4982612d08565b602082019050919050565b60006020820190508181036000830152612d6d81612d31565b9050919050565b7f4f776e61626c653a207a65726f20616464726573730000000000000000000000600082015250565b6000612daa6015836125d4565b9150612db582612d74565b602082019050919050565b60006020820190508181036000830152612dd981612d9d565b9050919050565b7f494e5a0000000000000000000000000000000000000000000000000000000000600082015250565b6000612e166003836125d4565b9150612e2182612de0565b602082019050919050565b60006020820190508181036000830152612e4581612e09565b9050919050565b7f4f776e61626c653a2063616c6c657220213d2070656e64696e67206f776e6572600082015250565b6000612e826020836125d4565b9150612e8d82612e4c565b602082019050919050565b60006020820190508181036000830152612eb181612e75565b9050919050565b7f4e41000000000000000000000000000000000000000000000000000000000000600082015250565b6000612eee6002836125d4565b9150612ef982612eb8565b602082019050919050565b60006020820190508181036000830152612f1d81612ee1565b9050919050565b7f4941000000000000000000000000000000000000000000000000000000000000600082015250565b6000612f5a6002836125d4565b9150612f6582612f24565b602082019050919050565b60006020820190508181036000830152612f8981612f4d565b9050919050565b7f5065726d69743a206578706972656420646561646c696e650000000000000000600082015250565b6000612fc66018836125d4565b9150612fd182612f90565b602082019050919050565b60006020820190508181036000830152612ff581612fb9565b9050919050565b600060c0820190506130116000830189612861565b61301e602083018861297d565b61302b604083018761297d565b613038606083018661259f565b613045608083018561259f565b61305260a083018461259f565b979650505050505050565b600061ffff82169050919050565b60008160f01b9050919050565b60006130838261306b565b9050919050565b61309b6130968261305d565b613078565b82525050565b6000819050919050565b6130bc6130b782612857565b6130a1565b82525050565b60006130ce828661308a565b6002820191506130de82856130ab565b6020820191506130ee82846130ab565b602082019150819050949350505050565b60006080820190506131146000830187612861565b6131216020830186612898565b61312e6040830185612861565b61313b6060830184612861565b95945050505050565b7f45524332305065726d69743a20496e76616c6964207369676e61747572650000600082015250565b600061317a601e836125d4565b915061318582613144565b602082019050919050565b600060208201905081810360008301526131a98161316d565b9050919050565b60006131bb82612529565b91506131c683612529565b9250826131d6576131d5612be4565b5b828204905092915050565b60006131ec82612529565b91506131f783612529565b9250817fffffffffffffffffffffffffffffffffffffffffffffffffffffffffffffffff04831182151516156132305761322f612c44565b5b828202905092915050565b600061324682612529565b915061325183612529565b9250827fffffffffffffffffffffffffffffffffffffffffffffffffffffffffffffffff0382111561328657613285612c44565b5b82820190509291505056fea2646970667358221220a3d37ac1e9778e325846f4c571c2f118a6cd954810482ce2762ad92a7d6d14e864736f6c634300080b0033",
  "immutableReferences": {
    "2458": [
      {
        "length": 32,
        "start": 4168
      },
      {
        "length": 32,
        "start": 8038
      }
    ]
  },
  "source": "// SPDX-License-Identifier: AGPL-3.0-or-later\npragma solidity 0.8.11;\n\nlibrary LowGasSafeMath {\n    /// @notice Returns x + y, reverts if sum overflows uint256\n    /// @param x The augend\n    /// @param y The addend\n    /// @return z The sum of x and y\n    function add(uint256 x, uint256 y) internal pure returns (uint256 z) {\n        require((z = x + y) >= x);\n    }\n\n    function add32(uint32 x, uint32 y) internal pure returns (uint32 z) {\n        require((z = x + y) >= x);\n    }\n\n    /// @notice Returns x - y, reverts if underflows\n    /// @param x The minuend\n    /// @param y The subtrahend\n    /// @return z The difference of x and y\n    function sub(uint256 x, uint256 y) internal pure returns (uint256 z) {\n        require((z = x - y) <= x);\n    }\n\n    function sub32(uint32 x, uint32 y) internal pure returns (uint32 z) {\n        require((z = x - y) <= x);\n    }\n\n    /// @notice Returns x * y, reverts if overflows\n    /// @param x The multiplicand\n    /// @param y The multiplier\n    /// @return z The product of x and y\n    function mul(uint256 x, uint256 y) internal pure returns (uint256 z) {\n        require(x == 0 || (z = x * y) / x == y);\n    }\n\n    /// @notice Returns x + y, reverts if overflows or underflows\n    /// @param x The augend\n    /// @param y The addend\n    /// @return z The sum of x and y\n    function add(int256 x, int256 y) internal pure returns (int256 z) {\n        require((z = x + y) >= x == (y >= 0));\n    }\n\n    /// @notice Returns x - y, reverts if overflows or underflows\n    /// @param x The minuend\n    /// @param y The subtrahend\n    /// @return z The difference of x and y\n    function sub(int256 x, int256 y) internal pure returns (int256 z) {\n        require((z = x - y) <= x == (y >= 0));\n    }\n\n    function div(uint256 x, uint256 y) internal pure returns(uint256 z){\n        require(y > 0);\n        z=x/y;\n    }\n}\n\nlibrary Address {\n    /**\n     * @dev Returns true if `account` is a contract.\n     *\n     * [IMPORTANT]\n     * ====\n     * It is unsafe to assume that an address for which this function returns\n     * false is an externally-owned account (EOA) and not a contract.\n     *\n     * Among others, `isContract` will return false for the following\n     * types of addresses:\n     *\n     *  - an externally-owned account\n     *  - a contract in construction\n     *  - an address where a contract will be created\n     *  - an address where a contract lived, but was destroyed\n     * ====\n     */\n    function isContract(address account) internal view returns (bool) {\n        // This method relies in extcodesize, which returns 0 for contracts in\n        // construction, since the code is only stored at the end of the\n        // constructor execution.\n\n        uint256 size;\n        // solhint-disable-next-line no-inline-assembly\n        assembly { size := extcodesize(account) }\n        return size > 0;\n    }\n\n    /**\n     * @dev Replacement for Solidity's `transfer`: sends `amount` wei to\n     * `recipient`, forwarding all available gas and reverting on errors.\n     *\n     * https://eips.ethereum.org/EIPS/eip-1884[EIP1884] increases the gas cost\n     * of certain opcodes, possibly making contracts go over the 2300 gas limit\n     * imposed by `transfer`, making them unable to receive funds via\n     * `transfer`. {sendValue} removes this limitation.\n     *\n     * https://diligence.consensys.net/posts/2019/09/stop-using-soliditys-transfer-now/[Learn more].\n     *\n     * IMPORTANT: because control is transferred to `recipient`, care must be\n     * taken to not create reentrancy vulnerabilities. Consider using\n     * {ReentrancyGuard}\n     */\n    function sendValue(address payable recipient, uint256 amount) internal {\n        require(address(this).balance >= amount, \"Address: insufficient balance\");\n\n        // solhint-disable-next-line avoid-low-level-calls, avoid-call-value\n        (bool success, ) = recipient.call{ value: amount }(\"\");\n        require(success, \"Address: unable to send value, recipient may have reverted\");\n    }\n\n    /**\n     * @dev Performs a Solidity function call using a low level `call`. A\n     * plain`call` is an unsafe replacement for a function call: use this\n     * function instead.\n     *\n     * If `target` reverts with a revert reason, it is bubbled up by this\n     * function (like regular Solidity function calls).\n     *\n     * Requirements:\n     *\n     * - `target` must be a contract.\n     * - calling `target` with `data` must not revert.\n     *\n     * _Available since v3.1._\n     */\n    function functionCall(address target, bytes memory data) internal returns (bytes memory) {\n      return functionCall(target, data, \"Address: low-level call failed\");\n    }\n\n    /**\n     * @dev Same as {xref-Address-functionCall-address-bytes-}[`functionCall`], but with\n     * `errorMessage` as a fallback revert reason when `target` reverts.\n     *\n     * _Available since v3.1._\n     */\n    function functionCall(\n        address target, \n        bytes memory data, \n        string memory errorMessage\n    ) internal returns (bytes memory) {\n        return _functionCallWithValue(target, data, 0, errorMessage);\n    }\n\n    /**\n     * @dev Same as {xref-Address-functionCall-address-bytes-}[`functionCall`],\n     * but also transferring `value` wei to `target`.\n     *\n     * Requirements:\n     *\n     * - the calling contract must have an ETH balance of at least `value`.\n     * - the called Solidity function must be `payable`.\n     *\n     * _Available since v3.1._\n     */\n    function functionCallWithValue(address target, bytes memory data, uint256 value) internal returns (bytes memory) {\n        return functionCallWithValue(target, data, value, \"Address: low-level call with value failed\");\n    }\n\n    /**\n     * @dev Same as {xref-Address-functionCallWithValue-address-bytes-uint256-}[`functionCallWithValue`], but\n     * with `errorMessage` as a fallback revert reason when `target` reverts.\n     *\n     * _Available since v3.1._\n     */\n    function functionCallWithValue(\n        address target, \n        bytes memory data, \n        uint256 value, \n        string memory errorMessage\n    ) internal returns (bytes memory) {\n        require(address(this).balance >= value, \"Address: insufficient balance for call\");\n        require(isContract(target), \"Address: call to non-contract\");\n\n        // solhint-disable-next-line avoid-low-level-calls\n        (bool success, bytes memory returndata) = target.call{ value: value }(data);\n        return _verifyCallResult(success, returndata, errorMessage);\n    }\n\n    function _functionCallWithValue(\n        address target, \n        bytes memory data, \n        uint256 weiValue, \n        string memory errorMessage\n    ) private returns (bytes memory) {\n        require(isContract(target), \"Address: call to non-contract\");\n\n        // solhint-disable-next-line avoid-low-level-calls\n        (bool success, bytes memory returndata) = target.call{ value: weiValue }(data);\n        if (success) {\n            return returndata;\n        } else {\n            // Look for revert reason and bubble it up if present\n            if (returndata.length > 0) {\n                // The easiest way to bubble the revert reason is using memory via assembly\n\n                // solhint-disable-next-line no-inline-assembly\n                assembly {\n                    let returndata_size := mload(returndata)\n                    revert(add(32, returndata), returndata_size)\n                }\n            } else {\n                revert(errorMessage);\n            }\n        }\n    }\n\n  /**\n     * @dev Same as {xref-Address-functionCall-address-bytes-}[`functionCall`],\n     * but performing a static call.\n     *\n     * _Available since v3.3._\n     */\n    function functionStaticCall(address target, bytes memory data) internal view returns (bytes memory) {\n        return functionStaticCall(target, data, \"Address: low-level static call failed\");\n    }\n\n    /**\n     * @dev Same as {xref-Address-functionCall-address-bytes-string-}[`functionCall`],\n     * but performing a static call.\n     *\n     * _Available since v3.3._\n     */\n    function functionStaticCall(\n        address target, \n        bytes memory data, \n        string memory errorMessage\n    ) internal view returns (bytes memory) {\n        require(isContract(target), \"Address: static call to non-contract\");\n\n        // solhint-disable-next-line avoid-low-level-calls\n        (bool success, bytes memory returndata) = target.staticcall(data);\n        return _verifyCallResult(success, returndata, errorMessage);\n    }\n\n    /**\n     * @dev Same as {xref-Address-functionCall-address-bytes-}[`functionCall`],\n     * but performing a delegate call.\n     *\n     * _Available since v3.3._\n     */\n    function functionDelegateCall(address target, bytes memory data) internal returns (bytes memory) {\n        return functionDelegateCall(target, data, \"Address: low-level delegate call failed\");\n    }\n\n    /**\n     * @dev Same as {xref-Address-functionCall-address-bytes-string-}[`functionCall`],\n     * but performing a delegate call.\n     *\n     * _Available since v3.3._\n     */\n    function functionDelegateCall(\n        address target, \n        bytes memory data, \n        string memory errorMessage\n    ) internal returns (bytes memory) {\n        require(isContract(target), \"Address: delegate call to non-contract\");\n\n        // solhint-disable-next-line avoid-low-level-calls\n        (bool success, bytes memory returndata) = target.delegatecall(data);\n        return _verifyCallResult(success, returndata, errorMessage);\n    }\n\n    function _verifyCallResult(\n        bool success, \n        bytes memory returndata, \n        string memory errorMessage\n    ) private pure returns(bytes memory) {\n        if (success) {\n            return returndata;\n        } else {\n            // Look for revert reason and bubble it up if present\n            if (returndata.length > 0) {\n                // The easiest way to bubble the revert reason is using memory via assembly\n\n                // solhint-disable-next-line no-inline-assembly\n                assembly {\n                    let returndata_size := mload(returndata)\n                    revert(add(32, returndata), returndata_size)\n                }\n            } else {\n                revert(errorMessage);\n            }\n        }\n    }\n\n    function addressToString(address _address) internal pure returns(string memory) {\n        bytes32 _bytes = bytes32(uint256(uint160(_address)));\n        bytes memory HEX = \"0123456789abcdef\";\n        bytes memory _addr = new bytes(42);\n\n        _addr[0] = '0';\n        _addr[1] = 'x';\n\n        for(uint256 i = 0; i < 20; i++) {\n            _addr[2+i*2] = HEX[uint8(_bytes[i + 12] >> 4)];\n            _addr[3+i*2] = HEX[uint8(_bytes[i + 12] & 0x0f)];\n        }\n\n        return string(_addr);\n\n    }\n}\n\ninterface IERC20 {\n  /**\n   * @dev Returns the amount of tokens in existence.\n   */\n  function totalSupply() external view returns (uint256);\n\n  /**\n   * @dev Returns the amount of tokens owned by `account`.\n   */\n  function balanceOf(address account) external view returns (uint256);\n\n  /**\n   * @dev Moves `amount` tokens from the caller's account to `recipient`.\n   *\n   * Returns a boolean value indicating whether the operation succeeded.\n   *\n   * Emits a {Transfer} event.\n   */\n  function transfer(address recipient, uint256 amount) external returns (bool);\n\n  /**\n   * @dev Returns the remaining number of tokens that `spender` will be\n   * allowed to spend on behalf of `owner` through {transferFrom}. This is\n   * zero by default.\n   *\n   * This value changes when {approve} or {transferFrom} are called.\n   */\n  function allowance(address owner, address spender) external view returns (uint256);\n\n  /**\n   * @dev Sets `amount` as the allowance of `spender` over the caller's tokens.\n   *\n   * Returns a boolean value indicating whether the operation succeeded.\n   *\n   * IMPORTANT: Beware that changing an allowance with this method brings the risk\n   * that someone may use both the old and the new allowance by unfortunate\n   * transaction ordering. One possible solution to mitigate this race\n   * condition is to first reduce the spender's allowance to 0 and set the\n   * desired value afterwards:\n   * https://github.com/ethereum/EIPs/issues/20#issuecomment-263524729\n   *\n   * Emits an {Approval} event.\n   */\n  function approve(address spender, uint256 amount) external returns (bool);\n\n  /**\n   * @dev Moves `amount` tokens from `sender` to `recipient` using the\n   * allowance mechanism. `amount` is then deducted from the caller's\n   * allowance.\n   *\n   * Returns a boolean value indicating whether the operation succeeded.\n   *\n   * Emits a {Transfer} event.\n   */\n  function transferFrom(address sender, address recipient, uint256 amount) external returns (bool);\n\n  /**\n   * @dev Emitted when `value` tokens are moved from one account (`from`) to\n   * another (`to`).\n   *\n   * Note that `value` may be zero.\n   */\n  event Transfer(address indexed from, address indexed to, uint256 value);\n\n  /**\n   * @dev Emitted when the allowance of a `spender` for an `owner` is set by\n   * a call to {approve}. `value` is the new allowance.\n   */\n  event Approval(address indexed owner, address indexed spender, uint256 value);\n}\n\nabstract contract ERC20\n  is \n    IERC20\n  {\n\n  using LowGasSafeMath for uint256;\n\n  // TODO comment actual hash value.\n  bytes32 constant private ERC20TOKEN_ERC1820_INTERFACE_ID = keccak256( \"ERC20Token\" );\n    \n  mapping (address => uint256) internal _balances;\n\n  mapping (address => mapping (address => uint256)) internal _allowances;\n\n  uint256 internal _totalSupply;\n\n  string internal _name;\n    \n  string internal _symbol;\n    \n  uint8 internal _decimals;\n\n  /**\n   * @dev Sets the values for {name} and {symbol}, initializes {decimals} with\n   * a default value of 18.\n   *\n   * To select a different value for {decimals}, use {_setupDecimals}.\n   *\n   * All three of these values are immutable: they can only be set once during\n   * construction.\n   */\n  constructor (string memory name_, string memory symbol_, uint8 decimals_) {\n    _name = name_;\n    _symbol = symbol_;\n    _decimals = decimals_;\n  }\n\n  /**\n   * @dev Returns the name of the token.\n   */\n  function name() public view returns (string memory) {\n    return _name;\n  }\n\n  /**\n   * @dev Returns the symbol of the token, usually a shorter version of the\n   * name.\n   */\n  function symbol() public view returns (string memory) {\n    return _symbol;\n  }\n\n  /**\n   * @dev Returns the number of decimals used to get its user representation.\n   * For example, if `decimals` equals `2`, a balance of `505` tokens should\n   * be displayed to a user as `5,05` (`505 / 10 ** 2`).\n   *\n   * Tokens usually opt for a value of 18, imitating the relationship between\n   * Ether and Wei. This is the value {ERC20} uses, unless {_setupDecimals} is\n   * called.\n   *\n   * NOTE: This information is only used for _display_ purposes: it in\n   * no way affects any of the arithmetic of the contract, including\n   * {IERC20-balanceOf} and {IERC20-transfer}.\n   */\n  function decimals() public view returns (uint8) {\n    return _decimals;\n  }\n\n  /**\n   * @dev See {IERC20-totalSupply}.\n   */\n  function totalSupply() public view override returns (uint256) {\n    return _totalSupply;\n  }\n\n  /**\n   * @dev See {IERC20-balanceOf}.\n   */\n  function balanceOf(address account) public view virtual override returns (uint256) {\n    return _balances[account];\n  }\n\n  /**\n   * @dev See {IERC20-transfer}.\n   *\n   * Requirements:\n   *\n   * - `recipient` cannot be the zero address.\n   * - the caller must have a balance of at least `amount`.\n   */\n  function transfer(address recipient, uint256 amount) public virtual override returns (bool) {\n    _transfer(msg.sender, recipient, amount);\n    return true;\n  }\n\n    /**\n     * @dev See {IERC20-allowance}.\n     */\n    function allowance(address owner, address spender) public view virtual override returns (uint256) {\n        return _allowances[owner][spender];\n    }\n\n    /**\n     * @dev See {IERC20-approve}.\n     *\n     * Requirements:\n     *\n     * - `spender` cannot be the zero address.\n     */\n    function approve(address spender, uint256 amount) public virtual override returns (bool) {\n        _approve(msg.sender, spender, amount);\n        return true;\n    }\n\n    /**\n     * @dev See {IERC20-transferFrom}.\n     *\n     * Emits an {Approval} event indicating the updated allowance. This is not\n     * required by the EIP. See the note at the beginning of {ERC20}.\n     *\n     * Requirements:\n     *\n     * - `sender` and `recipient` cannot be the zero address.\n     * - `sender` must have a balance of at least `amount`.\n     * - the caller must have allowance for ``sender``'s tokens of at least\n     * `amount`.\n     */\n    function transferFrom(address sender, address recipient, uint256 amount) public virtual override returns (bool) {\n        _transfer(sender, recipient, amount);\n        _approve(sender, msg.sender, _allowances[sender][msg.sender]\n            .sub(amount));\n        return true;\n    }\n\n    /**\n     * @dev Atomically increases the allowance granted to `spender` by the caller.\n     *\n     * This is an alternative to {approve} that can be used as a mitigation for\n     * problems described in {IERC20-approve}.\n     *\n     * Emits an {Approval} event indicating the updated allowance.\n     *\n     * Requirements:\n     *\n     * - `spender` cannot be the zero address.\n     */\n    function increaseAllowance(address spender, uint256 addedValue) public virtual returns (bool) {\n        _approve(msg.sender, spender, _allowances[msg.sender][spender].add(addedValue));\n        return true;\n    }\n\n    /**\n     * @dev Atomically decreases the allowance granted to `spender` by the caller.\n     *\n     * This is an alternative to {approve} that can be used as a mitigation for\n     * problems described in {IERC20-approve}.\n     *\n     * Emits an {Approval} event indicating the updated allowance.\n     *\n     * Requirements:\n     *\n     * - `spender` cannot be the zero address.\n     * - `spender` must have allowance for the caller of at least\n     * `subtractedValue`.\n     */\n    function decreaseAllowance(address spender, uint256 subtractedValue) public virtual returns (bool) {\n        _approve(msg.sender, spender, _allowances[msg.sender][spender]\n            .sub(subtractedValue));\n        return true;\n    }\n\n  /**\n   * @dev Moves tokens `amount` from `sender` to `recipient`.\n   *\n   * This is internal function is equivalent to {transfer}, and can be used to\n   * e.g. implement automatic token fees, slashing mechanisms, etc.\n   *\n   * Emits a {Transfer} event.\n   *\n   * Requirements:\n   *\n   * - `sender` cannot be the zero address.\n   * - `recipient` cannot be the zero address.\n   * - `sender` must have a balance of at least `amount`.\n   */\n  function _transfer(address sender, address recipient, uint256 amount) internal virtual {\n    require(sender != address(0), \"ERC20: transfer from the zero address\");\n    require(recipient != address(0), \"ERC20: transfer to the zero address\");\n\n    _beforeTokenTransfer(sender, recipient, amount);\n\n    _balances[sender] = _balances[sender].sub(amount);\n    _balances[recipient] = _balances[recipient].add(amount);\n    emit Transfer(sender, recipient, amount);\n  }\n\n    /** @dev Creates `amount` tokens and assigns them to `account`, increasing\n     * the total supply.\n     *\n     * Emits a {Transfer} event with `from` set to the zero address.\n     *\n     * Requirements:\n     *\n     * - `to` cannot be the zero address.\n     */\n    function _mint(address account_, uint256 ammount_) internal virtual {\n        require(account_ != address(0), \"ERC20: mint to the zero address\");\n        _beforeTokenTransfer(address( this ), account_, ammount_);\n        _totalSupply = _totalSupply.add(ammount_);\n        _balances[account_] = _balances[account_].add(ammount_);\n        emit Transfer(address( 0 ), account_, ammount_);\n    }\n\n    /**\n     * @dev Destroys `amount` tokens from `account`, reducing the\n     * total supply.\n     *\n     * Emits a {Transfer} event with `to` set to the zero address.\n     *\n     * Requirements:\n     *\n     * - `account` cannot be the zero address.\n     * - `account` must have at least `amount` tokens.\n     */\n    function _burn(address account, uint256 amount) internal virtual {\n        require(account != address(0), \"ERC20: burn from the zero address\");\n\n        _beforeTokenTransfer(account, address(0), amount);\n\n        _balances[account] = _balances[account].sub(amount);\n        _totalSupply = _totalSupply.sub(amount);\n        emit Transfer(account, address(0), amount);\n    }\n\n    /**\n     * @dev Sets `amount` as the allowance of `spender` over the `owner` s tokens.\n     *\n     * This internal function is equivalent to `approve`, and can be used to\n     * e.g. set automatic allowances for certain subsystems, etc.\n     *\n     * Emits an {Approval} event.\n     *\n     * Requirements:\n     *\n     * - `owner` cannot be the zero address.\n     * - `spender` cannot be the zero address.\n     */\n    function _approve(address owner, address spender, uint256 amount) internal virtual {\n        require(owner != address(0), \"ERC20: approve from the zero address\");\n        require(spender != address(0), \"ERC20: approve to the zero address\");\n\n        _allowances[owner][spender] = amount;\n        emit Approval(owner, spender, amount);\n    }\n\n    /**\n     * @dev Sets {decimals} to a value other than the default one of 18.\n     *\n     * WARNING: This function should only be called from the constructor. Most\n     * applications that interact with token contracts will not expect\n     * {decimals} to ever change, and may work incorrectly if it does.\n     */\n\n  /**\n   * @dev Hook that is called before any transfer of tokens. This includes\n   * minting and burning.\n   *\n   * Calling conditions:\n   *\n   * - when `from` and `to` are both non-zero, `amount` of ``from``'s tokens\n   * will be to transferred to `to`.\n   * - when `from` is zero, `amount` tokens will be minted for `to`.\n   * - when `to` is zero, `amount` of ``from``'s tokens will be burned.\n   * - `from` and `to` are never both zero.\n   *\n   * To learn more about hooks, head to xref:ROOT:extending-contracts.adoc#using-hooks[Using Hooks].\n   */\n  function _beforeTokenTransfer( address from_, address to_, uint256 amount_ ) internal virtual { }\n}\n\nlibrary Counters {\n    using LowGasSafeMath for uint256;\n\n    struct Counter {\n        // This variable should never be directly accessed by users of the library: interactions must be restricted to\n        // the library's function. As of Solidity v0.5.2, this cannot be enforced, though there is a proposal to add\n        // this feature: see https://github.com/ethereum/solidity/issues/4637\n        uint256 _value; // default: 0\n    }\n\n    function current(Counter storage counter) internal view returns (uint256) {\n        return counter._value;\n    }\n\n    function increment(Counter storage counter) internal {\n        // The {SafeMath} overflow check can be skipped here, see the comment at the top\n        counter._value += 1;\n    }\n\n    function decrement(Counter storage counter) internal {\n        counter._value = counter._value.sub(1);\n    }\n}\n\ninterface IERC2612Permit {\n    /**\n     * @dev Sets `amount` as the allowance of `spender` over `owner`'s tokens,\n     * given `owner`'s signed approval.\n     *\n     * IMPORTANT: The same issues {IERC20-approve} has related to transaction\n     * ordering also apply here.\n     *\n     * Emits an {Approval} event.\n     *\n     * Requirements:\n     *\n     * - `owner` cannot be the zero address.\n     * - `spender` cannot be the zero address.\n     * - `deadline` must be a timestamp in the future.\n     * - `v`, `r` and `s` must be a valid `secp256k1` signature from `owner`\n     * over the EIP712-formatted function arguments.\n     * - the signature must use ``owner``'s current nonce (see {nonces}).\n     *\n     * For more information on the signature format, see the\n     * https://eips.ethereum.org/EIPS/eip-2612#specification[relevant EIP\n     * section].\n     */\n    function permit(\n        address owner,\n        address spender,\n        uint256 amount,\n        uint256 deadline,\n        uint8 v,\n        bytes32 r,\n        bytes32 s\n    ) external;\n\n    /**\n     * @dev Returns the current ERC2612 nonce for `owner`. This value must be\n     * included whenever a signature is generated for {permit}.\n     *\n     * Every successful call to {permit} increases ``owner``'s nonce by one. This\n     * prevents a signature from being used multiple times.\n     */\n    function nonces(address owner) external view returns (uint256);\n}\n\nabstract contract ERC20Permit is ERC20, IERC2612Permit {\n    using Counters for Counters.Counter;\n\n    mapping(address => Counters.Counter) private _nonces;\n\n    // keccak256(\"Permit(address owner,address spender,uint256 value,uint256 nonce,uint256 deadline)\");\n    bytes32 public constant PERMIT_TYPEHASH = 0x6e71edae12b1b97f4d1f60370fef10105fa2faae0126114a169c64845d6126c9;\n\n    bytes32 public immutable DOMAIN_SEPARATOR;\n\n    constructor() {\n\n        uint256 chainID;\n        assembly {\n            chainID := chainid()\n        }\n\n        DOMAIN_SEPARATOR = keccak256(abi.encode(\n            keccak256(\"EIP712Domain(string name,string version,uint256 chainId,address verifyingContract)\"),\n            keccak256(bytes(name())),\n            keccak256(bytes(\"1\")), // Version\n            chainID,\n            address(this)\n        ));\n    }\n\n    /**\n     * @dev See {IERC2612Permit-permit}.\n     *\n     */\n    function permit(\n        address owner,\n        address spender,\n        uint256 amount,\n        uint256 deadline,\n        uint8 v,\n        bytes32 r,\n        bytes32 s\n    ) public virtual override {\n        require(block.timestamp <= deadline, \"Permit: expired deadline\");\n\n        bytes32 hashStruct =\n            keccak256(abi.encode(PERMIT_TYPEHASH, owner, spender, amount, _nonces[owner].current(), deadline));\n\n        bytes32 _hash = keccak256(abi.encodePacked(uint16(0x1901), DOMAIN_SEPARATOR, hashStruct));\n\n        address signer = ecrecover(_hash, v, r, s);\n        require(signer != address(0) && signer == owner, \"ERC20Permit: Invalid signature\");\n\n        _nonces[owner].increment();\n        _approve(owner, spender, amount);\n    }\n\n    /**\n     * @dev See {IERC2612Permit-nonces}.\n     */\n    function nonces(address owner) public view override returns (uint256) {\n        return _nonces[owner].current();\n    }\n}\n\ncontract OwnableData {\n    address public owner;\n    address public pendingOwner;\n}\n\ncontract Ownable is OwnableData {\n    event OwnershipTransferred(address indexed previousOwner, address indexed newOwner);\n\n    /// @notice `owner` defaults to msg.sender on construction.\n    constructor() {\n        owner = msg.sender;\n        emit OwnershipTransferred(address(0), msg.sender);\n    }\n\n    /// @notice Transfers ownership to `newOwner`. Either directly or claimable by the new pending owner.\n    /// Can only be invoked by the current `owner`.\n    /// @param newOwner Address of the new owner.\n    /// @param direct True if `newOwner` should be set immediately. False if `newOwner` needs to use `claimOwnership`.\n    /// @param renounce Allows the `newOwner` to be `address(0)` if `direct` and `renounce` is True. Has no effect otherwise.\n    function transferOwnership(\n        address newOwner,\n        bool direct,\n        bool renounce\n    ) public onlyOwner {\n        if (direct) {\n            // Checks\n            require(newOwner != address(0) || renounce, \"Ownable: zero address\");\n\n            // Effects\n            emit OwnershipTransferred(owner, newOwner);\n            owner = newOwner;\n            pendingOwner = address(0);\n        } else {\n            // Effects\n            pendingOwner = newOwner;\n        }\n    }\n\n    /// @notice Needs to be called by `pendingOwner` to claim ownership.\n    function claimOwnership() public {\n        address _pendingOwner = pendingOwner;\n\n        // Checks\n        require(msg.sender == _pendingOwner, \"Ownable: caller != pending owner\");\n\n        // Effects\n        emit OwnershipTransferred(owner, _pendingOwner);\n        owner = _pendingOwner;\n        pendingOwner = address(0);\n    }\n\n    /// @notice Only allows the `owner` to execute the function.\n    modifier onlyOwner() {\n        require(msg.sender == owner, \"Ownable: caller is not the owner\");\n        _;\n    }\n}\n\ncontract sParaERC20Token is ERC20Permit, Ownable {\n\n    using LowGasSafeMath for uint256;\n\n    modifier onlyStakingContract() {\n        require( msg.sender == stakingContract, \"OSC\" );\n        _;\n    }\n\n    address public stakingContract;\n    address public initializer;\n\n    event LogSupply(uint256 indexed epoch, uint256 timestamp, uint256 totalSupply );\n    event LogRebase( uint256 indexed epoch, uint256 rebase, uint256 index );\n    event LogStakingContractUpdated( address stakingContract );\n    event LogSetIndex(uint256 indexed index );\n\n    struct Rebase {\n        uint epoch;\n        uint rebase; // 18 decimals\n        uint totalStakedBefore;\n        uint totalStakedAfter;\n        uint amountRebased;\n        uint index;\n        uint32 timeOccured;\n    }\n    Rebase[] public rebases;\n\n    uint public INDEX;\n\n    uint256 private constant MAX_UINT256 = ~uint256(0);\n    uint256 private constant INITIAL_FRAGMENTS_SUPPLY = 5000000 * 10**9;\n\n    // TOTAL_GONS is a multiple of INITIAL_FRAGMENTS_SUPPLY so that _gonsPerFragment is an integer.\n    // Use the highest value that fits in a uint256 for max granularity.\n    uint256 private constant TOTAL_GONS = MAX_UINT256 - (MAX_UINT256 % INITIAL_FRAGMENTS_SUPPLY);\n\n    // MAX_SUPPLY = maximum integer < (sqrt(4*TOTAL_GONS + 1) - 1) / 2\n    uint256 private constant MAX_SUPPLY = ~uint128(0);  // (2^128) - 1\n\n    uint256 private _gonsPerFragment;\n    mapping(address => uint256) private _gonBalances;\n\n    mapping ( address => mapping ( address => uint256 ) ) private _allowedValue;\n\n    constructor() ERC20(\"sPara\", \"SPARA\", 9) ERC20Permit() {\n        initializer = msg.sender;\n        _totalSupply = INITIAL_FRAGMENTS_SUPPLY;\n        _gonsPerFragment = TOTAL_GONS.div(_totalSupply);\n    }\n\n    function initialize( address stakingContract_ ) external returns ( bool ) {\n        require( msg.sender == initializer, \"NA\" );\n        require( stakingContract_ != address(0), \"IA\" );\n        stakingContract = stakingContract_;\n        _gonBalances[ stakingContract ] = TOTAL_GONS;\n\n        emit Transfer( address(0x0), stakingContract, _totalSupply );\n        emit LogStakingContractUpdated( stakingContract_ );\n        \n        initializer = address(0);\n        return true;\n    }\n\n    function setIndex( uint _INDEX ) external onlyOwner() {\n        require( INDEX == 0, \"INZ\");\n        INDEX = gonsForBalance( _INDEX );\n        emit LogSetIndex(INDEX);\n    }\n\n    /**\n        @notice increases MEMOries supply to increase staking balances relative to profit_\n        @param profit_ uint256\n        @return uint256\n     */\n    function rebase( uint256 profit_, uint epoch_ ) public onlyStakingContract() returns ( uint256 ) {\n        uint256 rebaseAmount;\n        uint256 circulatingSupply_ = circulatingSupply();\n\n        if ( profit_ == 0 ) {\n            emit LogSupply( epoch_, block.timestamp, _totalSupply );\n            emit LogRebase( epoch_, 0, index() );\n            return _totalSupply;\n        } else if ( circulatingSupply_ > 0 ){\n            rebaseAmount = profit_.mul( _totalSupply ).div( circulatingSupply_ );\n        } else {\n            rebaseAmount = profit_;\n        }\n\n        _totalSupply = _totalSupply.add( rebaseAmount );\n\n        if ( _totalSupply > MAX_SUPPLY ) {\n            _totalSupply = MAX_SUPPLY;\n        }\n\n        _gonsPerFragment = TOTAL_GONS.div( _totalSupply );\n\n        _storeRebase( circulatingSupply_, profit_, epoch_ );\n\n        return _totalSupply;\n    }\n\n    /**\n        @notice emits event with data about rebase\n        @param previousCirculating_ uint\n        @param profit_ uint\n        @param epoch_ uint\n        @return bool\n     */\n    function _storeRebase( uint previousCirculating_, uint profit_, uint epoch_ ) internal returns ( bool ) {\n        uint rebasePercent = profit_.mul( 1e18 ).div( previousCirculating_ );\n\n        rebases.push( Rebase ( {\n            epoch: epoch_,\n            rebase: rebasePercent, // 18 decimals\n            totalStakedBefore: previousCirculating_,\n            totalStakedAfter: circulatingSupply(),\n            amountRebased: profit_,\n            index: index(),\n            timeOccured: uint32(block.timestamp)\n        }));\n        \n        emit LogSupply( epoch_, block.timestamp, _totalSupply );\n        emit LogRebase( epoch_, rebasePercent, index() );\n\n        return true;\n    }\n\n    function balanceOf( address who ) public view override returns ( uint256 ) {\n        return _gonBalances[ who ].div( _gonsPerFragment );\n    }\n\n    function gonsForBalance( uint amount ) public view returns ( uint ) {\n        return amount.mul( _gonsPerFragment );\n    }\n\n    function balanceForGons( uint gons ) public view returns ( uint ) {\n        return gons.div( _gonsPerFragment );\n    }\n\n    // Staking contract holds excess MEMOries\n    function circulatingSupply() public view returns ( uint ) {\n        return _totalSupply.sub( balanceOf( stakingContract ) );\n    }\n\n    function index() public view returns ( uint ) {\n        return balanceForGons( INDEX );\n    }\n\n    function transfer( address to, uint256 value ) public override returns (bool) {\n        uint256 gonValue = value.mul( _gonsPerFragment );\n        _gonBalances[ msg.sender ] = _gonBalances[ msg.sender ].sub( gonValue );\n        _gonBalances[ to ] = _gonBalances[ to ].add( gonValue );\n        emit Transfer( msg.sender, to, value );\n        return true;\n    }\n\n    function allowance( address owner_, address spender ) public view override returns ( uint256 ) {\n        return _allowedValue[ owner_ ][ spender ];\n    }\n\n    function transferFrom( address from, address to, uint256 value ) public override returns ( bool ) {\n       _allowedValue[ from ][ msg.sender ] = _allowedValue[ from ][ msg.sender ].sub( value );\n       emit Approval( from, msg.sender,  _allowedValue[ from ][ msg.sender ] );\n\n        uint256 gonValue = gonsForBalance( value );\n        _gonBalances[ from ] = _gonBalances[from].sub( gonValue );\n        _gonBalances[ to ] = _gonBalances[to].add( gonValue );\n        emit Transfer( from, to, value );\n\n        return true;\n    }\n\n    function approve( address spender, uint256 value ) public override returns (bool) {\n         _allowedValue[ msg.sender ][ spender ] = value;\n         emit Approval( msg.sender, spender, value );\n         return true;\n    }\n\n    // What gets called in a permit\n    function _approve( address owner, address spender, uint256 value ) internal override virtual {\n        _allowedValue[owner][spender] = value;\n        emit Approval( owner, spender, value );\n    }\n\n    function increaseAllowance( address spender, uint256 addedValue ) public override returns (bool) {\n        _allowedValue[ msg.sender ][ spender ] = _allowedValue[ msg.sender ][ spender ].add( addedValue );\n        emit Approval( msg.sender, spender, _allowedValue[ msg.sender ][ spender ] );\n        return true;\n    }\n\n    function decreaseAllowance( address spender, uint256 subtractedValue ) public override returns (bool) {\n        uint256 oldValue = _allowedValue[ msg.sender ][ spender ];\n        if (subtractedValue >= oldValue) {\n            _allowedValue[ msg.sender ][ spender ] = 0;\n        } else {\n            _allowedValue[ msg.sender ][ spender ] = oldValue.sub( subtractedValue );\n        }\n        emit Approval( msg.sender, spender, _allowedValue[ msg.sender ][ spender ] );\n        return true;\n    }\n}",
  "sourcePath": "/Users/kisharora/Developer/web3/paradiseDao/contracts/sParaERC20.sol",
  "compiler": {
    "name": "solc",
    "version": "0.8.11+commit.d7f03943.Emscripten.clang"
  },
  "schemaVersion": "3.4.4",
  "updatedAt": "2022-01-23T18:30:54.061Z",
  "networkType": "ethereum",
  "devdoc": {
    "kind": "dev",
    "methods": {
      "decimals()": {
        "details": "Returns the number of decimals used to get its user representation. For example, if `decimals` equals `2`, a balance of `505` tokens should be displayed to a user as `5,05` (`505 / 10 ** 2`). Tokens usually opt for a value of 18, imitating the relationship between Ether and Wei. This is the value {ERC20} uses, unless {_setupDecimals} is called. NOTE: This information is only used for _display_ purposes: it in no way affects any of the arithmetic of the contract, including {IERC20-balanceOf} and {IERC20-transfer}."
      },
      "decreaseAllowance(address,uint256)": {
        "details": "Atomically decreases the allowance granted to `spender` by the caller. This is an alternative to {approve} that can be used as a mitigation for problems described in {IERC20-approve}. Emits an {Approval} event indicating the updated allowance. Requirements: - `spender` cannot be the zero address. - `spender` must have allowance for the caller of at least `subtractedValue`."
      },
      "increaseAllowance(address,uint256)": {
        "details": "Atomically increases the allowance granted to `spender` by the caller. This is an alternative to {approve} that can be used as a mitigation for problems described in {IERC20-approve}. Emits an {Approval} event indicating the updated allowance. Requirements: - `spender` cannot be the zero address."
      },
      "name()": {
        "details": "Returns the name of the token."
      },
      "nonces(address)": {
        "details": "See {IERC2612Permit-nonces}."
      },
      "permit(address,address,uint256,uint256,uint8,bytes32,bytes32)": {
        "details": "See {IERC2612Permit-permit}."
      },
      "rebase(uint256,uint256)": {
        "params": {
          "profit_": "uint256"
        },
        "returns": {
          "_0": "uint256"
        }
      },
      "symbol()": {
        "details": "Returns the symbol of the token, usually a shorter version of the name."
      },
      "totalSupply()": {
        "details": "See {IERC20-totalSupply}."
      },
      "transferOwnership(address,bool,bool)": {
        "params": {
          "direct": "True if `newOwner` should be set immediately. False if `newOwner` needs to use `claimOwnership`.",
          "newOwner": "Address of the new owner.",
          "renounce": "Allows the `newOwner` to be `address(0)` if `direct` and `renounce` is True. Has no effect otherwise."
        }
      }
    },
    "version": 1
  },
  "userdoc": {
    "kind": "user",
    "methods": {
      "claimOwnership()": {
        "notice": "Needs to be called by `pendingOwner` to claim ownership."
      },
      "rebase(uint256,uint256)": {
        "notice": "increases MEMOries supply to increase staking balances relative to profit_"
      },
      "transferOwnership(address,bool,bool)": {
        "notice": "Transfers ownership to `newOwner`. Either directly or claimable by the new pending owner. Can only be invoked by the current `owner`."
      }
    },
    "version": 1
  }
}