{
  "contractName": "StakingHelper",
  "abi": [
    {
      "inputs": [
        {
          "internalType": "address",
          "name": "_staking",
          "type": "address"
        },
        {
          "internalType": "address",
          "name": "_Time",
          "type": "address"
        }
      ],
      "stateMutability": "nonpayable",
      "type": "constructor"
    },
    {
      "anonymous": false,
      "inputs": [
        {
          "indexed": true,
          "internalType": "address",
          "name": "recipient",
          "type": "address"
        },
        {
          "indexed": false,
          "internalType": "uint256",
          "name": "amount",
          "type": "uint256"
        }
      ],
      "name": "LogStake",
      "type": "event"
    },
    {
      "inputs": [],
      "name": "Time",
      "outputs": [
        {
          "internalType": "contract IERC20",
          "name": "",
          "type": "address"
        }
      ],
      "stateMutability": "view",
      "type": "function"
    },
    {
      "inputs": [],
      "name": "staking",
      "outputs": [
        {
          "internalType": "contract IStaking",
          "name": "",
          "type": "address"
        }
      ],
      "stateMutability": "view",
      "type": "function"
    },
    {
      "inputs": [
        {
          "internalType": "uint256",
          "name": "_amount",
          "type": "uint256"
        },
        {
          "internalType": "address",
          "name": "recipient",
          "type": "address"
        }
      ],
      "name": "stake",
      "outputs": [],
      "stateMutability": "nonpayable",
      "type": "function"
    }
  ],
  "bytecode": "0x60c060405234801561001057600080fd5b506040516104b03803806104b08339818101604052604081101561003357600080fd5b5080516020909101516001600160a01b03821661004f57600080fd5b6001600160601b0319606083901b166080526001600160a01b03811661007457600080fd5b606081811b6001600160601b03191660a052608051901c91506001600160a01b03166103e66100ca6000398060f152806101ae528061038e52508060a2528061017d528061024e52806102e752506103e66000f3fe608060405234801561001057600080fd5b50600436106100415760003560e01c80634cf088d9146100465780637acb77571461006a578063f8e157ea14610098575b600080fd5b61004e6100a0565b604080516001600160a01b039092168252519081900360200190f35b6100966004803603604081101561008057600080fd5b50803590602001356001600160a01b03166100c4565b005b61004e61038c565b7f000000000000000000000000000000000000000000000000000000000000000081565b604080516323b872dd60e01b81523360048201523060248201526044810184905290516001600160a01b037f000000000000000000000000000000000000000000000000000000000000000016916323b872dd9160648083019260209291908290030181600087803b15801561013957600080fd5b505af115801561014d573d6000803e3d6000fd5b505050506040513d602081101561016357600080fd5b50506040805163095ea7b360e01b81526001600160a01b037f0000000000000000000000000000000000000000000000000000000000000000811660048301526024820185905291517f00000000000000000000000000000000000000000000000000000000000000009092169163095ea7b3916044808201926020929091908290030181600087803b1580156101f957600080fd5b505af115801561020d573d6000803e3d6000fd5b505050506040513d602081101561022357600080fd5b505060408051637acb775760e01b8152600481018490526001600160a01b03838116602483015291517f000000000000000000000000000000000000000000000000000000000000000090921691637acb7757916044808201926020929091908290030181600087803b15801561029957600080fd5b505af11580156102ad573d6000803e3d6000fd5b505050506040513d60208110156102c357600080fd5b505060408051630f41a04d60e11b81526001600160a01b03838116600483015291517f000000000000000000000000000000000000000000000000000000000000000090921691631e83409a9160248082019260009290919082900301818387803b15801561033157600080fd5b505af1158015610345573d6000803e3d6000fd5b50506040805185815290516001600160a01b03851693507f3dbdcfd4c1f2e08931aae3d544e149a1e643143f5234d166fe3debb78338849592509081900360200190a25050565b7f00000000000000000000000000000000000000000000000000000000000000008156fea26469706673582212201636eaa4e562198d240490f6ebbc27c687283ffb2c7f7380ef5d8921097be29a64736f6c63430007050033",
  "immutableReferences": {
    "8956": [
      {
        "length": 32,
        "start": 162
      },
      {
        "length": 32,
        "start": 381
      },
      {
        "length": 32,
        "start": 590
      },
      {
        "length": 32,
        "start": 743
      }
    ],
    "8958": [
      {
        "length": 32,
        "start": 241
      },
      {
        "length": 32,
        "start": 430
      },
      {
        "length": 32,
        "start": 910
      }
    ]
  },
  "source": "// SPDX-License-Identifier: AGPL-3.0-or-later\npragma solidity 0.7.5;\n\n\ninterface IERC20 {\n    function decimals() external view returns (uint8);\n  /**\n   * @dev Returns the amount of tokens in existence.\n   */\n  function totalSupply() external view returns (uint256);\n\n  /**\n   * @dev Returns the amount of tokens owned by `account`.\n   */\n  function balanceOf(address account) external view returns (uint256);\n\n  /**\n   * @dev Moves `amount` tokens from the caller's account to `recipient`.\n   *\n   * Returns a boolean value indicating whether the operation succeeded.\n   *\n   * Emits a {Transfer} event.\n   */\n  function transfer(address recipient, uint256 amount) external returns (bool);\n\n  /**\n   * @dev Returns the remaining number of tokens that `spender` will be\n   * allowed to spend on behalf of `owner` through {transferFrom}. This is\n   * zero by default.\n   *\n   * This value changes when {approve} or {transferFrom} are called.\n   */\n  function allowance(address owner, address spender) external view returns (uint256);\n\n  /**\n   * @dev Sets `amount` as the allowance of `spender` over the caller's tokens.\n   *\n   * Returns a boolean value indicating whether the operation succeeded.\n   *\n   * IMPORTANT: Beware that changing an allowance with this method brings the risk\n   * that someone may use both the old and the new allowance by unfortunate\n   * transaction ordering. One possible solution to mitigate this race\n   * condition is to first reduce the spender's allowance to 0 and set the\n   * desired value afterwards:\n   * https://github.com/ethereum/EIPs/issues/20#issuecomment-263524729\n   *\n   * Emits an {Approval} event.\n   */\n  function approve(address spender, uint256 amount) external returns (bool);\n\n  /**\n   * @dev Moves `amount` tokens from `sender` to `recipient` using the\n   * allowance mechanism. `amount` is then deducted from the caller's\n   * allowance.\n   *\n   * Returns a boolean value indicating whether the operation succeeded.\n   *\n   * Emits a {Transfer} event.\n   */\n  function transferFrom(address sender, address recipient, uint256 amount) external returns (bool);\n\n  /**\n   * @dev Emitted when `value` tokens are moved from one account (`from`) to\n   * another (`to`).\n   *\n   * Note that `value` may be zero.\n   */\n  event Transfer(address indexed from, address indexed to, uint256 value);\n\n  /**\n   * @dev Emitted when the allowance of a `spender` for an `owner` is set by\n   * a call to {approve}. `value` is the new allowance.\n   */\n  event Approval(address indexed owner, address indexed spender, uint256 value);\n}\n\ninterface IStaking {\n    function stake( uint _amount, address _recipient ) external returns ( bool );\n    function claim( address _recipient ) external;\n}\n\ncontract StakingHelper {\n\n    event LogStake(address indexed recipient, uint amount);\n\n    IStaking public immutable staking;\n    IERC20 public immutable Time;\n\n    constructor ( address _staking, address _Time ) {\n        require( _staking != address(0) );\n        staking = IStaking(_staking);\n        require( _Time != address(0) );\n        Time = IERC20(_Time);\n    }\n\n    function stake( uint _amount, address recipient ) external {\n        Time.transferFrom( msg.sender, address(this), _amount );\n        Time.approve( address(staking), _amount );\n        staking.stake( _amount, recipient );\n        staking.claim( recipient );\n        emit LogStake(recipient, _amount);\n    }\n}",
  "sourcePath": "/Users/kisharora/Developer/web3/paradiseDao/contracts/StakingHelper.sol",
  "compiler": {
    "name": "solc",
    "version": "0.7.5+commit.eb77ed08.Emscripten.clang"
  },
  "schemaVersion": "3.4.4",
  "updatedAt": "2022-01-30T06:19:20.862Z",
  "devdoc": {
    "kind": "dev",
    "methods": {},
    "version": 1
  },
  "userdoc": {
    "kind": "user",
    "methods": {},
    "version": 1
  }
}