{
  "contractName": "sUTOP",
  "abi": [
    {
      "inputs": [],
      "stateMutability": "nonpayable",
      "type": "constructor"
    },
    {
      "anonymous": false,
      "inputs": [
        {
          "indexed": true,
          "internalType": "address",
          "name": "owner",
          "type": "address"
        },
        {
          "indexed": true,
          "internalType": "address",
          "name": "spender",
          "type": "address"
        },
        {
          "indexed": false,
          "internalType": "uint256",
          "name": "value",
          "type": "uint256"
        }
      ],
      "name": "Approval",
      "type": "event"
    },
    {
      "anonymous": false,
      "inputs": [
        {
          "indexed": true,
          "internalType": "uint256",
          "name": "epoch",
          "type": "uint256"
        },
        {
          "indexed": false,
          "internalType": "uint256",
          "name": "rebase",
          "type": "uint256"
        },
        {
          "indexed": false,
          "internalType": "uint256",
          "name": "index",
          "type": "uint256"
        }
      ],
      "name": "LogRebase",
      "type": "event"
    },
    {
      "anonymous": false,
      "inputs": [
        {
          "indexed": true,
          "internalType": "uint256",
          "name": "index",
          "type": "uint256"
        }
      ],
      "name": "LogSetIndex",
      "type": "event"
    },
    {
      "anonymous": false,
      "inputs": [
        {
          "indexed": false,
          "internalType": "address",
          "name": "stakingContract",
          "type": "address"
        }
      ],
      "name": "LogStakingContractUpdated",
      "type": "event"
    },
    {
      "anonymous": false,
      "inputs": [
        {
          "indexed": true,
          "internalType": "uint256",
          "name": "epoch",
          "type": "uint256"
        },
        {
          "indexed": false,
          "internalType": "uint256",
          "name": "timestamp",
          "type": "uint256"
        },
        {
          "indexed": false,
          "internalType": "uint256",
          "name": "totalSupply",
          "type": "uint256"
        }
      ],
      "name": "LogSupply",
      "type": "event"
    },
    {
      "anonymous": false,
      "inputs": [
        {
          "indexed": true,
          "internalType": "address",
          "name": "previousOwner",
          "type": "address"
        },
        {
          "indexed": true,
          "internalType": "address",
          "name": "newOwner",
          "type": "address"
        }
      ],
      "name": "OwnershipTransferred",
      "type": "event"
    },
    {
      "anonymous": false,
      "inputs": [
        {
          "indexed": true,
          "internalType": "address",
          "name": "from",
          "type": "address"
        },
        {
          "indexed": true,
          "internalType": "address",
          "name": "to",
          "type": "address"
        },
        {
          "indexed": false,
          "internalType": "uint256",
          "name": "value",
          "type": "uint256"
        }
      ],
      "name": "Transfer",
      "type": "event"
    },
    {
      "inputs": [],
      "name": "DOMAIN_SEPARATOR",
      "outputs": [
        {
          "internalType": "bytes32",
          "name": "",
          "type": "bytes32"
        }
      ],
      "stateMutability": "view",
      "type": "function"
    },
    {
      "inputs": [],
      "name": "INDEX",
      "outputs": [
        {
          "internalType": "uint256",
          "name": "",
          "type": "uint256"
        }
      ],
      "stateMutability": "view",
      "type": "function"
    },
    {
      "inputs": [],
      "name": "PERMIT_TYPEHASH",
      "outputs": [
        {
          "internalType": "bytes32",
          "name": "",
          "type": "bytes32"
        }
      ],
      "stateMutability": "view",
      "type": "function"
    },
    {
      "inputs": [],
      "name": "claimOwnership",
      "outputs": [],
      "stateMutability": "nonpayable",
      "type": "function"
    },
    {
      "inputs": [],
      "name": "decimals",
      "outputs": [
        {
          "internalType": "uint8",
          "name": "",
          "type": "uint8"
        }
      ],
      "stateMutability": "view",
      "type": "function"
    },
    {
      "inputs": [],
      "name": "initializer",
      "outputs": [
        {
          "internalType": "address",
          "name": "",
          "type": "address"
        }
      ],
      "stateMutability": "view",
      "type": "function"
    },
    {
      "inputs": [],
      "name": "name",
      "outputs": [
        {
          "internalType": "string",
          "name": "",
          "type": "string"
        }
      ],
      "stateMutability": "view",
      "type": "function"
    },
    {
      "inputs": [
        {
          "internalType": "address",
          "name": "owner",
          "type": "address"
        }
      ],
      "name": "nonces",
      "outputs": [
        {
          "internalType": "uint256",
          "name": "",
          "type": "uint256"
        }
      ],
      "stateMutability": "view",
      "type": "function"
    },
    {
      "inputs": [],
      "name": "owner",
      "outputs": [
        {
          "internalType": "address",
          "name": "",
          "type": "address"
        }
      ],
      "stateMutability": "view",
      "type": "function"
    },
    {
      "inputs": [],
      "name": "pendingOwner",
      "outputs": [
        {
          "internalType": "address",
          "name": "",
          "type": "address"
        }
      ],
      "stateMutability": "view",
      "type": "function"
    },
    {
      "inputs": [
        {
          "internalType": "address",
          "name": "owner",
          "type": "address"
        },
        {
          "internalType": "address",
          "name": "spender",
          "type": "address"
        },
        {
          "internalType": "uint256",
          "name": "amount",
          "type": "uint256"
        },
        {
          "internalType": "uint256",
          "name": "deadline",
          "type": "uint256"
        },
        {
          "internalType": "uint8",
          "name": "v",
          "type": "uint8"
        },
        {
          "internalType": "bytes32",
          "name": "r",
          "type": "bytes32"
        },
        {
          "internalType": "bytes32",
          "name": "s",
          "type": "bytes32"
        }
      ],
      "name": "permit",
      "outputs": [],
      "stateMutability": "nonpayable",
      "type": "function"
    },
    {
      "inputs": [
        {
          "internalType": "uint256",
          "name": "",
          "type": "uint256"
        }
      ],
      "name": "rebases",
      "outputs": [
        {
          "internalType": "uint256",
          "name": "epoch",
          "type": "uint256"
        },
        {
          "internalType": "uint256",
          "name": "rebase",
          "type": "uint256"
        },
        {
          "internalType": "uint256",
          "name": "totalStakedBefore",
          "type": "uint256"
        },
        {
          "internalType": "uint256",
          "name": "totalStakedAfter",
          "type": "uint256"
        },
        {
          "internalType": "uint256",
          "name": "amountRebased",
          "type": "uint256"
        },
        {
          "internalType": "uint256",
          "name": "index",
          "type": "uint256"
        },
        {
          "internalType": "uint32",
          "name": "timeOccured",
          "type": "uint32"
        }
      ],
      "stateMutability": "view",
      "type": "function"
    },
    {
      "inputs": [],
      "name": "stakingContract",
      "outputs": [
        {
          "internalType": "address",
          "name": "",
          "type": "address"
        }
      ],
      "stateMutability": "view",
      "type": "function"
    },
    {
      "inputs": [],
      "name": "symbol",
      "outputs": [
        {
          "internalType": "string",
          "name": "",
          "type": "string"
        }
      ],
      "stateMutability": "view",
      "type": "function"
    },
    {
      "inputs": [],
      "name": "totalSupply",
      "outputs": [
        {
          "internalType": "uint256",
          "name": "",
          "type": "uint256"
        }
      ],
      "stateMutability": "view",
      "type": "function"
    },
    {
      "inputs": [
        {
          "internalType": "address",
          "name": "newOwner",
          "type": "address"
        },
        {
          "internalType": "bool",
          "name": "direct",
          "type": "bool"
        },
        {
          "internalType": "bool",
          "name": "renounce",
          "type": "bool"
        }
      ],
      "name": "transferOwnership",
      "outputs": [],
      "stateMutability": "nonpayable",
      "type": "function"
    },
    {
      "inputs": [
        {
          "internalType": "address",
          "name": "stakingContract_",
          "type": "address"
        }
      ],
      "name": "initialize",
      "outputs": [
        {
          "internalType": "bool",
          "name": "",
          "type": "bool"
        }
      ],
      "stateMutability": "nonpayable",
      "type": "function"
    },
    {
      "inputs": [
        {
          "internalType": "uint256",
          "name": "_INDEX",
          "type": "uint256"
        }
      ],
      "name": "setIndex",
      "outputs": [],
      "stateMutability": "nonpayable",
      "type": "function"
    },
    {
      "inputs": [
        {
          "internalType": "uint256",
          "name": "profit_",
          "type": "uint256"
        },
        {
          "internalType": "uint256",
          "name": "epoch_",
          "type": "uint256"
        }
      ],
      "name": "rebase",
      "outputs": [
        {
          "internalType": "uint256",
          "name": "",
          "type": "uint256"
        }
      ],
      "stateMutability": "nonpayable",
      "type": "function"
    },
    {
      "inputs": [
        {
          "internalType": "address",
          "name": "who",
          "type": "address"
        }
      ],
      "name": "balanceOf",
      "outputs": [
        {
          "internalType": "uint256",
          "name": "",
          "type": "uint256"
        }
      ],
      "stateMutability": "view",
      "type": "function"
    },
    {
      "inputs": [
        {
          "internalType": "uint256",
          "name": "amount",
          "type": "uint256"
        }
      ],
      "name": "gonsForBalance",
      "outputs": [
        {
          "internalType": "uint256",
          "name": "",
          "type": "uint256"
        }
      ],
      "stateMutability": "view",
      "type": "function"
    },
    {
      "inputs": [
        {
          "internalType": "uint256",
          "name": "gons",
          "type": "uint256"
        }
      ],
      "name": "balanceForGons",
      "outputs": [
        {
          "internalType": "uint256",
          "name": "",
          "type": "uint256"
        }
      ],
      "stateMutability": "view",
      "type": "function"
    },
    {
      "inputs": [],
      "name": "circulatingSupply",
      "outputs": [
        {
          "internalType": "uint256",
          "name": "",
          "type": "uint256"
        }
      ],
      "stateMutability": "view",
      "type": "function"
    },
    {
      "inputs": [],
      "name": "index",
      "outputs": [
        {
          "internalType": "uint256",
          "name": "",
          "type": "uint256"
        }
      ],
      "stateMutability": "view",
      "type": "function"
    },
    {
      "inputs": [
        {
          "internalType": "address",
          "name": "to",
          "type": "address"
        },
        {
          "internalType": "uint256",
          "name": "value",
          "type": "uint256"
        }
      ],
      "name": "transfer",
      "outputs": [
        {
          "internalType": "bool",
          "name": "",
          "type": "bool"
        }
      ],
      "stateMutability": "nonpayable",
      "type": "function"
    },
    {
      "inputs": [
        {
          "internalType": "address",
          "name": "owner_",
          "type": "address"
        },
        {
          "internalType": "address",
          "name": "spender",
          "type": "address"
        }
      ],
      "name": "allowance",
      "outputs": [
        {
          "internalType": "uint256",
          "name": "",
          "type": "uint256"
        }
      ],
      "stateMutability": "view",
      "type": "function"
    },
    {
      "inputs": [
        {
          "internalType": "address",
          "name": "from",
          "type": "address"
        },
        {
          "internalType": "address",
          "name": "to",
          "type": "address"
        },
        {
          "internalType": "uint256",
          "name": "value",
          "type": "uint256"
        }
      ],
      "name": "transferFrom",
      "outputs": [
        {
          "internalType": "bool",
          "name": "",
          "type": "bool"
        }
      ],
      "stateMutability": "nonpayable",
      "type": "function"
    },
    {
      "inputs": [
        {
          "internalType": "address",
          "name": "spender",
          "type": "address"
        },
        {
          "internalType": "uint256",
          "name": "value",
          "type": "uint256"
        }
      ],
      "name": "approve",
      "outputs": [
        {
          "internalType": "bool",
          "name": "",
          "type": "bool"
        }
      ],
      "stateMutability": "nonpayable",
      "type": "function"
    },
    {
      "inputs": [
        {
          "internalType": "address",
          "name": "spender",
          "type": "address"
        },
        {
          "internalType": "uint256",
          "name": "addedValue",
          "type": "uint256"
        }
      ],
      "name": "increaseAllowance",
      "outputs": [
        {
          "internalType": "bool",
          "name": "",
          "type": "bool"
        }
      ],
      "stateMutability": "nonpayable",
      "type": "function"
    },
    {
      "inputs": [
        {
          "internalType": "address",
          "name": "spender",
          "type": "address"
        },
        {
          "internalType": "uint256",
          "name": "subtractedValue",
          "type": "uint256"
        }
      ],
      "name": "decreaseAllowance",
      "outputs": [
        {
          "internalType": "bool",
          "name": "",
          "type": "bool"
        }
      ],
      "stateMutability": "nonpayable",
      "type": "function"
    }
  ],
  "bytecode": "0x60a06040523480156200001157600080fd5b50604080518082018252600d81526c5374616b65642055746f70696160981b60208083019182528351808501909452600584526407355544f560dc1b9084015281519192916009916200006891600391906200028c565b5081516200007e9060049060208501906200028c565b506005805460ff191660ff92909216919091179055504690507f8b73c3c69bb8fe3d512ecc4cf759cc79239f7b179b0ffacaa9a75d522b39400f620000c2620001d1565b805160209182012060408051808201825260018152603160f81b90840152805180840194909452838101919091527fc89efdaa54c0f20c7adf612882df0950f5a951637e0307cdcb4c672f298b8bc660608401526080808401949094523060a0808501919091528151808503909101815260c09093019081905282519290910191909120909152600780546001600160a01b03191633908117909155906000907f8be0079c531659141344cd1fd0a4f28419497f9722a3daafe3b4186f6b6457e0908290a3600a80546001600160a01b031916331790556611c37937e080006002819055620001c8908060001906600019036200026b60201b620014701790919060201c565b600d5562000338565b60038054604080516020601f6002600019610100600188161502019095169490940493840181900481028201810190925282815260609390929091830182828015620002615780601f10620002355761010080835404028352916020019162000261565b820191906000526020600020905b8154815290600101906020018083116200024357829003601f168201915b5050505050905090565b60008082116200027a57600080fd5b8183816200028457fe5b049392505050565b828054600181600116156101000203166002900490600052602060002090601f016020900481019282620002c457600085556200030f565b82601f10620002df57805160ff19168380011785556200030f565b828001600101855582156200030f579182015b828111156200030f578251825591602001919060010190620002f2565b506200031d92915062000321565b5090565b5b808211156200031d576000815560010162000322565b6080516116e46200035860003980610b4952806112c252506116e46000f3fe608060405234801561001057600080fd5b50600436106101da5760003560e01c806370a08231116101045780639ce110d7116100a2578063d505accf11610071578063d505accf14610571578063dd62ed3e146105c2578063e30c3978146105f0578063ee99205c146105f8576101da565b80639ce110d7146104eb578063a457c2d7146104f3578063a9059cbb1461051f578063c4d66de81461054b576101da565b80637ecebe00116100de5780637ecebe00146104915780638da5cb5b146104b75780639358928b146104db57806395d89b41146104e3576101da565b806370a08231146103f357806373c69eb7146104195780637965d56d14610474576101da565b80632986c0e51161017c5780633644e5151161014b5780633644e5151461039a57806339509351146103a257806340a5737f146103ce5780634e71e0c8146103eb576101da565b80632986c0e5146103645780632df75cb11461036c57806330adf81f14610374578063313ce5671461037c576101da565b8063095ea7b3116101b8578063095ea7b3146102c957806318160ddd146103095780631bd396741461031157806323b872dd1461032e576101da565b8063058ecdb4146101df57806306fdde0314610214578063078dfbe714610291575b600080fd5b610202600480360360408110156101f557600080fd5b5080359060200135610600565b60408051918252519081900360200190f35b61021c610778565b6040805160208082528351818301528351919283929083019185019080838360005b8381101561025657818101518382015260200161023e565b50505050905090810190601f1680156102835780820380516001836020036101000a031916815260200191505b509250505060405180910390f35b6102c7600480360360608110156102a757600080fd5b506001600160a01b0381351690602081013515159060400135151561080e565b005b6102f5600480360360408110156102df57600080fd5b506001600160a01b038135169060200135610957565b604080519115158252519081900360200190f35b6102026109ab565b6102026004803603602081101561032757600080fd5b50356109b1565b6102f56004803603606081101561034457600080fd5b506001600160a01b038135811691602081013590911690604001356109c8565b610202610b02565b610202610b14565b610202610b1a565b610384610b3e565b6040805160ff9092168252519081900360200190f35b610202610b47565b6102f5600480360360408110156103b857600080fd5b506001600160a01b038135169060200135610b6b565b6102c7600480360360208110156103e457600080fd5b5035610bec565b6102c7610cc0565b6102026004803603602081101561040957600080fd5b50356001600160a01b0316610d83565b6104366004803603602081101561042f57600080fd5b5035610dab565b604080519788526020880196909652868601949094526060860192909252608085015260a084015263ffffffff1660c0830152519081900360e00190f35b6102026004803603602081101561048a57600080fd5b5035610e00565b610202600480360360208110156104a757600080fd5b50356001600160a01b0316610e17565b6104bf610e38565b604080516001600160a01b039092168252519081900360200190f35b610202610e47565b61021c610e6c565b6104bf610ecd565b6102f56004803603604081101561050957600080fd5b506001600160a01b038135169060200135610edc565b6102f56004803603604081101561053557600080fd5b506001600160a01b038135169060200135610fb3565b6102f56004803603602081101561056157600080fd5b50356001600160a01b0316611073565b6102c7600480360360e081101561058757600080fd5b506001600160a01b03813581169160208101359091169060408101359060608101359060ff6080820135169060a08101359060c001356111c6565b610202600480360360408110156105d857600080fd5b506001600160a01b0381358116916020013516611427565b6104bf611452565b6104bf611461565b6009546000906001600160a01b03163314610648576040805162461bcd60e51b81526020600482015260036024820152624f534360e81b604482015290519081900360640190fd5b600080610653610e47565b9050846106e957600254604080514281526020810192909252805186927f917acfbe39be6509ccf7fecb66a7e42ce2be1083c2d7dd3b9b7491dabddb8da492908290030190a2837f6012dbce857565c4a40974aa5de8373a761fc429077ef0c8c8611d1e20d63fb260006106c5610b02565b6040805192835260208301919091528051918290030190a260025492505050610772565b80156107155761070e816107086002548861148f90919063ffffffff16565b90611470565b9150610719565b8491505b60025461072690836114b3565b60028190556001600160801b031015610745576001600160801b036002555b60025461075b90660e3d2cfe61ffff1990611470565b600d556107698186866114c3565b50600254925050505b92915050565b60038054604080516020601f60026000196101006001881615020190951694909404938401819004810282018101909252828152606093909290918301828280156108045780601f106107d957610100808354040283529160200191610804565b820191906000526020600020905b8154815290600101906020018083116107e757829003601f168201915b5050505050905090565b6007546001600160a01b0316331461086d576040805162461bcd60e51b815260206004820181905260248201527f4f776e61626c653a2063616c6c6572206973206e6f7420746865206f776e6572604482015290519081900360640190fd5b8115610936576001600160a01b0383161515806108875750805b6108d0576040805162461bcd60e51b81526020600482015260156024820152744f776e61626c653a207a65726f206164647265737360581b604482015290519081900360640190fd5b6007546040516001600160a01b038086169216907f8be0079c531659141344cd1fd0a4f28419497f9722a3daafe3b4186f6b6457e090600090a3600780546001600160a01b0385166001600160a01b031991821617909155600880549091169055610952565b600880546001600160a01b0319166001600160a01b0385161790555b505050565b336000818152600f602090815260408083206001600160a01b0387168085529083528184208690558151868152915193949093909260008051602061168f833981519152928290030190a350600192915050565b60025490565b6000610772600d548361148f90919063ffffffff16565b6001600160a01b0383166000908152600f602090815260408083203384529091528120546109f69083611621565b6001600160a01b0385166000818152600f602090815260408083203380855290835292819020859055805194855251919360008051602061168f833981519152929081900390910190a36000610a4b836109b1565b6001600160a01b0386166000908152600e6020526040902054909150610a719082611621565b6001600160a01b038087166000908152600e60205260408082209390935590861681522054610aa090826114b3565b6001600160a01b038086166000818152600e602090815260409182902094909455805187815290519193928916927fddf252ad1be2c89b69c2b068fc378daa952ba7f163c4a11628f55a4df523b3ef92918290030190a3506001949350505050565b6000610b0f600c54610e00565b905090565b600c5481565b7f6e71edae12b1b97f4d1f60370fef10105fa2faae0126114a169c64845d6126c981565b60055460ff1690565b7f000000000000000000000000000000000000000000000000000000000000000081565b336000908152600f602090815260408083206001600160a01b0386168452909152812054610b9990836114b3565b336000818152600f602090815260408083206001600160a01b03891680855290835292819020859055805194855251919360008051602061168f833981519152929081900390910190a350600192915050565b6007546001600160a01b03163314610c4b576040805162461bcd60e51b815260206004820181905260248201527f4f776e61626c653a2063616c6c6572206973206e6f7420746865206f776e6572604482015290519081900360640190fd5b600c5415610c86576040805162461bcd60e51b815260206004820152600360248201526224a72d60e91b604482015290519081900360640190fd5b610c8f816109b1565b600c8190556040517f4dd23f23e8fad98bd3817ee69155b701f911c04ba790df40c43aaed54ada487490600090a250565b6008546001600160a01b0316338114610d20576040805162461bcd60e51b815260206004820181905260248201527f4f776e61626c653a2063616c6c657220213d2070656e64696e67206f776e6572604482015290519081900360640190fd5b6007546040516001600160a01b038084169216907f8be0079c531659141344cd1fd0a4f28419497f9722a3daafe3b4186f6b6457e090600090a3600780546001600160a01b039092166001600160a01b0319928316179055600880549091169055565b600d546001600160a01b0382166000908152600e602052604081205490916107729190611470565b600b8181548110610dbb57600080fd5b60009182526020909120600790910201805460018201546002830154600384015460048501546005860154600690960154949650929491939092919063ffffffff1687565b6000610772600d548361147090919063ffffffff16565b6001600160a01b038116600090815260066020526040812061077290611631565b6007546001600160a01b031681565b600954600090610b0f90610e63906001600160a01b0316610d83565b60025490611621565b60048054604080516020601f60026000196101006001881615020190951694909404938401819004810282018101909252828152606093909290918301828280156108045780601f106107d957610100808354040283529160200191610804565b600a546001600160a01b031681565b336000908152600f602090815260408083206001600160a01b0386168452909152812054808310610f3057336000908152600f602090815260408083206001600160a01b0388168452909152812055610f5f565b610f3a8184611621565b336000908152600f602090815260408083206001600160a01b03891684529091529020555b336000818152600f602090815260408083206001600160a01b03891680855290835292819020548151908152905192939260008051602061168f833981519152929181900390910190a35060019392505050565b600080610fcb600d548461148f90919063ffffffff16565b336000908152600e6020526040902054909150610fe89082611621565b336000908152600e6020526040808220929092556001600160a01b0386168152205461101490826114b3565b6001600160a01b0385166000818152600e60209081526040918290209390935580518681529051919233927fddf252ad1be2c89b69c2b068fc378daa952ba7f163c4a11628f55a4df523b3ef9281900390910190a35060019392505050565b600a546000906001600160a01b031633146110ba576040805162461bcd60e51b81526020600482015260026024820152614e4160f01b604482015290519081900360640190fd5b6001600160a01b0382166110fa576040805162461bcd60e51b8152602060048201526002602482015261494160f01b604482015290519081900360640190fd5b600980546001600160a01b0319166001600160a01b038481169190911780835581166000908152600e60209081526040808320660e3d2cfe61ffff19905593546002548551908152945193169391927fddf252ad1be2c89b69c2b068fc378daa952ba7f163c4a11628f55a4df523b3ef9281900390910190a3604080516001600160a01b038416815290517f817c653428858ed536dc085c5d8273734c517b55de44b55f5c5877a75e3373a19181900360200190a15050600a80546001600160a01b0319169055600190565b8342111561121b576040805162461bcd60e51b815260206004820152601860248201527f5065726d69743a206578706972656420646561646c696e650000000000000000604482015290519081900360640190fd5b6001600160a01b03871660009081526006602052604081207f6e71edae12b1b97f4d1f60370fef10105fa2faae0126114a169c64845d6126c99089908990899061126490611631565b604080516020808201979097526001600160a01b0395861681830152939094166060840152608083019190915260a082015260c08082018990528251808303909101815260e08201835280519084012061190160f01b6101008301527f0000000000000000000000000000000000000000000000000000000000000000610102830152610122808301829052835180840390910181526101428301808552815191860191909120600091829052610162840180865281905260ff8a166101828501526101a284018990526101c28401889052935191955092936001926101e280820193601f1981019281900390910190855afa158015611368573d6000803e3d6000fd5b5050604051601f1901519150506001600160a01b0381161580159061139e5750896001600160a01b0316816001600160a01b0316145b6113ef576040805162461bcd60e51b815260206004820152601e60248201527f45524332305065726d69743a20496e76616c6964207369676e61747572650000604482015290519081900360640190fd5b6001600160a01b038a16600090815260066020526040902061141090611635565b61141b8a8a8a61163e565b50505050505050505050565b6001600160a01b039182166000908152600f6020908152604080832093909416825291909152205490565b6008546001600160a01b031681565b6009546001600160a01b031681565b600080821161147e57600080fd5b81838161148757fe5b049392505050565b60008215806114aa575050818102818382816114a757fe5b04145b61077257600080fd5b8082018281101561077257600080fd5b6000806114dc8561070886670de0b6b3a764000061148f565b9050600b6040518060e00160405280858152602001838152602001878152602001611505610e47565b8152602001868152602001611518610b02565b81524263ffffffff81811660209384015284546001808201875560009687529584902085516007909202019081558484015195810195909555604080850151600280880191909155606086015160038801556080860151600488015560a0860151600588015560c0909501516006909601805463ffffffff1916969092169590951790559154835192835290820152815185927f917acfbe39be6509ccf7fecb66a7e42ce2be1083c2d7dd3b9b7491dabddb8da4928290030190a2827f6012dbce857565c4a40974aa5de8373a761fc429077ef0c8c8611d1e20d63fb2826115fe610b02565b6040805192835260208301919091528051918290030190a2506001949350505050565b8082038281111561077257600080fd5b5490565b80546001019055565b6001600160a01b038084166000818152600f60209081526040808320948716808452948252918290208590558151858152915160008051602061168f8339815191529281900390910190a350505056fe8c5be1e5ebec7d5bd14f71427d1e84f3dd0314c0f7b2291e5b200ac8c7c3b925a2646970667358221220e6114547382a768904d729d84566cfeac5d8bd8fc6d31a11f8f26f5ee2e8bfd264736f6c63430007050033",
  "immutableReferences": {
    "15479": [
      {
        "length": 32,
        "start": 2889
      },
      {
        "length": 32,
        "start": 4802
      }
    ]
  },
  "source": "// SPDX-License-Identifier: AGPL-3.0-or-later\npragma solidity 0.7.5;\n\nlibrary LowGasSafeMath {\n    /// @notice Returns x + y, reverts if sum overflows uint256\n    /// @param x The augend\n    /// @param y The addend\n    /// @return z The sum of x and y\n    function add(uint256 x, uint256 y) internal pure returns (uint256 z) {\n        require((z = x + y) >= x);\n    }\n\n    function add32(uint32 x, uint32 y) internal pure returns (uint32 z) {\n        require((z = x + y) >= x);\n    }\n\n    /// @notice Returns x - y, reverts if underflows\n    /// @param x The minuend\n    /// @param y The subtrahend\n    /// @return z The difference of x and y\n    function sub(uint256 x, uint256 y) internal pure returns (uint256 z) {\n        require((z = x - y) <= x);\n    }\n\n    function sub32(uint32 x, uint32 y) internal pure returns (uint32 z) {\n        require((z = x - y) <= x);\n    }\n\n    /// @notice Returns x * y, reverts if overflows\n    /// @param x The multiplicand\n    /// @param y The multiplier\n    /// @return z The product of x and y\n    function mul(uint256 x, uint256 y) internal pure returns (uint256 z) {\n        require(x == 0 || (z = x * y) / x == y);\n    }\n\n    /// @notice Returns x + y, reverts if overflows or underflows\n    /// @param x The augend\n    /// @param y The addend\n    /// @return z The sum of x and y\n    function add(int256 x, int256 y) internal pure returns (int256 z) {\n        require((z = x + y) >= x == (y >= 0));\n    }\n\n    /// @notice Returns x - y, reverts if overflows or underflows\n    /// @param x The minuend\n    /// @param y The subtrahend\n    /// @return z The difference of x and y\n    function sub(int256 x, int256 y) internal pure returns (int256 z) {\n        require((z = x - y) <= x == (y >= 0));\n    }\n\n    function div(uint256 x, uint256 y) internal pure returns(uint256 z){\n        require(y > 0);\n        z=x/y;\n    }\n}\n\nlibrary Address {\n    /**\n     * @dev Returns true if `account` is a contract.\n     *\n     * [IMPORTANT]\n     * ====\n     * It is unsafe to assume that an address for which this function returns\n     * false is an externally-owned account (EOA) and not a contract.\n     *\n     * Among others, `isContract` will return false for the following\n     * types of addresses:\n     *\n     *  - an externally-owned account\n     *  - a contract in construction\n     *  - an address where a contract will be created\n     *  - an address where a contract lived, but was destroyed\n     * ====\n     */\n    function isContract(address account) internal view returns (bool) {\n        // This method relies in extcodesize, which returns 0 for contracts in\n        // construction, since the code is only stored at the end of the\n        // constructor execution.\n\n        uint256 size;\n        // solhint-disable-next-line no-inline-assembly\n        assembly { size := extcodesize(account) }\n        return size > 0;\n    }\n\n    /**\n     * @dev Replacement for Solidity's `transfer`: sends `amount` wei to\n     * `recipient`, forwarding all available gas and reverting on errors.\n     *\n     * https://eips.ethereum.org/EIPS/eip-1884[EIP1884] increases the gas cost\n     * of certain opcodes, possibly making contracts go over the 2300 gas limit\n     * imposed by `transfer`, making them unable to receive funds via\n     * `transfer`. {sendValue} removes this limitation.\n     *\n     * https://diligence.consensys.net/posts/2019/09/stop-using-soliditys-transfer-now/[Learn more].\n     *\n     * IMPORTANT: because control is transferred to `recipient`, care must be\n     * taken to not create reentrancy vulnerabilities. Consider using\n     * {ReentrancyGuard}\n     */\n    function sendValue(address payable recipient, uint256 amount) internal {\n        require(address(this).balance >= amount, \"Address: insufficient balance\");\n\n        // solhint-disable-next-line avoid-low-level-calls, avoid-call-value\n        (bool success, ) = recipient.call{ value: amount }(\"\");\n        require(success, \"Address: unable to send value, recipient may have reverted\");\n    }\n\n    /**\n     * @dev Performs a Solidity function call using a low level `call`. A\n     * plain`call` is an unsafe replacement for a function call: use this\n     * function instead.\n     *\n     * If `target` reverts with a revert reason, it is bubbled up by this\n     * function (like regular Solidity function calls).\n     *\n     * Requirements:\n     *\n     * - `target` must be a contract.\n     * - calling `target` with `data` must not revert.\n     *\n     * _Available since v3.1._\n     */\n    function functionCall(address target, bytes memory data) internal returns (bytes memory) {\n      return functionCall(target, data, \"Address: low-level call failed\");\n    }\n\n    /**\n     * @dev Same as {xref-Address-functionCall-address-bytes-}[`functionCall`], but with\n     * `errorMessage` as a fallback revert reason when `target` reverts.\n     *\n     * _Available since v3.1._\n     */\n    function functionCall(\n        address target, \n        bytes memory data, \n        string memory errorMessage\n    ) internal returns (bytes memory) {\n        return _functionCallWithValue(target, data, 0, errorMessage);\n    }\n\n    /**\n     * @dev Same as {xref-Address-functionCall-address-bytes-}[`functionCall`],\n     * but also transferring `value` wei to `target`.\n     *\n     * Requirements:\n     *\n     * - the calling contract must have an ETH balance of at least `value`.\n     * - the called Solidity function must be `payable`.\n     *\n     * _Available since v3.1._\n     */\n    function functionCallWithValue(address target, bytes memory data, uint256 value) internal returns (bytes memory) {\n        return functionCallWithValue(target, data, value, \"Address: low-level call with value failed\");\n    }\n\n    /**\n     * @dev Same as {xref-Address-functionCallWithValue-address-bytes-uint256-}[`functionCallWithValue`], but\n     * with `errorMessage` as a fallback revert reason when `target` reverts.\n     *\n     * _Available since v3.1._\n     */\n    function functionCallWithValue(\n        address target, \n        bytes memory data, \n        uint256 value, \n        string memory errorMessage\n    ) internal returns (bytes memory) {\n        require(address(this).balance >= value, \"Address: insufficient balance for call\");\n        require(isContract(target), \"Address: call to non-contract\");\n\n        // solhint-disable-next-line avoid-low-level-calls\n        (bool success, bytes memory returndata) = target.call{ value: value }(data);\n        return _verifyCallResult(success, returndata, errorMessage);\n    }\n\n    function _functionCallWithValue(\n        address target, \n        bytes memory data, \n        uint256 weiValue, \n        string memory errorMessage\n    ) private returns (bytes memory) {\n        require(isContract(target), \"Address: call to non-contract\");\n\n        // solhint-disable-next-line avoid-low-level-calls\n        (bool success, bytes memory returndata) = target.call{ value: weiValue }(data);\n        if (success) {\n            return returndata;\n        } else {\n            // Look for revert reason and bubble it up if present\n            if (returndata.length > 0) {\n                // The easiest way to bubble the revert reason is using memory via assembly\n\n                // solhint-disable-next-line no-inline-assembly\n                assembly {\n                    let returndata_size := mload(returndata)\n                    revert(add(32, returndata), returndata_size)\n                }\n            } else {\n                revert(errorMessage);\n            }\n        }\n    }\n\n  /**\n     * @dev Same as {xref-Address-functionCall-address-bytes-}[`functionCall`],\n     * but performing a static call.\n     *\n     * _Available since v3.3._\n     */\n    function functionStaticCall(address target, bytes memory data) internal view returns (bytes memory) {\n        return functionStaticCall(target, data, \"Address: low-level static call failed\");\n    }\n\n    /**\n     * @dev Same as {xref-Address-functionCall-address-bytes-string-}[`functionCall`],\n     * but performing a static call.\n     *\n     * _Available since v3.3._\n     */\n    function functionStaticCall(\n        address target, \n        bytes memory data, \n        string memory errorMessage\n    ) internal view returns (bytes memory) {\n        require(isContract(target), \"Address: static call to non-contract\");\n\n        // solhint-disable-next-line avoid-low-level-calls\n        (bool success, bytes memory returndata) = target.staticcall(data);\n        return _verifyCallResult(success, returndata, errorMessage);\n    }\n\n    /**\n     * @dev Same as {xref-Address-functionCall-address-bytes-}[`functionCall`],\n     * but performing a delegate call.\n     *\n     * _Available since v3.3._\n     */\n    function functionDelegateCall(address target, bytes memory data) internal returns (bytes memory) {\n        return functionDelegateCall(target, data, \"Address: low-level delegate call failed\");\n    }\n\n    /**\n     * @dev Same as {xref-Address-functionCall-address-bytes-string-}[`functionCall`],\n     * but performing a delegate call.\n     *\n     * _Available since v3.3._\n     */\n    function functionDelegateCall(\n        address target, \n        bytes memory data, \n        string memory errorMessage\n    ) internal returns (bytes memory) {\n        require(isContract(target), \"Address: delegate call to non-contract\");\n\n        // solhint-disable-next-line avoid-low-level-calls\n        (bool success, bytes memory returndata) = target.delegatecall(data);\n        return _verifyCallResult(success, returndata, errorMessage);\n    }\n\n    function _verifyCallResult(\n        bool success, \n        bytes memory returndata, \n        string memory errorMessage\n    ) private pure returns(bytes memory) {\n        if (success) {\n            return returndata;\n        } else {\n            // Look for revert reason and bubble it up if present\n            if (returndata.length > 0) {\n                // The easiest way to bubble the revert reason is using memory via assembly\n\n                // solhint-disable-next-line no-inline-assembly\n                assembly {\n                    let returndata_size := mload(returndata)\n                    revert(add(32, returndata), returndata_size)\n                }\n            } else {\n                revert(errorMessage);\n            }\n        }\n    }\n\n    function addressToString(address _address) internal pure returns(string memory) {\n        bytes32 _bytes = bytes32(uint256(_address));\n        bytes memory HEX = \"0123456789abcdef\";\n        bytes memory _addr = new bytes(42);\n\n        _addr[0] = '0';\n        _addr[1] = 'x';\n\n        for(uint256 i = 0; i < 20; i++) {\n            _addr[2+i*2] = HEX[uint8(_bytes[i + 12] >> 4)];\n            _addr[3+i*2] = HEX[uint8(_bytes[i + 12] & 0x0f)];\n        }\n\n        return string(_addr);\n\n    }\n}\n\ninterface IERC20 {\n  /**\n   * @dev Returns the amount of tokens in existence.\n   */\n  function totalSupply() external view returns (uint256);\n\n  /**\n   * @dev Returns the amount of tokens owned by `account`.\n   */\n  function balanceOf(address account) external view returns (uint256);\n\n  /**\n   * @dev Moves `amount` tokens from the caller's account to `recipient`.\n   *\n   * Returns a boolean value indicating whether the operation succeeded.\n   *\n   * Emits a {Transfer} event.\n   */\n  function transfer(address recipient, uint256 amount) external returns (bool);\n\n  /**\n   * @dev Returns the remaining number of tokens that `spender` will be\n   * allowed to spend on behalf of `owner` through {transferFrom}. This is\n   * zero by default.\n   *\n   * This value changes when {approve} or {transferFrom} are called.\n   */\n  function allowance(address owner, address spender) external view returns (uint256);\n\n  /**\n   * @dev Sets `amount` as the allowance of `spender` over the caller's tokens.\n   *\n   * Returns a boolean value indicating whether the operation succeeded.\n   *\n   * IMPORTANT: Beware that changing an allowance with this method brings the risk\n   * that someone may use both the old and the new allowance by unfortunate\n   * transaction ordering. One possible solution to mitigate this race\n   * condition is to first reduce the spender's allowance to 0 and set the\n   * desired value afterwards:\n   * https://github.com/ethereum/EIPs/issues/20#issuecomment-263524729\n   *\n   * Emits an {Approval} event.\n   */\n  function approve(address spender, uint256 amount) external returns (bool);\n\n  /**\n   * @dev Moves `amount` tokens from `sender` to `recipient` using the\n   * allowance mechanism. `amount` is then deducted from the caller's\n   * allowance.\n   *\n   * Returns a boolean value indicating whether the operation succeeded.\n   *\n   * Emits a {Transfer} event.\n   */\n  function transferFrom(address sender, address recipient, uint256 amount) external returns (bool);\n\n  /**\n   * @dev Emitted when `value` tokens are moved from one account (`from`) to\n   * another (`to`).\n   *\n   * Note that `value` may be zero.\n   */\n  event Transfer(address indexed from, address indexed to, uint256 value);\n\n  /**\n   * @dev Emitted when the allowance of a `spender` for an `owner` is set by\n   * a call to {approve}. `value` is the new allowance.\n   */\n  event Approval(address indexed owner, address indexed spender, uint256 value);\n}\n\nabstract contract ERC20\n  is \n    IERC20\n  {\n\n  using LowGasSafeMath for uint256;\n\n  // TODO comment actual hash value.\n  bytes32 constant private ERC20TOKEN_ERC1820_INTERFACE_ID = keccak256( \"ERC20Token\" );\n    \n  mapping (address => uint256) internal _balances;\n\n  mapping (address => mapping (address => uint256)) internal _allowances;\n\n  uint256 internal _totalSupply;\n\n  string internal _name;\n    \n  string internal _symbol;\n    \n  uint8 internal _decimals;\n\n  /**\n   * @dev Sets the values for {name} and {symbol}, initializes {decimals} with\n   * a default value of 18.\n   *\n   * To select a different value for {decimals}, use {_setupDecimals}.\n   *\n   * All three of these values are immutable: they can only be set once during\n   * construction.\n   */\n  constructor (string memory name_, string memory symbol_, uint8 decimals_) {\n    _name = name_;\n    _symbol = symbol_;\n    _decimals = decimals_;\n  }\n\n  /**\n   * @dev Returns the name of the token.\n   */\n  function name() public view returns (string memory) {\n    return _name;\n  }\n\n  /**\n   * @dev Returns the symbol of the token, usually a shorter version of the\n   * name.\n   */\n  function symbol() public view returns (string memory) {\n    return _symbol;\n  }\n\n  /**\n   * @dev Returns the number of decimals used to get its user representation.\n   * For example, if `decimals` equals `2`, a balance of `505` tokens should\n   * be displayed to a user as `5,05` (`505 / 10 ** 2`).\n   *\n   * Tokens usually opt for a value of 18, imitating the relationship between\n   * Ether and Wei. This is the value {ERC20} uses, unless {_setupDecimals} is\n   * called.\n   *\n   * NOTE: This information is only used for _display_ purposes: it in\n   * no way affects any of the arithmetic of the contract, including\n   * {IERC20-balanceOf} and {IERC20-transfer}.\n   */\n  function decimals() public view returns (uint8) {\n    return _decimals;\n  }\n\n  /**\n   * @dev See {IERC20-totalSupply}.\n   */\n  function totalSupply() public view override returns (uint256) {\n    return _totalSupply;\n  }\n\n  /**\n   * @dev See {IERC20-balanceOf}.\n   */\n  function balanceOf(address account) public view virtual override returns (uint256) {\n    return _balances[account];\n  }\n\n  /**\n   * @dev See {IERC20-transfer}.\n   *\n   * Requirements:\n   *\n   * - `recipient` cannot be the zero address.\n   * - the caller must have a balance of at least `amount`.\n   */\n  function transfer(address recipient, uint256 amount) public virtual override returns (bool) {\n    _transfer(msg.sender, recipient, amount);\n    return true;\n  }\n\n    /**\n     * @dev See {IERC20-allowance}.\n     */\n    function allowance(address owner, address spender) public view virtual override returns (uint256) {\n        return _allowances[owner][spender];\n    }\n\n    /**\n     * @dev See {IERC20-approve}.\n     *\n     * Requirements:\n     *\n     * - `spender` cannot be the zero address.\n     */\n    function approve(address spender, uint256 amount) public virtual override returns (bool) {\n        _approve(msg.sender, spender, amount);\n        return true;\n    }\n\n    /**\n     * @dev See {IERC20-transferFrom}.\n     *\n     * Emits an {Approval} event indicating the updated allowance. This is not\n     * required by the EIP. See the note at the beginning of {ERC20}.\n     *\n     * Requirements:\n     *\n     * - `sender` and `recipient` cannot be the zero address.\n     * - `sender` must have a balance of at least `amount`.\n     * - the caller must have allowance for ``sender``'s tokens of at least\n     * `amount`.\n     */\n    function transferFrom(address sender, address recipient, uint256 amount) public virtual override returns (bool) {\n        _transfer(sender, recipient, amount);\n        _approve(sender, msg.sender, _allowances[sender][msg.sender]\n            .sub(amount));\n        return true;\n    }\n\n    /**\n     * @dev Atomically increases the allowance granted to `spender` by the caller.\n     *\n     * This is an alternative to {approve} that can be used as a mitigation for\n     * problems described in {IERC20-approve}.\n     *\n     * Emits an {Approval} event indicating the updated allowance.\n     *\n     * Requirements:\n     *\n     * - `spender` cannot be the zero address.\n     */\n    function increaseAllowance(address spender, uint256 addedValue) public virtual returns (bool) {\n        _approve(msg.sender, spender, _allowances[msg.sender][spender].add(addedValue));\n        return true;\n    }\n\n    /**\n     * @dev Atomically decreases the allowance granted to `spender` by the caller.\n     *\n     * This is an alternative to {approve} that can be used as a mitigation for\n     * problems described in {IERC20-approve}.\n     *\n     * Emits an {Approval} event indicating the updated allowance.\n     *\n     * Requirements:\n     *\n     * - `spender` cannot be the zero address.\n     * - `spender` must have allowance for the caller of at least\n     * `subtractedValue`.\n     */\n    function decreaseAllowance(address spender, uint256 subtractedValue) public virtual returns (bool) {\n        _approve(msg.sender, spender, _allowances[msg.sender][spender]\n            .sub(subtractedValue));\n        return true;\n    }\n\n  /**\n   * @dev Moves tokens `amount` from `sender` to `recipient`.\n   *\n   * This is internal function is equivalent to {transfer}, and can be used to\n   * e.g. implement automatic token fees, slashing mechanisms, etc.\n   *\n   * Emits a {Transfer} event.\n   *\n   * Requirements:\n   *\n   * - `sender` cannot be the zero address.\n   * - `recipient` cannot be the zero address.\n   * - `sender` must have a balance of at least `amount`.\n   */\n  function _transfer(address sender, address recipient, uint256 amount) internal virtual {\n    require(sender != address(0), \"ERC20: transfer from the zero address\");\n    require(recipient != address(0), \"ERC20: transfer to the zero address\");\n\n    _beforeTokenTransfer(sender, recipient, amount);\n\n    _balances[sender] = _balances[sender].sub(amount);\n    _balances[recipient] = _balances[recipient].add(amount);\n    emit Transfer(sender, recipient, amount);\n  }\n\n    /** @dev Creates `amount` tokens and assigns them to `account`, increasing\n     * the total supply.\n     *\n     * Emits a {Transfer} event with `from` set to the zero address.\n     *\n     * Requirements:\n     *\n     * - `to` cannot be the zero address.\n     */\n    function _mint(address account_, uint256 ammount_) internal virtual {\n        require(account_ != address(0), \"ERC20: mint to the zero address\");\n        _beforeTokenTransfer(address( this ), account_, ammount_);\n        _totalSupply = _totalSupply.add(ammount_);\n        _balances[account_] = _balances[account_].add(ammount_);\n        emit Transfer(address( 0 ), account_, ammount_);\n    }\n\n    /**\n     * @dev Destroys `amount` tokens from `account`, reducing the\n     * total supply.\n     *\n     * Emits a {Transfer} event with `to` set to the zero address.\n     *\n     * Requirements:\n     *\n     * - `account` cannot be the zero address.\n     * - `account` must have at least `amount` tokens.\n     */\n    function _burn(address account, uint256 amount) internal virtual {\n        require(account != address(0), \"ERC20: burn from the zero address\");\n\n        _beforeTokenTransfer(account, address(0), amount);\n\n        _balances[account] = _balances[account].sub(amount);\n        _totalSupply = _totalSupply.sub(amount);\n        emit Transfer(account, address(0), amount);\n    }\n\n    /**\n     * @dev Sets `amount` as the allowance of `spender` over the `owner` s tokens.\n     *\n     * This internal function is equivalent to `approve`, and can be used to\n     * e.g. set automatic allowances for certain subsystems, etc.\n     *\n     * Emits an {Approval} event.\n     *\n     * Requirements:\n     *\n     * - `owner` cannot be the zero address.\n     * - `spender` cannot be the zero address.\n     */\n    function _approve(address owner, address spender, uint256 amount) internal virtual {\n        require(owner != address(0), \"ERC20: approve from the zero address\");\n        require(spender != address(0), \"ERC20: approve to the zero address\");\n\n        _allowances[owner][spender] = amount;\n        emit Approval(owner, spender, amount);\n    }\n\n    /**\n     * @dev Sets {decimals} to a value other than the default one of 18.\n     *\n     * WARNING: This function should only be called from the constructor. Most\n     * applications that interact with token contracts will not expect\n     * {decimals} to ever change, and may work incorrectly if it does.\n     */\n\n  /**\n   * @dev Hook that is called before any transfer of tokens. This includes\n   * minting and burning.\n   *\n   * Calling conditions:\n   *\n   * - when `from` and `to` are both non-zero, `amount` of ``from``'s tokens\n   * will be to transferred to `to`.\n   * - when `from` is zero, `amount` tokens will be minted for `to`.\n   * - when `to` is zero, `amount` of ``from``'s tokens will be burned.\n   * - `from` and `to` are never both zero.\n   *\n   * To learn more about hooks, head to xref:ROOT:extending-contracts.adoc#using-hooks[Using Hooks].\n   */\n  function _beforeTokenTransfer( address from_, address to_, uint256 amount_ ) internal virtual { }\n}\n\nlibrary Counters {\n    using LowGasSafeMath for uint256;\n\n    struct Counter {\n        // This variable should never be directly accessed by users of the library: interactions must be restricted to\n        // the library's function. As of Solidity v0.5.2, this cannot be enforced, though there is a proposal to add\n        // this feature: see https://github.com/ethereum/solidity/issues/4637\n        uint256 _value; // default: 0\n    }\n\n    function current(Counter storage counter) internal view returns (uint256) {\n        return counter._value;\n    }\n\n    function increment(Counter storage counter) internal {\n        // The {SafeMath} overflow check can be skipped here, see the comment at the top\n        counter._value += 1;\n    }\n\n    function decrement(Counter storage counter) internal {\n        counter._value = counter._value.sub(1);\n    }\n}\n\ninterface IERC2612Permit {\n    /**\n     * @dev Sets `amount` as the allowance of `spender` over `owner`'s tokens,\n     * given `owner`'s signed approval.\n     *\n     * IMPORTANT: The same issues {IERC20-approve} has related to transaction\n     * ordering also apply here.\n     *\n     * Emits an {Approval} event.\n     *\n     * Requirements:\n     *\n     * - `owner` cannot be the zero address.\n     * - `spender` cannot be the zero address.\n     * - `deadline` must be a timestamp in the future.\n     * - `v`, `r` and `s` must be a valid `secp256k1` signature from `owner`\n     * over the EIP712-formatted function arguments.\n     * - the signature must use ``owner``'s current nonce (see {nonces}).\n     *\n     * For more information on the signature format, see the\n     * https://eips.ethereum.org/EIPS/eip-2612#specification[relevant EIP\n     * section].\n     */\n    function permit(\n        address owner,\n        address spender,\n        uint256 amount,\n        uint256 deadline,\n        uint8 v,\n        bytes32 r,\n        bytes32 s\n    ) external;\n\n    /**\n     * @dev Returns the current ERC2612 nonce for `owner`. This value must be\n     * included whenever a signature is generated for {permit}.\n     *\n     * Every successful call to {permit} increases ``owner``'s nonce by one. This\n     * prevents a signature from being used multiple times.\n     */\n    function nonces(address owner) external view returns (uint256);\n}\n\nabstract contract ERC20Permit is ERC20, IERC2612Permit {\n    using Counters for Counters.Counter;\n\n    mapping(address => Counters.Counter) private _nonces;\n\n    // keccak256(\"Permit(address owner,address spender,uint256 value,uint256 nonce,uint256 deadline)\");\n    bytes32 public constant PERMIT_TYPEHASH = 0x6e71edae12b1b97f4d1f60370fef10105fa2faae0126114a169c64845d6126c9;\n\n    bytes32 public immutable DOMAIN_SEPARATOR;\n\n    constructor() {\n\n        uint256 chainID;\n        assembly {\n            chainID := chainid()\n        }\n\n        DOMAIN_SEPARATOR = keccak256(abi.encode(\n            keccak256(\"EIP712Domain(string name,string version,uint256 chainId,address verifyingContract)\"),\n            keccak256(bytes(name())),\n            keccak256(bytes(\"1\")), // Version\n            chainID,\n            address(this)\n        ));\n    }\n\n    /**\n     * @dev See {IERC2612Permit-permit}.\n     *\n     */\n    function permit(\n        address owner,\n        address spender,\n        uint256 amount,\n        uint256 deadline,\n        uint8 v,\n        bytes32 r,\n        bytes32 s\n    ) public virtual override {\n        require(block.timestamp <= deadline, \"Permit: expired deadline\");\n\n        bytes32 hashStruct =\n            keccak256(abi.encode(PERMIT_TYPEHASH, owner, spender, amount, _nonces[owner].current(), deadline));\n\n        bytes32 _hash = keccak256(abi.encodePacked(uint16(0x1901), DOMAIN_SEPARATOR, hashStruct));\n\n        address signer = ecrecover(_hash, v, r, s);\n        require(signer != address(0) && signer == owner, \"ERC20Permit: Invalid signature\");\n\n        _nonces[owner].increment();\n        _approve(owner, spender, amount);\n    }\n\n    /**\n     * @dev See {IERC2612Permit-nonces}.\n     */\n    function nonces(address owner) public view override returns (uint256) {\n        return _nonces[owner].current();\n    }\n}\n\ncontract OwnableData {\n    address public owner;\n    address public pendingOwner;\n}\n\ncontract Ownable is OwnableData {\n    event OwnershipTransferred(address indexed previousOwner, address indexed newOwner);\n\n    /// @notice `owner` defaults to msg.sender on construction.\n    constructor() {\n        owner = msg.sender;\n        emit OwnershipTransferred(address(0), msg.sender);\n    }\n\n    /// @notice Transfers ownership to `newOwner`. Either directly or claimable by the new pending owner.\n    /// Can only be invoked by the current `owner`.\n    /// @param newOwner Address of the new owner.\n    /// @param direct True if `newOwner` should be set immediately. False if `newOwner` needs to use `claimOwnership`.\n    /// @param renounce Allows the `newOwner` to be `address(0)` if `direct` and `renounce` is True. Has no effect otherwise.\n    function transferOwnership(\n        address newOwner,\n        bool direct,\n        bool renounce\n    ) public onlyOwner {\n        if (direct) {\n            // Checks\n            require(newOwner != address(0) || renounce, \"Ownable: zero address\");\n\n            // Effects\n            emit OwnershipTransferred(owner, newOwner);\n            owner = newOwner;\n            pendingOwner = address(0);\n        } else {\n            // Effects\n            pendingOwner = newOwner;\n        }\n    }\n\n    /// @notice Needs to be called by `pendingOwner` to claim ownership.\n    function claimOwnership() public {\n        address _pendingOwner = pendingOwner;\n\n        // Checks\n        require(msg.sender == _pendingOwner, \"Ownable: caller != pending owner\");\n\n        // Effects\n        emit OwnershipTransferred(owner, _pendingOwner);\n        owner = _pendingOwner;\n        pendingOwner = address(0);\n    }\n\n    /// @notice Only allows the `owner` to execute the function.\n    modifier onlyOwner() {\n        require(msg.sender == owner, \"Ownable: caller is not the owner\");\n        _;\n    }\n}\n\ncontract sUTOP is ERC20Permit, Ownable {\n\n    using LowGasSafeMath for uint256;\n\n    modifier onlyStakingContract() {\n        require( msg.sender == stakingContract, \"OSC\" );\n        _;\n    }\n\n    address public stakingContract;\n    address public initializer;\n\n    event LogSupply(uint256 indexed epoch, uint256 timestamp, uint256 totalSupply );\n    event LogRebase( uint256 indexed epoch, uint256 rebase, uint256 index );\n    event LogStakingContractUpdated( address stakingContract );\n    event LogSetIndex(uint256 indexed index );\n\n    struct Rebase {\n        uint epoch;\n        uint rebase; // 18 decimals\n        uint totalStakedBefore;\n        uint totalStakedAfter;\n        uint amountRebased;\n        uint index;\n        uint32 timeOccured;\n    }\n    Rebase[] public rebases;\n\n    uint public INDEX;\n\n    uint256 private constant MAX_UINT256 = ~uint256(0);\n    uint256 private constant INITIAL_FRAGMENTS_SUPPLY = 5000000 * 10**9;\n\n    // TOTAL_GONS is a multiple of INITIAL_FRAGMENTS_SUPPLY so that _gonsPerFragment is an integer.\n    // Use the highest value that fits in a uint256 for max granularity.\n    uint256 private constant TOTAL_GONS = MAX_UINT256 - (MAX_UINT256 % INITIAL_FRAGMENTS_SUPPLY);\n\n    // MAX_SUPPLY = maximum integer < (sqrt(4*TOTAL_GONS + 1) - 1) / 2\n    uint256 private constant MAX_SUPPLY = ~uint128(0);  // (2^128) - 1\n\n    uint256 private _gonsPerFragment;\n    mapping(address => uint256) private _gonBalances;\n\n    mapping ( address => mapping ( address => uint256 ) ) private _allowedValue;\n\n    constructor() ERC20(\"Staked Utopia\", \"sUTOP\", 9) ERC20Permit() {\n        initializer = msg.sender;\n        _totalSupply = INITIAL_FRAGMENTS_SUPPLY;\n        _gonsPerFragment = TOTAL_GONS.div(_totalSupply);\n    }\n\n    function initialize( address stakingContract_ ) external returns ( bool ) {\n        require( msg.sender == initializer, \"NA\" );\n        require( stakingContract_ != address(0), \"IA\" );\n        stakingContract = stakingContract_;\n        _gonBalances[ stakingContract ] = TOTAL_GONS;\n\n        emit Transfer( address(0x0), stakingContract, _totalSupply );\n        emit LogStakingContractUpdated( stakingContract_ );\n        \n        initializer = address(0);\n        return true;\n    }\n\n    function setIndex( uint _INDEX ) external onlyOwner() {\n        require( INDEX == 0, \"INZ\");\n        INDEX = gonsForBalance( _INDEX );\n        emit LogSetIndex(INDEX);\n    }\n\n    /**\n        @notice increases MEMOries supply to increase staking balances relative to profit_\n        @param profit_ uint256\n        @return uint256\n     */\n    function rebase( uint256 profit_, uint epoch_ ) public onlyStakingContract() returns ( uint256 ) {\n        uint256 rebaseAmount;\n        uint256 circulatingSupply_ = circulatingSupply();\n\n        if ( profit_ == 0 ) {\n            emit LogSupply( epoch_, block.timestamp, _totalSupply );\n            emit LogRebase( epoch_, 0, index() );\n            return _totalSupply;\n        } else if ( circulatingSupply_ > 0 ){\n            rebaseAmount = profit_.mul( _totalSupply ).div( circulatingSupply_ );\n        } else {\n            rebaseAmount = profit_;\n        }\n\n        _totalSupply = _totalSupply.add( rebaseAmount );\n\n        if ( _totalSupply > MAX_SUPPLY ) {\n            _totalSupply = MAX_SUPPLY;\n        }\n\n        _gonsPerFragment = TOTAL_GONS.div( _totalSupply );\n\n        _storeRebase( circulatingSupply_, profit_, epoch_ );\n\n        return _totalSupply;\n    }\n\n    /**\n        @notice emits event with data about rebase\n        @param previousCirculating_ uint\n        @param profit_ uint\n        @param epoch_ uint\n        @return bool\n     */\n    function _storeRebase( uint previousCirculating_, uint profit_, uint epoch_ ) internal returns ( bool ) {\n        uint rebasePercent = profit_.mul( 1e18 ).div( previousCirculating_ );\n\n        rebases.push( Rebase ( {\n            epoch: epoch_,\n            rebase: rebasePercent, // 18 decimals\n            totalStakedBefore: previousCirculating_,\n            totalStakedAfter: circulatingSupply(),\n            amountRebased: profit_,\n            index: index(),\n            timeOccured: uint32(block.timestamp)\n        }));\n        \n        emit LogSupply( epoch_, block.timestamp, _totalSupply );\n        emit LogRebase( epoch_, rebasePercent, index() );\n\n        return true;\n    }\n\n    function balanceOf( address who ) public view override returns ( uint256 ) {\n        return _gonBalances[ who ].div( _gonsPerFragment );\n    }\n\n    function gonsForBalance( uint amount ) public view returns ( uint ) {\n        return amount.mul( _gonsPerFragment );\n    }\n\n    function balanceForGons( uint gons ) public view returns ( uint ) {\n        return gons.div( _gonsPerFragment );\n    }\n\n    // Staking contract holds excess MEMOries\n    function circulatingSupply() public view returns ( uint ) {\n        return _totalSupply.sub( balanceOf( stakingContract ) );\n    }\n\n    function index() public view returns ( uint ) {\n        return balanceForGons( INDEX );\n    }\n\n    function transfer( address to, uint256 value ) public override returns (bool) {\n        uint256 gonValue = value.mul( _gonsPerFragment );\n        _gonBalances[ msg.sender ] = _gonBalances[ msg.sender ].sub( gonValue );\n        _gonBalances[ to ] = _gonBalances[ to ].add( gonValue );\n        emit Transfer( msg.sender, to, value );\n        return true;\n    }\n\n    function allowance( address owner_, address spender ) public view override returns ( uint256 ) {\n        return _allowedValue[ owner_ ][ spender ];\n    }\n\n    function transferFrom( address from, address to, uint256 value ) public override returns ( bool ) {\n       _allowedValue[ from ][ msg.sender ] = _allowedValue[ from ][ msg.sender ].sub( value );\n       emit Approval( from, msg.sender,  _allowedValue[ from ][ msg.sender ] );\n\n        uint256 gonValue = gonsForBalance( value );\n        _gonBalances[ from ] = _gonBalances[from].sub( gonValue );\n        _gonBalances[ to ] = _gonBalances[to].add( gonValue );\n        emit Transfer( from, to, value );\n\n        return true;\n    }\n\n    function approve( address spender, uint256 value ) public override returns (bool) {\n         _allowedValue[ msg.sender ][ spender ] = value;\n         emit Approval( msg.sender, spender, value );\n         return true;\n    }\n\n    // What gets called in a permit\n    function _approve( address owner, address spender, uint256 value ) internal override virtual {\n        _allowedValue[owner][spender] = value;\n        emit Approval( owner, spender, value );\n    }\n\n    function increaseAllowance( address spender, uint256 addedValue ) public override returns (bool) {\n        _allowedValue[ msg.sender ][ spender ] = _allowedValue[ msg.sender ][ spender ].add( addedValue );\n        emit Approval( msg.sender, spender, _allowedValue[ msg.sender ][ spender ] );\n        return true;\n    }\n\n    function decreaseAllowance( address spender, uint256 subtractedValue ) public override returns (bool) {\n        uint256 oldValue = _allowedValue[ msg.sender ][ spender ];\n        if (subtractedValue >= oldValue) {\n            _allowedValue[ msg.sender ][ spender ] = 0;\n        } else {\n            _allowedValue[ msg.sender ][ spender ] = oldValue.sub( subtractedValue );\n        }\n        emit Approval( msg.sender, spender, _allowedValue[ msg.sender ][ spender ] );\n        return true;\n    }\n}",
  "sourcePath": "/Users/kisharora/Developer/web3/paradiseDao/contracts/sUTOP.sol",
  "compiler": {
    "name": "solc",
    "version": "0.7.5+commit.eb77ed08.Emscripten.clang"
  },
  "schemaVersion": "3.4.4",
  "updatedAt": "2022-01-30T06:19:21.194Z",
  "devdoc": {
    "kind": "dev",
    "methods": {
      "decimals()": {
        "details": "Returns the number of decimals used to get its user representation. For example, if `decimals` equals `2`, a balance of `505` tokens should be displayed to a user as `5,05` (`505 / 10 ** 2`). Tokens usually opt for a value of 18, imitating the relationship between Ether and Wei. This is the value {ERC20} uses, unless {_setupDecimals} is called. NOTE: This information is only used for _display_ purposes: it in no way affects any of the arithmetic of the contract, including {IERC20-balanceOf} and {IERC20-transfer}."
      },
      "decreaseAllowance(address,uint256)": {
        "details": "Atomically decreases the allowance granted to `spender` by the caller. This is an alternative to {approve} that can be used as a mitigation for problems described in {IERC20-approve}. Emits an {Approval} event indicating the updated allowance. Requirements: - `spender` cannot be the zero address. - `spender` must have allowance for the caller of at least `subtractedValue`."
      },
      "increaseAllowance(address,uint256)": {
        "details": "Atomically increases the allowance granted to `spender` by the caller. This is an alternative to {approve} that can be used as a mitigation for problems described in {IERC20-approve}. Emits an {Approval} event indicating the updated allowance. Requirements: - `spender` cannot be the zero address."
      },
      "name()": {
        "details": "Returns the name of the token."
      },
      "nonces(address)": {
        "details": "See {IERC2612Permit-nonces}."
      },
      "permit(address,address,uint256,uint256,uint8,bytes32,bytes32)": {
        "details": "See {IERC2612Permit-permit}."
      },
      "rebase(uint256,uint256)": {
        "params": {
          "profit_": "uint256"
        },
        "returns": {
          "_0": "uint256"
        }
      },
      "symbol()": {
        "details": "Returns the symbol of the token, usually a shorter version of the name."
      },
      "totalSupply()": {
        "details": "See {IERC20-totalSupply}."
      },
      "transferOwnership(address,bool,bool)": {
        "params": {
          "direct": "True if `newOwner` should be set immediately. False if `newOwner` needs to use `claimOwnership`.",
          "newOwner": "Address of the new owner.",
          "renounce": "Allows the `newOwner` to be `address(0)` if `direct` and `renounce` is True. Has no effect otherwise."
        }
      }
    },
    "version": 1
  },
  "userdoc": {
    "kind": "user",
    "methods": {
      "claimOwnership()": {
        "notice": "Needs to be called by `pendingOwner` to claim ownership."
      },
      "rebase(uint256,uint256)": {
        "notice": "increases MEMOries supply to increase staking balances relative to profit_"
      },
      "transferOwnership(address,bool,bool)": {
        "notice": "Transfers ownership to `newOwner`. Either directly or claimable by the new pending owner. Can only be invoked by the current `owner`."
      }
    },
    "version": 1
  }
}