{
  "contractName": "TimeStaking",
  "abi": [
    {
      "inputs": [
        {
          "internalType": "address",
          "name": "_Time",
          "type": "address"
        },
        {
          "internalType": "address",
          "name": "_Memories",
          "type": "address"
        },
        {
          "internalType": "uint32",
          "name": "_epochLength",
          "type": "uint32"
        },
        {
          "internalType": "uint256",
          "name": "_firstEpochNumber",
          "type": "uint256"
        },
        {
          "internalType": "uint32",
          "name": "_firstEpochTime",
          "type": "uint32"
        }
      ],
      "stateMutability": "nonpayable",
      "type": "constructor"
    },
    {
      "anonymous": false,
      "inputs": [
        {
          "indexed": true,
          "internalType": "address",
          "name": "recipient",
          "type": "address"
        },
        {
          "indexed": false,
          "internalType": "uint256",
          "name": "amount",
          "type": "uint256"
        }
      ],
      "name": "LogClaim",
      "type": "event"
    },
    {
      "anonymous": false,
      "inputs": [
        {
          "indexed": true,
          "internalType": "address",
          "name": "user",
          "type": "address"
        },
        {
          "indexed": false,
          "internalType": "bool",
          "name": "locked",
          "type": "bool"
        }
      ],
      "name": "LogDepositLock",
      "type": "event"
    },
    {
      "anonymous": false,
      "inputs": [
        {
          "indexed": true,
          "internalType": "address",
          "name": "recipient",
          "type": "address"
        },
        {
          "indexed": false,
          "internalType": "uint256",
          "name": "memoAmount",
          "type": "uint256"
        },
        {
          "indexed": false,
          "internalType": "uint256",
          "name": "timeAmount",
          "type": "uint256"
        }
      ],
      "name": "LogForfeit",
      "type": "event"
    },
    {
      "anonymous": false,
      "inputs": [
        {
          "indexed": false,
          "internalType": "uint256",
          "name": "distribute",
          "type": "uint256"
        }
      ],
      "name": "LogRebase",
      "type": "event"
    },
    {
      "anonymous": false,
      "inputs": [
        {
          "indexed": false,
          "internalType": "enum TimeStaking.CONTRACTS",
          "name": "contractType",
          "type": "uint8"
        },
        {
          "indexed": true,
          "internalType": "address",
          "name": "_contract",
          "type": "address"
        }
      ],
      "name": "LogSetContract",
      "type": "event"
    },
    {
      "anonymous": false,
      "inputs": [
        {
          "indexed": true,
          "internalType": "address",
          "name": "recipient",
          "type": "address"
        },
        {
          "indexed": false,
          "internalType": "uint256",
          "name": "amount",
          "type": "uint256"
        }
      ],
      "name": "LogStake",
      "type": "event"
    },
    {
      "anonymous": false,
      "inputs": [
        {
          "indexed": true,
          "internalType": "address",
          "name": "recipient",
          "type": "address"
        },
        {
          "indexed": false,
          "internalType": "uint256",
          "name": "amount",
          "type": "uint256"
        }
      ],
      "name": "LogUnstake",
      "type": "event"
    },
    {
      "anonymous": false,
      "inputs": [
        {
          "indexed": false,
          "internalType": "uint256",
          "name": "period",
          "type": "uint256"
        }
      ],
      "name": "LogWarmupPeriod",
      "type": "event"
    },
    {
      "anonymous": false,
      "inputs": [
        {
          "indexed": true,
          "internalType": "address",
          "name": "previousOwner",
          "type": "address"
        },
        {
          "indexed": true,
          "internalType": "address",
          "name": "newOwner",
          "type": "address"
        }
      ],
      "name": "OwnershipTransferred",
      "type": "event"
    },
    {
      "inputs": [],
      "name": "Memories",
      "outputs": [
        {
          "internalType": "contract IMemo",
          "name": "",
          "type": "address"
        }
      ],
      "stateMutability": "view",
      "type": "function"
    },
    {
      "inputs": [],
      "name": "Time",
      "outputs": [
        {
          "internalType": "contract IERC20",
          "name": "",
          "type": "address"
        }
      ],
      "stateMutability": "view",
      "type": "function"
    },
    {
      "inputs": [],
      "name": "claimOwnership",
      "outputs": [],
      "stateMutability": "nonpayable",
      "type": "function"
    },
    {
      "inputs": [],
      "name": "distributor",
      "outputs": [
        {
          "internalType": "contract IDistributor",
          "name": "",
          "type": "address"
        }
      ],
      "stateMutability": "view",
      "type": "function"
    },
    {
      "inputs": [],
      "name": "epoch",
      "outputs": [
        {
          "internalType": "uint256",
          "name": "number",
          "type": "uint256"
        },
        {
          "internalType": "uint256",
          "name": "distribute",
          "type": "uint256"
        },
        {
          "internalType": "uint32",
          "name": "length",
          "type": "uint32"
        },
        {
          "internalType": "uint32",
          "name": "endTime",
          "type": "uint32"
        }
      ],
      "stateMutability": "view",
      "type": "function"
    },
    {
      "inputs": [],
      "name": "owner",
      "outputs": [
        {
          "internalType": "address",
          "name": "",
          "type": "address"
        }
      ],
      "stateMutability": "view",
      "type": "function"
    },
    {
      "inputs": [],
      "name": "pendingOwner",
      "outputs": [
        {
          "internalType": "address",
          "name": "",
          "type": "address"
        }
      ],
      "stateMutability": "view",
      "type": "function"
    },
    {
      "inputs": [],
      "name": "totalBonus",
      "outputs": [
        {
          "internalType": "uint256",
          "name": "",
          "type": "uint256"
        }
      ],
      "stateMutability": "view",
      "type": "function"
    },
    {
      "inputs": [
        {
          "internalType": "address",
          "name": "newOwner",
          "type": "address"
        },
        {
          "internalType": "bool",
          "name": "direct",
          "type": "bool"
        },
        {
          "internalType": "bool",
          "name": "renounce",
          "type": "bool"
        }
      ],
      "name": "transferOwnership",
      "outputs": [],
      "stateMutability": "nonpayable",
      "type": "function"
    },
    {
      "inputs": [],
      "name": "warmupContract",
      "outputs": [
        {
          "internalType": "contract IWarmup",
          "name": "",
          "type": "address"
        }
      ],
      "stateMutability": "view",
      "type": "function"
    },
    {
      "inputs": [
        {
          "internalType": "address",
          "name": "",
          "type": "address"
        }
      ],
      "name": "warmupInfo",
      "outputs": [
        {
          "internalType": "uint256",
          "name": "deposit",
          "type": "uint256"
        },
        {
          "internalType": "uint256",
          "name": "gons",
          "type": "uint256"
        },
        {
          "internalType": "uint256",
          "name": "expiry",
          "type": "uint256"
        },
        {
          "internalType": "bool",
          "name": "lock",
          "type": "bool"
        }
      ],
      "stateMutability": "view",
      "type": "function"
    },
    {
      "inputs": [],
      "name": "warmupPeriod",
      "outputs": [
        {
          "internalType": "uint256",
          "name": "",
          "type": "uint256"
        }
      ],
      "stateMutability": "view",
      "type": "function"
    },
    {
      "inputs": [
        {
          "internalType": "uint256",
          "name": "_amount",
          "type": "uint256"
        },
        {
          "internalType": "address",
          "name": "_recipient",
          "type": "address"
        }
      ],
      "name": "stake",
      "outputs": [
        {
          "internalType": "bool",
          "name": "",
          "type": "bool"
        }
      ],
      "stateMutability": "nonpayable",
      "type": "function"
    },
    {
      "inputs": [
        {
          "internalType": "address",
          "name": "_recipient",
          "type": "address"
        }
      ],
      "name": "claim",
      "outputs": [],
      "stateMutability": "nonpayable",
      "type": "function"
    },
    {
      "inputs": [],
      "name": "forfeit",
      "outputs": [],
      "stateMutability": "nonpayable",
      "type": "function"
    },
    {
      "inputs": [],
      "name": "toggleDepositLock",
      "outputs": [],
      "stateMutability": "nonpayable",
      "type": "function"
    },
    {
      "inputs": [
        {
          "internalType": "uint256",
          "name": "_amount",
          "type": "uint256"
        },
        {
          "internalType": "bool",
          "name": "_trigger",
          "type": "bool"
        }
      ],
      "name": "unstake",
      "outputs": [],
      "stateMutability": "nonpayable",
      "type": "function"
    },
    {
      "inputs": [],
      "name": "index",
      "outputs": [
        {
          "internalType": "uint256",
          "name": "",
          "type": "uint256"
        }
      ],
      "stateMutability": "view",
      "type": "function"
    },
    {
      "inputs": [],
      "name": "rebase",
      "outputs": [],
      "stateMutability": "nonpayable",
      "type": "function"
    },
    {
      "inputs": [],
      "name": "contractBalance",
      "outputs": [
        {
          "internalType": "uint256",
          "name": "",
          "type": "uint256"
        }
      ],
      "stateMutability": "view",
      "type": "function"
    },
    {
      "inputs": [
        {
          "internalType": "enum TimeStaking.CONTRACTS",
          "name": "_contract",
          "type": "uint8"
        },
        {
          "internalType": "address",
          "name": "_address",
          "type": "address"
        }
      ],
      "name": "setContract",
      "outputs": [],
      "stateMutability": "nonpayable",
      "type": "function"
    },
    {
      "inputs": [
        {
          "internalType": "uint256",
          "name": "_warmupPeriod",
          "type": "uint256"
        }
      ],
      "name": "setWarmup",
      "outputs": [],
      "stateMutability": "nonpayable",
      "type": "function"
    }
  ],
  "bytecode": "0x60c060405234801561001057600080fd5b5060405161192e38038061192e833981810160405260a081101561003357600080fd5b50805160208201516040808401516060850151608090950151600080546001600160a01b03191633908117825593519596949592949391927f8be0079c531659141344cd1fd0a4f28419497f9722a3daafe3b4186f6b6457e0908290a36001600160a01b0385166100a357600080fd5b6001600160601b0319606086901b166080526001600160a01b0384166100c857600080fd5b6001600160601b0319606094851b1660a0526040805160808101825283815260006020820181905263ffffffff95861692820183905292909416939094018390526002919091556003556004805464010000000090920263ffffffff60201b1963ffffffff19909316909317919091169190911790555060805160601c60a05160601c61178a6101a46000398061058652806106ae528061073852806109535280610a5f5280610d805280610e385280610fc852806111f652508061085d5280610c385280610db552806112ea5280611357525061178a6000f3fe608060405234801561001057600080fd5b50600436106101425760003560e01c8063900cf0cf116100b8578063c9f464ff1161007c578063c9f464ff14610331578063deac361a1461034e578063e30c397814610356578063ed4acaa81461035e578063f3d86e4a14610366578063f8e157ea1461036e57610142565b8063900cf0cf146102c05780639ebea88c146102f4578063a8dd07dc14610319578063af14052c14610321578063bfe109281461032957610142565b80636746f4c21161010a5780636746f4c2146101eb5780637acb775714610239578063865e6fd3146102795780638b7afe2e146102a85780638da5cb5b146102b05780638f077b83146102b857610142565b8063078dfbe7146101475780631e83409a1461017f5780632986c0e5146101a5578063367efb62146101bf5780634e71e0c8146101e3575b600080fd5b61017d6004803603606081101561015d57600080fd5b506001600160a01b03813516906020810135151590604001351515610376565b005b61017d6004803603602081101561019557600080fd5b50356001600160a01b03166104be565b6101ad6106aa565b60408051918252519081900360200190f35b6101c7610736565b604080516001600160a01b039092168252519081900360200190f35b61017d61075a565b6102116004803603602081101561020157600080fd5b50356001600160a01b031661081c565b6040805194855260208501939093528383019190915215156060830152519081900360800190f35b6102656004803603604081101561024f57600080fd5b50803590602001356001600160a01b0316610846565b604080519115158252519081900360200190f35b61017d6004803603604081101561028f57600080fd5b50803560ff1690602001356001600160a01b0316610ad3565b6101ad610c2e565b6101c7610cda565b61017d610ce9565b6102c8610d47565b60408051948552602085019390935263ffffffff91821684840152166060830152519081900360800190f35b61017d6004803603604081101561030a57600080fd5b50803590602001351515610d65565b6101ad610e16565b61017d610e1c565b6101c76110a6565b61017d6004803603602081101561034757600080fd5b50356110b5565b6101ad61114f565b6101c7611155565b6101c7611164565b61017d611173565b6101c7611355565b6000546001600160a01b031633146103d5576040805162461bcd60e51b815260206004820181905260248201527f4f776e61626c653a2063616c6c6572206973206e6f7420746865206f776e6572604482015290519081900360640190fd5b811561049d576001600160a01b0383161515806103ef5750805b610438576040805162461bcd60e51b81526020600482015260156024820152744f776e61626c653a207a65726f206164647265737360581b604482015290519081900360640190fd5b600080546040516001600160a01b03808716939216917f8be0079c531659141344cd1fd0a4f28419497f9722a3daafe3b4186f6b6457e091a3600080546001600160a01b0385166001600160a01b0319918216179091556001805490911690556104b9565b600180546001600160a01b0319166001600160a01b0385161790555b505050565b6104c66116dd565b506001600160a01b03811660009081526009602090815260409182902082516080810184528154815260018201549281019290925260028082015493830184905260039091015460ff16151560608301525490911180159061052b5750604081015115155b156106a6576001600160a01b0380831660009081526009602090815260408083208381556001810184905560028101849055600301805460ff19169055848201518151637965d56d60e01b81526004810191909152905192937f00000000000000000000000000000000000000000000000000000000000000001692637965d56d92602480840193919291829003018186803b1580156105ca57600080fd5b505afa1580156105de573d6000803e3d6000fd5b505050506040513d60208110156105f457600080fd5b50516007546040805163c3a2a66560e01b81526001600160a01b03878116600483015260248201859052915193945091169163c3a2a6659160448082019260009290919082900301818387803b15801561064d57600080fd5b505af1158015610661573d6000803e3d6000fd5b50506040805184815290516001600160a01b03871693507ffce6d5860f911bc27ece1365300332d2ddbe20c1adc46ee2eddd8f72c48053b292509081900360200190a2505b5050565b60007f00000000000000000000000000000000000000000000000000000000000000006001600160a01b0316632986c0e56040518163ffffffff1660e01b815260040160206040518083038186803b15801561070557600080fd5b505afa158015610719573d6000803e3d6000fd5b505050506040513d602081101561072f57600080fd5b5051905090565b7f000000000000000000000000000000000000000000000000000000000000000081565b6001546001600160a01b03163381146107ba576040805162461bcd60e51b815260206004820181905260248201527f4f776e61626c653a2063616c6c657220213d2070656e64696e67206f776e6572604482015290519081900360640190fd5b600080546040516001600160a01b03808516939216917f8be0079c531659141344cd1fd0a4f28419497f9722a3daafe3b4186f6b6457e091a3600080546001600160a01b039092166001600160a01b0319928316179055600180549091169055565b60096020526000908152604090208054600182015460028301546003909301549192909160ff1684565b6000610850610e1c565b6108856001600160a01b037f000000000000000000000000000000000000000000000000000000000000000016333086611379565b61088d6116dd565b506001600160a01b03821660009081526009602090815260409182902082516080810184528154815260018201549281019290925260028101549282019290925260039091015460ff161580156060830152610930576040805162461bcd60e51b815260206004820152601f60248201527f4465706f7369747320666f72206163636f756e7420617265206c6f636b656400604482015290519081900360640190fd5b60408051608081019091528151819061094990876113d9565b81526020016109ec7f00000000000000000000000000000000000000000000000000000000000000006001600160a01b0316631bd39674886040518263ffffffff1660e01b81526004018082815260200191505060206040518083038186803b1580156109b557600080fd5b505afa1580156109c9573d6000803e3d6000fd5b505050506040513d60208110156109df57600080fd5b50516020850151906113d9565b8152600854600254602090920191610a03916113d9565b8152600060209182018190526001600160a01b03868116825260098352604091829020845181559284015160018401559083015160028301556060909201516003909101805460ff1916911515919091179055600754610a88917f000000000000000000000000000000000000000000000000000000000000000081169116866113e9565b6040805185815290516001600160a01b038516917f3dbdcfd4c1f2e08931aae3d544e149a1e643143f5234d166fe3debb783388495919081900360200190a260019150505b92915050565b6000546001600160a01b03163314610b32576040805162461bcd60e51b815260206004820181905260248201527f4f776e61626c653a2063616c6c6572206973206e6f7420746865206f776e6572604482015290519081900360640190fd5b6000826001811115610b4057fe5b1415610b6657600580546001600160a01b0319166001600160a01b038316179055610bde565b6001826001811115610b7457fe5b1415610bde576007546001600160a01b031615610bc25760405162461bcd60e51b81526004018080602001828103825260238152602001806117086023913960400191505060405180910390fd5b600780546001600160a01b0319166001600160a01b0383161790555b806001600160a01b03167f74a3f47ee8c75a3912be4eeb0120ef2a7e6d7dfb822ea75f3f3843a3d366ae788360405180826001811115610c1a57fe5b815260200191505060405180910390a25050565b6000610cd56006547f00000000000000000000000000000000000000000000000000000000000000006001600160a01b03166370a08231306040518263ffffffff1660e01b815260040180826001600160a01b0316815260200191505060206040518083038186803b158015610ca357600080fd5b505afa158015610cb7573d6000803e3d6000fd5b505050506040513d6020811015610ccd57600080fd5b5051906113d9565b905090565b6000546001600160a01b031681565b33600081815260096020908152604091829020600301805460ff19811660ff918216151791829055835191161515815291517f84980d6cdf0a9cada77d43f70d2d8419bd623f064919f2e227dbc39404866dc99281900390910190a2565b60025460035460045463ffffffff8082169164010000000090041684565b8015610d7357610d73610e1c565b610da86001600160a01b037f000000000000000000000000000000000000000000000000000000000000000016333085611379565b610ddc6001600160a01b037f00000000000000000000000000000000000000000000000000000000000000001633846113e9565b60408051838152905133917faf14da4c9c7eeb91ef462950405340d31988005c789d867d3a1394f082105e89919081900360200190a25050565b60065481565b60045463ffffffff42811664010000000090920416116110a4577f00000000000000000000000000000000000000000000000000000000000000006001600160a01b031663058ecdb46002600101546002600001546040518363ffffffff1660e01b81526004018083815260200182815260200192505050602060405180830381600087803b158015610eae57600080fd5b505af1158015610ec2573d6000803e3d6000fd5b505050506040513d6020811015610ed857600080fd5b5050600454610efa9063ffffffff640100000000820481169181169061143b16565b6004805463ffffffff929092166401000000000267ffffffff00000000199092169190911790556002805460010190556005546001600160a01b031615610fb857600560009054906101000a90046001600160a01b03166001600160a01b031663e4fc6b6d6040518163ffffffff1660e01b8152600401602060405180830381600087803b158015610f8b57600080fd5b505af1158015610f9f573d6000803e3d6000fd5b505050506040513d6020811015610fb557600080fd5b50505b6000610fc2610c2e565b905060007f00000000000000000000000000000000000000000000000000000000000000006001600160a01b0316639358928b6040518163ffffffff1660e01b815260040160206040518083038186803b15801561101f57600080fd5b505afa158015611033573d6000803e3d6000fd5b505050506040513d602081101561104957600080fd5b5051905080821161105e57600060035561106c565b6110688282611454565b6003555b60035460408051918252517f60633057fb2c2558942a126acc1dc7c639b6fdee660a0171f7500e2ac5918b2e9181900360200190a150505b565b6005546001600160a01b031681565b6000546001600160a01b03163314611114576040805162461bcd60e51b815260206004820181905260248201527f4f776e61626c653a2063616c6c6572206973206e6f7420746865206f776e6572604482015290519081900360640190fd5b60088190556040805182815290517f0538aaeb1d9d528cb5e132864d95d2d7350a7a3879a90d0ce93164557c22ed319181900360200190a150565b60085481565b6001546001600160a01b031681565b6007546001600160a01b031681565b61117b6116dd565b503360008181526009602081815260408084208151608081018352815481526001820180548286019081526002840180548487015260038501805460ff8116151560608701529a8a5297875293889055908790559186905560ff1990961690935591518251637965d56d60e01b8152600481019190915291517f00000000000000000000000000000000000000000000000000000000000000006001600160a01b031692637965d56d926024808301939192829003018186803b15801561124157600080fd5b505afa158015611255573d6000803e3d6000fd5b505050506040513d602081101561126b57600080fd5b50516007546040805163c3a2a66560e01b81523060048201526024810184905290519293506001600160a01b039091169163c3a2a6659160448082019260009290919082900301818387803b1580156112c357600080fd5b505af11580156112d7573d6000803e3d6000fd5b5050835161131392506001600160a01b037f000000000000000000000000000000000000000000000000000000000000000016915033906113e9565b8151604080518381526020810192909252805133927fed3bd88323251a29d30eb9552dda9f85957286ace369047d9b59ecccd4939e1292908290030190a25050565b7f000000000000000000000000000000000000000000000000000000000000000081565b604080516001600160a01b0380861660248301528416604482015260648082018490528251808303909101815260849091019091526020810180516001600160e01b03166323b872dd60e01b1790526113d3908590611464565b50505050565b80820182811015610acd57600080fd5b604080516001600160a01b038416602482015260448082018490528251808303909101815260649091019091526020810180516001600160e01b031663a9059cbb60e01b1790526104b9908490611464565b80820163ffffffff8084169082161015610acd57600080fd5b80820382811115610acd57600080fd5b60606114b9826040518060400160405280602081526020017f5361666545524332303a206c6f772d6c6576656c2063616c6c206661696c6564815250856001600160a01b03166115159092919063ffffffff16565b8051909150156104b9578080602001905160208110156114d857600080fd5b50516104b95760405162461bcd60e51b815260040180806020018281038252602a81526020018061172b602a913960400191505060405180910390fd5b6060611524848460008561152c565b949350505050565b6060611537856116d7565b611588576040805162461bcd60e51b815260206004820152601d60248201527f416464726573733a2063616c6c20746f206e6f6e2d636f6e7472616374000000604482015290519081900360640190fd5b60006060866001600160a01b031685876040518082805190602001908083835b602083106115c75780518252601f1990920191602091820191016115a8565b6001836020036101000a03801982511681845116808217855250505050505090500191505060006040518083038185875af1925050503d8060008114611629576040519150601f19603f3d011682016040523d82523d6000602084013e61162e565b606091505b509150915081156116425791506115249050565b8051156116525780518082602001fd5b8360405162461bcd60e51b81526004018080602001828103825283818151815260200191508051906020019080838360005b8381101561169c578181015183820152602001611684565b50505050905090810190601f1680156116c95780820380516001836020036101000a031916815260200191505b509250505060405180910390fd5b3b151590565b6040518060800160405280600081526020016000815260200160008152602001600015158152509056fe5761726d75702063616e6e6f7420626520736574206d6f7265207468616e206f6e63655361666545524332303a204552433230206f7065726174696f6e20646964206e6f742073756363656564a26469706673582212205af85750c70473858b464d55f8312fc87fdd4591cc56b8691cc51b00358e81a564736f6c63430007050033",
  "immutableReferences": {
    "6946": [
      {
        "length": 32,
        "start": 2141
      },
      {
        "length": 32,
        "start": 3128
      },
      {
        "length": 32,
        "start": 3509
      },
      {
        "length": 32,
        "start": 4842
      },
      {
        "length": 32,
        "start": 4951
      }
    ],
    "6948": [
      {
        "length": 32,
        "start": 1414
      },
      {
        "length": 32,
        "start": 1710
      },
      {
        "length": 32,
        "start": 1848
      },
      {
        "length": 32,
        "start": 2387
      },
      {
        "length": 32,
        "start": 2655
      },
      {
        "length": 32,
        "start": 3456
      },
      {
        "length": 32,
        "start": 3640
      },
      {
        "length": 32,
        "start": 4040
      },
      {
        "length": 32,
        "start": 4598
      }
    ]
  },
  "source": "// SPDX-License-Identifier: AGPL-3.0-or-later\npragma solidity 0.7.5;\n\nlibrary LowGasSafeMath {\n    /// @notice Returns x + y, reverts if sum overflows uint256\n    /// @param x The augend\n    /// @param y The addend\n    /// @return z The sum of x and y\n    function add(uint256 x, uint256 y) internal pure returns (uint256 z) {\n        require((z = x + y) >= x);\n    }\n\n    function add32(uint32 x, uint32 y) internal pure returns (uint32 z) {\n        require((z = x + y) >= x);\n    }\n\n    /// @notice Returns x - y, reverts if underflows\n    /// @param x The minuend\n    /// @param y The subtrahend\n    /// @return z The difference of x and y\n    function sub(uint256 x, uint256 y) internal pure returns (uint256 z) {\n        require((z = x - y) <= x);\n    }\n\n    function sub32(uint32 x, uint32 y) internal pure returns (uint32 z) {\n        require((z = x - y) <= x);\n    }\n\n    /// @notice Returns x * y, reverts if overflows\n    /// @param x The multiplicand\n    /// @param y The multiplier\n    /// @return z The product of x and y\n    function mul(uint256 x, uint256 y) internal pure returns (uint256 z) {\n        require(x == 0 || (z = x * y) / x == y);\n    }\n\n    /// @notice Returns x + y, reverts if overflows or underflows\n    /// @param x The augend\n    /// @param y The addend\n    /// @return z The sum of x and y\n    function add(int256 x, int256 y) internal pure returns (int256 z) {\n        require((z = x + y) >= x == (y >= 0));\n    }\n\n    /// @notice Returns x - y, reverts if overflows or underflows\n    /// @param x The minuend\n    /// @param y The subtrahend\n    /// @return z The difference of x and y\n    function sub(int256 x, int256 y) internal pure returns (int256 z) {\n        require((z = x - y) <= x == (y >= 0));\n    }\n}\n\ninterface IERC20 {\n    function decimals() external view returns (uint8);\n  /**\n   * @dev Returns the amount of tokens in existence.\n   */\n  function totalSupply() external view returns (uint256);\n\n  /**\n   * @dev Returns the amount of tokens owned by `account`.\n   */\n  function balanceOf(address account) external view returns (uint256);\n\n  /**\n   * @dev Moves `amount` tokens from the caller's account to `recipient`.\n   *\n   * Returns a boolean value indicating whether the operation succeeded.\n   *\n   * Emits a {Transfer} event.\n   */\n  function transfer(address recipient, uint256 amount) external returns (bool);\n\n  /**\n   * @dev Returns the remaining number of tokens that `spender` will be\n   * allowed to spend on behalf of `owner` through {transferFrom}. This is\n   * zero by default.\n   *\n   * This value changes when {approve} or {transferFrom} are called.\n   */\n  function allowance(address owner, address spender) external view returns (uint256);\n\n  /**\n   * @dev Sets `amount` as the allowance of `spender` over the caller's tokens.\n   *\n   * Returns a boolean value indicating whether the operation succeeded.\n   *\n   * IMPORTANT: Beware that changing an allowance with this method brings the risk\n   * that someone may use both the old and the new allowance by unfortunate\n   * transaction ordering. One possible solution to mitigate this race\n   * condition is to first reduce the spender's allowance to 0 and set the\n   * desired value afterwards:\n   * https://github.com/ethereum/EIPs/issues/20#issuecomment-263524729\n   *\n   * Emits an {Approval} event.\n   */\n  function approve(address spender, uint256 amount) external returns (bool);\n\n  /**\n   * @dev Moves `amount` tokens from `sender` to `recipient` using the\n   * allowance mechanism. `amount` is then deducted from the caller's\n   * allowance.\n   *\n   * Returns a boolean value indicating whether the operation succeeded.\n   *\n   * Emits a {Transfer} event.\n   */\n  function transferFrom(address sender, address recipient, uint256 amount) external returns (bool);\n\n  /**\n   * @dev Emitted when `value` tokens are moved from one account (`from`) to\n   * another (`to`).\n   *\n   * Note that `value` may be zero.\n   */\n  event Transfer(address indexed from, address indexed to, uint256 value);\n\n  /**\n   * @dev Emitted when the allowance of a `spender` for an `owner` is set by\n   * a call to {approve}. `value` is the new allowance.\n   */\n  event Approval(address indexed owner, address indexed spender, uint256 value);\n}\n\nlibrary Address {\n    /**\n     * @dev Returns true if `account` is a contract.\n     *\n     * [IMPORTANT]\n     * ====\n     * It is unsafe to assume that an address for which this function returns\n     * false is an externally-owned account (EOA) and not a contract.\n     *\n     * Among others, `isContract` will return false for the following\n     * types of addresses:\n     *\n     *  - an externally-owned account\n     *  - a contract in construction\n     *  - an address where a contract will be created\n     *  - an address where a contract lived, but was destroyed\n     * ====\n     */\n    function isContract(address account) internal view returns (bool) {\n        // This method relies in extcodesize, which returns 0 for contracts in\n        // construction, since the code is only stored at the end of the\n        // constructor execution.\n\n        uint256 size;\n        // solhint-disable-next-line no-inline-assembly\n        assembly { size := extcodesize(account) }\n        return size > 0;\n    }\n\n    /**\n     * @dev Replacement for Solidity's `transfer`: sends `amount` wei to\n     * `recipient`, forwarding all available gas and reverting on errors.\n     *\n     * https://eips.ethereum.org/EIPS/eip-1884[EIP1884] increases the gas cost\n     * of certain opcodes, possibly making contracts go over the 2300 gas limit\n     * imposed by `transfer`, making them unable to receive funds via\n     * `transfer`. {sendValue} removes this limitation.\n     *\n     * https://diligence.consensys.net/posts/2019/09/stop-using-soliditys-transfer-now/[Learn more].\n     *\n     * IMPORTANT: because control is transferred to `recipient`, care must be\n     * taken to not create reentrancy vulnerabilities. Consider using\n     * {ReentrancyGuard}\n     */\n    function sendValue(address payable recipient, uint256 amount) internal {\n        require(address(this).balance >= amount, \"Address: insufficient balance\");\n\n        // solhint-disable-next-line avoid-low-level-calls, avoid-call-value\n        (bool success, ) = recipient.call{ value: amount }(\"\");\n        require(success, \"Address: unable to send value, recipient may have reverted\");\n    }\n\n    /**\n     * @dev Performs a Solidity function call using a low level `call`. A\n     * plain`call` is an unsafe replacement for a function call: use this\n     * function instead.\n     *\n     * If `target` reverts with a revert reason, it is bubbled up by this\n     * function (like regular Solidity function calls).\n     *\n     *\n     * Requirements:\n     *\n     * - `target` must be a contract.\n     * - calling `target` with `data` must not revert.\n     *\n     * _Available since v3.1._\n     */\n    function functionCall(address target, bytes memory data) internal returns (bytes memory) {\n      return functionCall(target, data, \"Address: low-level call failed\");\n    }\n\n    /**\n     * @dev Same as {xref-Address-functionCall-address-bytes-}[`functionCall`], but with\n     * `errorMessage` as a fallback revert reason when `target` reverts.\n     *\n     * _Available since v3.1._\n     */\n    function functionCall(\n        address target,\n        bytes memory data,\n        string memory errorMessage\n    ) internal returns (bytes memory) {\n        return _functionCallWithValue(target, data, 0, errorMessage);\n    }\n\n    /**\n     * @dev Same as {xref-Address-functionCall-address-bytes-}[`functionCall`],\n     * but also transferring `value` wei to `target`.\n     *\n     * Requirements:\n     *\n     * - the calling contract must have an ETH balance of at least `value`.\n     * - the called Solidity function must be `payable`.\n     *\n     * _Available since v3.1._\n     */\n    function functionCallWithValue(address target, bytes memory data, uint256 value) internal returns (bytes memory) {\n        return functionCallWithValue(target, data, value, \"Address: low-level call with value failed\");\n    }\n\n    /**\n     * @dev Same as {xref-Address-functionCallWithValue-address-bytes-uint256-}[`functionCallWithValue`], but\n     * with `errorMessage` as a fallback revert reason when `target` reverts.\n     *\n     * _Available since v3.1._\n     */\n    function functionCallWithValue(\n        address target, \n        bytes memory data, \n        uint256 value, \n        string memory errorMessage\n    ) internal returns (bytes memory) {\n        require(address(this).balance >= value, \"Address: insufficient balance for call\");\n        require(isContract(target), \"Address: call to non-contract\");\n\n        // solhint-disable-next-line avoid-low-level-calls\n        (bool success, bytes memory returndata) = target.call{ value: value }(data);\n        return _verifyCallResult(success, returndata, errorMessage);\n    }\n\n    function _functionCallWithValue(\n        address target, \n        bytes memory data, \n        uint256 weiValue, \n        string memory errorMessage\n    ) private returns (bytes memory) {\n        require(isContract(target), \"Address: call to non-contract\");\n\n        // solhint-disable-next-line avoid-low-level-calls\n        (bool success, bytes memory returndata) = target.call{ value: weiValue }(data);\n        if (success) {\n            return returndata;\n        } else {\n            // Look for revert reason and bubble it up if present\n            if (returndata.length > 0) {\n                // The easiest way to bubble the revert reason is using memory via assembly\n\n                // solhint-disable-next-line no-inline-assembly\n                assembly {\n                    let returndata_size := mload(returndata)\n                    revert(add(32, returndata), returndata_size)\n                }\n            } else {\n                revert(errorMessage);\n            }\n        }\n    }\n\n  /**\n     * @dev Same as {xref-Address-functionCall-address-bytes-}[`functionCall`],\n     * but performing a static call.\n     *\n     * _Available since v3.3._\n     */\n    function functionStaticCall(address target, bytes memory data) internal view returns (bytes memory) {\n        return functionStaticCall(target, data, \"Address: low-level static call failed\");\n    }\n\n    /**\n     * @dev Same as {xref-Address-functionCall-address-bytes-string-}[`functionCall`],\n     * but performing a static call.\n     *\n     * _Available since v3.3._\n     */\n    function functionStaticCall(\n        address target, \n        bytes memory data, \n        string memory errorMessage\n    ) internal view returns (bytes memory) {\n        require(isContract(target), \"Address: static call to non-contract\");\n\n        // solhint-disable-next-line avoid-low-level-calls\n        (bool success, bytes memory returndata) = target.staticcall(data);\n        return _verifyCallResult(success, returndata, errorMessage);\n    }\n\n    /**\n     * @dev Same as {xref-Address-functionCall-address-bytes-}[`functionCall`],\n     * but performing a delegate call.\n     *\n     * _Available since v3.3._\n     */\n    function functionDelegateCall(address target, bytes memory data) internal returns (bytes memory) {\n        return functionDelegateCall(target, data, \"Address: low-level delegate call failed\");\n    }\n\n    /**\n     * @dev Same as {xref-Address-functionCall-address-bytes-string-}[`functionCall`],\n     * but performing a delegate call.\n     *\n     * _Available since v3.3._\n     */\n    function functionDelegateCall(\n        address target, \n        bytes memory data, \n        string memory errorMessage\n    ) internal returns (bytes memory) {\n        require(isContract(target), \"Address: delegate call to non-contract\");\n\n        // solhint-disable-next-line avoid-low-level-calls\n        (bool success, bytes memory returndata) = target.delegatecall(data);\n        return _verifyCallResult(success, returndata, errorMessage);\n    }\n\n    function _verifyCallResult(\n        bool success, \n        bytes memory returndata, \n        string memory errorMessage\n    ) private pure returns(bytes memory) {\n        if (success) {\n            return returndata;\n        } else {\n            // Look for revert reason and bubble it up if present\n            if (returndata.length > 0) {\n                // The easiest way to bubble the revert reason is using memory via assembly\n\n                // solhint-disable-next-line no-inline-assembly\n                assembly {\n                    let returndata_size := mload(returndata)\n                    revert(add(32, returndata), returndata_size)\n                }\n            } else {\n                revert(errorMessage);\n            }\n        }\n    }\n\n    function addressToString(address _address) internal pure returns(string memory) {\n        bytes32 _bytes = bytes32(uint256(_address));\n        bytes memory HEX = \"0123456789abcdef\";\n        bytes memory _addr = new bytes(42);\n\n        _addr[0] = '0';\n        _addr[1] = 'x';\n\n        for(uint256 i = 0; i < 20; i++) {\n            _addr[2+i*2] = HEX[uint8(_bytes[i + 12] >> 4)];\n            _addr[3+i*2] = HEX[uint8(_bytes[i + 12] & 0x0f)];\n        }\n\n        return string(_addr);\n\n    }\n}\n\nlibrary SafeERC20 {\n    using LowGasSafeMath for uint256;\n    using Address for address;\n\n    function safeTransfer(IERC20 token, address to, uint256 value) internal {\n        _callOptionalReturn(token, abi.encodeWithSelector(token.transfer.selector, to, value));\n    }\n\n    function safeTransferFrom(IERC20 token, address from, address to, uint256 value) internal {\n        _callOptionalReturn(token, abi.encodeWithSelector(token.transferFrom.selector, from, to, value));\n    }\n\n    /**\n     * @dev Deprecated. This function has issues similar to the ones found in\n     * {IERC20-approve}, and its usage is discouraged.\n     *\n     * Whenever possible, use {safeIncreaseAllowance} and\n     * {safeDecreaseAllowance} instead.\n     */\n    function safeApprove(IERC20 token, address spender, uint256 value) internal {\n        // safeApprove should only be called when setting an initial allowance,\n        // or when resetting it to zero. To increase and decrease it, use\n        // 'safeIncreaseAllowance' and 'safeDecreaseAllowance'\n        // solhint-disable-next-line max-line-length\n        require((value == 0) || (token.allowance(address(this), spender) == 0),\n            \"SafeERC20: approve from non-zero to non-zero allowance\"\n        );\n        _callOptionalReturn(token, abi.encodeWithSelector(token.approve.selector, spender, value));\n    }\n\n    function safeIncreaseAllowance(IERC20 token, address spender, uint256 value) internal {\n        uint256 newAllowance = token.allowance(address(this), spender).add(value);\n        _callOptionalReturn(token, abi.encodeWithSelector(token.approve.selector, spender, newAllowance));\n    }\n\n    function safeDecreaseAllowance(\n        IERC20 token, \n        address spender, \n        uint256 value\n    ) internal {\n        uint256 newAllowance = token.allowance(address(this), spender)\n            .sub(value);\n        _callOptionalReturn(token, abi.encodeWithSelector(token.approve.selector, spender, newAllowance));\n    }\n\n    /**\n     * @dev Imitates a Solidity high-level call (i.e. a regular function call to a contract), relaxing the requirement\n     * on the return value: the return value is optional (but if data is returned, it must not be false).\n     * @param token The token targeted by the call.\n     * @param data The call data (encoded using abi.encode or one of its variants).\n     */\n    function _callOptionalReturn(IERC20 token, bytes memory data) private {\n        // We need to perform a low level call here, to bypass Solidity's return data size checking mechanism, since\n        // we're implementing it ourselves. We use {Address.functionCall} to perform this call, which verifies that\n        // the target address contains contract code and also asserts for success in the low-level call.\n\n        bytes memory returndata = address(token).functionCall(data, \"SafeERC20: low-level call failed\");\n        if (returndata.length > 0) { // Return data is optional\n            // solhint-disable-next-line max-line-length\n            require(abi.decode(returndata, (bool)), \"SafeERC20: ERC20 operation did not succeed\");\n        }\n    }\n}\n\ncontract OwnableData {\n    address public owner;\n    address public pendingOwner;\n}\n\ncontract Ownable is OwnableData {\n    event OwnershipTransferred(address indexed previousOwner, address indexed newOwner);\n\n    /// @notice `owner` defaults to msg.sender on construction.\n    constructor() {\n        owner = msg.sender;\n        emit OwnershipTransferred(address(0), msg.sender);\n    }\n\n    /// @notice Transfers ownership to `newOwner`. Either directly or claimable by the new pending owner.\n    /// Can only be invoked by the current `owner`.\n    /// @param newOwner Address of the new owner.\n    /// @param direct True if `newOwner` should be set immediately. False if `newOwner` needs to use `claimOwnership`.\n    /// @param renounce Allows the `newOwner` to be `address(0)` if `direct` and `renounce` is True. Has no effect otherwise.\n    function transferOwnership(\n        address newOwner,\n        bool direct,\n        bool renounce\n    ) public onlyOwner {\n        if (direct) {\n            // Checks\n            require(newOwner != address(0) || renounce, \"Ownable: zero address\");\n\n            // Effects\n            emit OwnershipTransferred(owner, newOwner);\n            owner = newOwner;\n            pendingOwner = address(0);\n        } else {\n            // Effects\n            pendingOwner = newOwner;\n        }\n    }\n\n    /// @notice Needs to be called by `pendingOwner` to claim ownership.\n    function claimOwnership() public {\n        address _pendingOwner = pendingOwner;\n\n        // Checks\n        require(msg.sender == _pendingOwner, \"Ownable: caller != pending owner\");\n\n        // Effects\n        emit OwnershipTransferred(owner, _pendingOwner);\n        owner = _pendingOwner;\n        pendingOwner = address(0);\n    }\n\n    /// @notice Only allows the `owner` to execute the function.\n    modifier onlyOwner() {\n        require(msg.sender == owner, \"Ownable: caller is not the owner\");\n        _;\n    }\n}\n\ninterface IMemo is IERC20 {\n    function rebase( uint256 ohmProfit_, uint epoch_) external returns (uint256);\n\n    function circulatingSupply() external view returns (uint256);\n\n    function balanceOf(address who) external view override returns (uint256);\n\n    function gonsForBalance( uint amount ) external view returns ( uint );\n\n    function balanceForGons( uint gons ) external view returns ( uint );\n    \n    function index() external view returns ( uint );\n}\n\ninterface IWarmup {\n    function retrieve( address staker_, uint amount_ ) external;\n}\n\ninterface IDistributor {\n    function distribute() external returns ( bool );\n}\n\ncontract TimeStaking is Ownable {\n\n    using LowGasSafeMath for uint256;\n    using LowGasSafeMath for uint32;\n    using SafeERC20 for IERC20;\n    using SafeERC20 for IMemo;\n\n    IERC20 public immutable Time;\n    IMemo public immutable Memories;\n\n    struct Epoch {\n        uint number;\n        uint distribute;\n        uint32 length;\n        uint32 endTime;\n    }\n    Epoch public epoch;\n\n    IDistributor public distributor;\n    \n    uint public totalBonus;\n    \n    IWarmup public warmupContract;\n    uint public warmupPeriod;\n\n    event LogStake(address indexed recipient, uint256 amount);\n    event LogClaim(address indexed recipient, uint256 amount);\n    event LogForfeit(address indexed recipient, uint256 memoAmount, uint256 timeAmount);\n    event LogDepositLock(address indexed user, bool locked);\n    event LogUnstake(address indexed recipient, uint256 amount);\n    event LogRebase(uint256 distribute);\n    event LogSetContract(CONTRACTS contractType, address indexed _contract);\n    event LogWarmupPeriod(uint period);\n    \n    constructor ( \n        address _Time, \n        address _Memories, \n        uint32 _epochLength,\n        uint _firstEpochNumber,\n        uint32 _firstEpochTime\n    ) {\n        require( _Time != address(0) );\n        Time = IERC20(_Time);\n        require( _Memories != address(0) );\n        Memories = IMemo(_Memories);\n        \n        epoch = Epoch({\n            length: _epochLength,\n            number: _firstEpochNumber,\n            endTime: _firstEpochTime,\n            distribute: 0\n        });\n    }\n\n    struct Claim {\n        uint deposit;\n        uint gons;\n        uint expiry;\n        bool lock; // prevents malicious delays\n    }\n    mapping( address => Claim ) public warmupInfo;\n\n    /**\n        @notice stake Time to enter warmup\n        @param _amount uint\n        @return bool\n     */\n    function stake( uint _amount, address _recipient ) external returns ( bool ) {\n        rebase();\n        \n        Time.safeTransferFrom( msg.sender, address(this), _amount );\n\n        Claim memory info = warmupInfo[ _recipient ];\n        require( !info.lock, \"Deposits for account are locked\" );\n\n        warmupInfo[ _recipient ] = Claim ({\n            deposit: info.deposit.add( _amount ),\n            gons: info.gons.add( Memories.gonsForBalance( _amount ) ),\n            expiry: epoch.number.add( warmupPeriod ),\n            lock: false\n        });\n        \n        Memories.safeTransfer( address(warmupContract), _amount );\n        emit LogStake(_recipient, _amount);\n        return true;\n    }\n\n    /**\n        @notice retrieve MEMO from warmup\n        @param _recipient address\n     */\n    function claim ( address _recipient ) external {\n        Claim memory info = warmupInfo[ _recipient ];\n        if ( epoch.number >= info.expiry && info.expiry != 0 ) {\n            delete warmupInfo[ _recipient ];\n            uint256 amount = Memories.balanceForGons( info.gons );\n            warmupContract.retrieve( _recipient,  amount);\n            emit LogClaim(_recipient, amount);\n        }\n    }\n\n    /**\n        @notice forfeit MEMO in warmup and retrieve Time\n     */\n    function forfeit() external {\n        Claim memory info = warmupInfo[ msg.sender ];\n        delete warmupInfo[ msg.sender ];\n        uint memoBalance = Memories.balanceForGons( info.gons );\n        warmupContract.retrieve( address(this),  memoBalance);\n        Time.safeTransfer( msg.sender, info.deposit);\n        emit LogForfeit(msg.sender, memoBalance, info.deposit);\n    }\n\n    /**\n        @notice prevent new deposits to address (protection from malicious activity)\n     */\n    function toggleDepositLock() external {\n        warmupInfo[ msg.sender ].lock = !warmupInfo[ msg.sender ].lock;\n        emit LogDepositLock(msg.sender, warmupInfo[ msg.sender ].lock);\n    }\n\n    /**\n        @notice redeem MEMO for Time\n        @param _amount uint\n        @param _trigger bool\n     */\n    function unstake( uint _amount, bool _trigger ) external {\n        if ( _trigger ) {\n            rebase();\n        }\n        Memories.safeTransferFrom( msg.sender, address(this), _amount );\n        Time.safeTransfer( msg.sender, _amount );\n        emit LogUnstake(msg.sender, _amount);\n    }\n\n    /**\n        @notice returns the MEMO index, which tracks rebase growth\n        @return uint\n     */\n    function index() external view returns ( uint ) {\n        return Memories.index();\n    }\n\n    /**\n        @notice trigger rebase if epoch over\n     */\n    function rebase() public {\n        if( epoch.endTime <= uint32(block.timestamp) ) {\n\n            Memories.rebase( epoch.distribute, epoch.number );\n\n            epoch.endTime = epoch.endTime.add32( epoch.length );\n            epoch.number++;\n            \n            if ( address(distributor) != address(0) ) {\n                distributor.distribute();\n            }\n\n            uint balance = contractBalance();\n            uint staked = Memories.circulatingSupply();\n\n            if( balance <= staked ) {\n                epoch.distribute = 0;\n            } else {\n                epoch.distribute = balance.sub( staked );\n            }\n            emit LogRebase(epoch.distribute);\n        }\n    }\n\n    /**\n        @notice returns contract Time holdings, including bonuses provided\n        @return uint\n     */\n    function contractBalance() public view returns ( uint ) {\n        return Time.balanceOf( address(this) ).add( totalBonus );\n    }\n\n    enum CONTRACTS { DISTRIBUTOR, WARMUP }\n\n    /**\n        @notice sets the contract address for LP staking\n        @param _contract address\n     */\n    function setContract( CONTRACTS _contract, address _address ) external onlyOwner {\n        if( _contract == CONTRACTS.DISTRIBUTOR ) { // 0\n            distributor = IDistributor(_address);\n        } else if ( _contract == CONTRACTS.WARMUP ) { // 1\n            require( address(warmupContract) == address( 0 ), \"Warmup cannot be set more than once\" );\n            warmupContract = IWarmup(_address);\n        }\n        emit LogSetContract(_contract, _address);\n    }\n    \n    /**\n     * @notice set warmup period in epoch's numbers for new stakers\n     * @param _warmupPeriod uint\n     */\n    function setWarmup( uint _warmupPeriod ) external onlyOwner {\n        warmupPeriod = _warmupPeriod;\n        emit LogWarmupPeriod(_warmupPeriod);\n    }\n}",
  "sourcePath": "/Users/kisharora/Developer/web3/paradiseDao/contracts/Staking.sol",
  "compiler": {
    "name": "solc",
    "version": "0.7.5+commit.eb77ed08.Emscripten.clang"
  },
  "schemaVersion": "3.4.4",
  "updatedAt": "2022-01-30T06:19:20.812Z",
  "devdoc": {
    "kind": "dev",
    "methods": {
      "claim(address)": {
        "params": {
          "_recipient": "address"
        }
      },
      "contractBalance()": {
        "returns": {
          "_0": "uint"
        }
      },
      "index()": {
        "returns": {
          "_0": "uint"
        }
      },
      "setContract(uint8,address)": {
        "params": {
          "_contract": "address"
        }
      },
      "setWarmup(uint256)": {
        "params": {
          "_warmupPeriod": "uint"
        }
      },
      "stake(uint256,address)": {
        "params": {
          "_amount": "uint"
        },
        "returns": {
          "_0": "bool"
        }
      },
      "transferOwnership(address,bool,bool)": {
        "params": {
          "direct": "True if `newOwner` should be set immediately. False if `newOwner` needs to use `claimOwnership`.",
          "newOwner": "Address of the new owner.",
          "renounce": "Allows the `newOwner` to be `address(0)` if `direct` and `renounce` is True. Has no effect otherwise."
        }
      },
      "unstake(uint256,bool)": {
        "params": {
          "_amount": "uint",
          "_trigger": "bool"
        }
      }
    },
    "version": 1
  },
  "userdoc": {
    "kind": "user",
    "methods": {
      "claim(address)": {
        "notice": "retrieve MEMO from warmup"
      },
      "claimOwnership()": {
        "notice": "Needs to be called by `pendingOwner` to claim ownership."
      },
      "contractBalance()": {
        "notice": "returns contract Time holdings, including bonuses provided"
      },
      "forfeit()": {
        "notice": "forfeit MEMO in warmup and retrieve Time"
      },
      "index()": {
        "notice": "returns the MEMO index, which tracks rebase growth"
      },
      "rebase()": {
        "notice": "trigger rebase if epoch over"
      },
      "setContract(uint8,address)": {
        "notice": "sets the contract address for LP staking"
      },
      "setWarmup(uint256)": {
        "notice": "set warmup period in epoch's numbers for new stakers"
      },
      "stake(uint256,address)": {
        "notice": "stake Time to enter warmup"
      },
      "toggleDepositLock()": {
        "notice": "prevent new deposits to address (protection from malicious activity)"
      },
      "transferOwnership(address,bool,bool)": {
        "notice": "Transfers ownership to `newOwner`. Either directly or claimable by the new pending owner. Can only be invoked by the current `owner`."
      },
      "unstake(uint256,bool)": {
        "notice": "redeem MEMO for Time"
      }
    },
    "version": 1
  }
}