{
  "contractName": "TimeBondDepository",
  "abi": [
    {
      "inputs": [
        {
          "internalType": "address",
          "name": "_Time",
          "type": "address"
        },
        {
          "internalType": "address",
          "name": "_principle",
          "type": "address"
        },
        {
          "internalType": "address",
          "name": "_treasury",
          "type": "address"
        },
        {
          "internalType": "address",
          "name": "_DAO",
          "type": "address"
        },
        {
          "internalType": "address",
          "name": "_feed",
          "type": "address"
        }
      ],
      "stateMutability": "nonpayable",
      "type": "constructor"
    },
    {
      "anonymous": false,
      "inputs": [
        {
          "indexed": false,
          "internalType": "uint256",
          "name": "deposit",
          "type": "uint256"
        },
        {
          "indexed": true,
          "internalType": "uint256",
          "name": "payout",
          "type": "uint256"
        },
        {
          "indexed": true,
          "internalType": "uint256",
          "name": "expires",
          "type": "uint256"
        },
        {
          "indexed": true,
          "internalType": "uint256",
          "name": "priceInUSD",
          "type": "uint256"
        }
      ],
      "name": "BondCreated",
      "type": "event"
    },
    {
      "anonymous": false,
      "inputs": [
        {
          "indexed": true,
          "internalType": "uint256",
          "name": "priceInUSD",
          "type": "uint256"
        },
        {
          "indexed": true,
          "internalType": "uint256",
          "name": "internalPrice",
          "type": "uint256"
        },
        {
          "indexed": true,
          "internalType": "uint256",
          "name": "debtRatio",
          "type": "uint256"
        }
      ],
      "name": "BondPriceChanged",
      "type": "event"
    },
    {
      "anonymous": false,
      "inputs": [
        {
          "indexed": true,
          "internalType": "address",
          "name": "recipient",
          "type": "address"
        },
        {
          "indexed": false,
          "internalType": "uint256",
          "name": "payout",
          "type": "uint256"
        },
        {
          "indexed": false,
          "internalType": "uint256",
          "name": "remaining",
          "type": "uint256"
        }
      ],
      "name": "BondRedeemed",
      "type": "event"
    },
    {
      "anonymous": false,
      "inputs": [
        {
          "indexed": false,
          "internalType": "uint256",
          "name": "initialBCV",
          "type": "uint256"
        },
        {
          "indexed": false,
          "internalType": "uint256",
          "name": "newBCV",
          "type": "uint256"
        },
        {
          "indexed": false,
          "internalType": "uint256",
          "name": "adjustment",
          "type": "uint256"
        },
        {
          "indexed": false,
          "internalType": "bool",
          "name": "addition",
          "type": "bool"
        }
      ],
      "name": "ControlVariableAdjustment",
      "type": "event"
    },
    {
      "anonymous": false,
      "inputs": [
        {
          "indexed": true,
          "internalType": "address",
          "name": "previousOwner",
          "type": "address"
        },
        {
          "indexed": true,
          "internalType": "address",
          "name": "newOwner",
          "type": "address"
        }
      ],
      "name": "OwnershipPulled",
      "type": "event"
    },
    {
      "anonymous": false,
      "inputs": [
        {
          "indexed": true,
          "internalType": "address",
          "name": "previousOwner",
          "type": "address"
        },
        {
          "indexed": true,
          "internalType": "address",
          "name": "newOwner",
          "type": "address"
        }
      ],
      "name": "OwnershipPushed",
      "type": "event"
    },
    {
      "inputs": [],
      "name": "DAO",
      "outputs": [
        {
          "internalType": "address",
          "name": "",
          "type": "address"
        }
      ],
      "stateMutability": "view",
      "type": "function"
    },
    {
      "inputs": [],
      "name": "Time",
      "outputs": [
        {
          "internalType": "contract IERC20",
          "name": "",
          "type": "address"
        }
      ],
      "stateMutability": "view",
      "type": "function"
    },
    {
      "inputs": [],
      "name": "adjustment",
      "outputs": [
        {
          "internalType": "bool",
          "name": "add",
          "type": "bool"
        },
        {
          "internalType": "uint256",
          "name": "rate",
          "type": "uint256"
        },
        {
          "internalType": "uint256",
          "name": "target",
          "type": "uint256"
        },
        {
          "internalType": "uint32",
          "name": "buffer",
          "type": "uint32"
        },
        {
          "internalType": "uint32",
          "name": "lastTime",
          "type": "uint32"
        }
      ],
      "stateMutability": "view",
      "type": "function"
    },
    {
      "inputs": [
        {
          "internalType": "address",
          "name": "",
          "type": "address"
        }
      ],
      "name": "allowedZappers",
      "outputs": [
        {
          "internalType": "bool",
          "name": "",
          "type": "bool"
        }
      ],
      "stateMutability": "view",
      "type": "function"
    },
    {
      "inputs": [
        {
          "internalType": "address",
          "name": "",
          "type": "address"
        }
      ],
      "name": "bondInfo",
      "outputs": [
        {
          "internalType": "uint256",
          "name": "payout",
          "type": "uint256"
        },
        {
          "internalType": "uint256",
          "name": "pricePaid",
          "type": "uint256"
        },
        {
          "internalType": "uint32",
          "name": "vesting",
          "type": "uint32"
        },
        {
          "internalType": "uint32",
          "name": "lastTime",
          "type": "uint32"
        }
      ],
      "stateMutability": "view",
      "type": "function"
    },
    {
      "inputs": [],
      "name": "lastDecay",
      "outputs": [
        {
          "internalType": "uint32",
          "name": "",
          "type": "uint32"
        }
      ],
      "stateMutability": "view",
      "type": "function"
    },
    {
      "inputs": [],
      "name": "policy",
      "outputs": [
        {
          "internalType": "address",
          "name": "",
          "type": "address"
        }
      ],
      "stateMutability": "view",
      "type": "function"
    },
    {
      "inputs": [],
      "name": "priceFeed",
      "outputs": [
        {
          "internalType": "contract AggregatorV3Interface",
          "name": "",
          "type": "address"
        }
      ],
      "stateMutability": "view",
      "type": "function"
    },
    {
      "inputs": [],
      "name": "principle",
      "outputs": [
        {
          "internalType": "contract IWAVAX9",
          "name": "",
          "type": "address"
        }
      ],
      "stateMutability": "view",
      "type": "function"
    },
    {
      "inputs": [],
      "name": "pullManagement",
      "outputs": [],
      "stateMutability": "nonpayable",
      "type": "function"
    },
    {
      "inputs": [
        {
          "internalType": "address",
          "name": "newOwner_",
          "type": "address"
        }
      ],
      "name": "pushManagement",
      "outputs": [],
      "stateMutability": "nonpayable",
      "type": "function"
    },
    {
      "inputs": [],
      "name": "renounceManagement",
      "outputs": [],
      "stateMutability": "nonpayable",
      "type": "function"
    },
    {
      "inputs": [],
      "name": "staking",
      "outputs": [
        {
          "internalType": "contract IStaking",
          "name": "",
          "type": "address"
        }
      ],
      "stateMutability": "view",
      "type": "function"
    },
    {
      "inputs": [],
      "name": "stakingHelper",
      "outputs": [
        {
          "internalType": "contract IStakingHelper",
          "name": "",
          "type": "address"
        }
      ],
      "stateMutability": "view",
      "type": "function"
    },
    {
      "inputs": [],
      "name": "terms",
      "outputs": [
        {
          "internalType": "uint256",
          "name": "controlVariable",
          "type": "uint256"
        },
        {
          "internalType": "uint256",
          "name": "minimumPrice",
          "type": "uint256"
        },
        {
          "internalType": "uint256",
          "name": "maxPayout",
          "type": "uint256"
        },
        {
          "internalType": "uint256",
          "name": "maxDebt",
          "type": "uint256"
        },
        {
          "internalType": "uint32",
          "name": "vestingTerm",
          "type": "uint32"
        }
      ],
      "stateMutability": "view",
      "type": "function"
    },
    {
      "inputs": [],
      "name": "totalDebt",
      "outputs": [
        {
          "internalType": "uint256",
          "name": "",
          "type": "uint256"
        }
      ],
      "stateMutability": "view",
      "type": "function"
    },
    {
      "inputs": [],
      "name": "treasury",
      "outputs": [
        {
          "internalType": "contract ITreasury",
          "name": "",
          "type": "address"
        }
      ],
      "stateMutability": "view",
      "type": "function"
    },
    {
      "inputs": [],
      "name": "useHelper",
      "outputs": [
        {
          "internalType": "bool",
          "name": "",
          "type": "bool"
        }
      ],
      "stateMutability": "view",
      "type": "function"
    },
    {
      "inputs": [
        {
          "internalType": "uint256",
          "name": "_controlVariable",
          "type": "uint256"
        },
        {
          "internalType": "uint256",
          "name": "_minimumPrice",
          "type": "uint256"
        },
        {
          "internalType": "uint256",
          "name": "_maxPayout",
          "type": "uint256"
        },
        {
          "internalType": "uint256",
          "name": "_maxDebt",
          "type": "uint256"
        },
        {
          "internalType": "uint32",
          "name": "_vestingTerm",
          "type": "uint32"
        }
      ],
      "name": "initializeBondTerms",
      "outputs": [],
      "stateMutability": "nonpayable",
      "type": "function"
    },
    {
      "inputs": [
        {
          "internalType": "enum TimeBondDepository.PARAMETER",
          "name": "_parameter",
          "type": "uint8"
        },
        {
          "internalType": "uint256",
          "name": "_input",
          "type": "uint256"
        }
      ],
      "name": "setBondTerms",
      "outputs": [],
      "stateMutability": "nonpayable",
      "type": "function"
    },
    {
      "inputs": [
        {
          "internalType": "bool",
          "name": "_addition",
          "type": "bool"
        },
        {
          "internalType": "uint256",
          "name": "_increment",
          "type": "uint256"
        },
        {
          "internalType": "uint256",
          "name": "_target",
          "type": "uint256"
        },
        {
          "internalType": "uint32",
          "name": "_buffer",
          "type": "uint32"
        }
      ],
      "name": "setAdjustment",
      "outputs": [],
      "stateMutability": "nonpayable",
      "type": "function"
    },
    {
      "inputs": [
        {
          "internalType": "address",
          "name": "_staking",
          "type": "address"
        },
        {
          "internalType": "bool",
          "name": "_helper",
          "type": "bool"
        }
      ],
      "name": "setStaking",
      "outputs": [],
      "stateMutability": "nonpayable",
      "type": "function"
    },
    {
      "inputs": [
        {
          "internalType": "address",
          "name": "zapper",
          "type": "address"
        }
      ],
      "name": "allowZapper",
      "outputs": [],
      "stateMutability": "nonpayable",
      "type": "function"
    },
    {
      "inputs": [
        {
          "internalType": "address",
          "name": "zapper",
          "type": "address"
        }
      ],
      "name": "removeZapper",
      "outputs": [],
      "stateMutability": "nonpayable",
      "type": "function"
    },
    {
      "inputs": [
        {
          "internalType": "uint256",
          "name": "_amount",
          "type": "uint256"
        },
        {
          "internalType": "uint256",
          "name": "_maxPrice",
          "type": "uint256"
        },
        {
          "internalType": "address",
          "name": "_depositor",
          "type": "address"
        }
      ],
      "name": "deposit",
      "outputs": [
        {
          "internalType": "uint256",
          "name": "",
          "type": "uint256"
        }
      ],
      "stateMutability": "payable",
      "type": "function"
    },
    {
      "inputs": [
        {
          "internalType": "address",
          "name": "_recipient",
          "type": "address"
        },
        {
          "internalType": "bool",
          "name": "_stake",
          "type": "bool"
        }
      ],
      "name": "redeem",
      "outputs": [
        {
          "internalType": "uint256",
          "name": "",
          "type": "uint256"
        }
      ],
      "stateMutability": "nonpayable",
      "type": "function"
    },
    {
      "inputs": [],
      "name": "maxPayout",
      "outputs": [
        {
          "internalType": "uint256",
          "name": "",
          "type": "uint256"
        }
      ],
      "stateMutability": "view",
      "type": "function"
    },
    {
      "inputs": [
        {
          "internalType": "uint256",
          "name": "_value",
          "type": "uint256"
        }
      ],
      "name": "payoutFor",
      "outputs": [
        {
          "internalType": "uint256",
          "name": "",
          "type": "uint256"
        }
      ],
      "stateMutability": "view",
      "type": "function"
    },
    {
      "inputs": [],
      "name": "bondPrice",
      "outputs": [
        {
          "internalType": "uint256",
          "name": "price_",
          "type": "uint256"
        }
      ],
      "stateMutability": "view",
      "type": "function"
    },
    {
      "inputs": [],
      "name": "assetPrice",
      "outputs": [
        {
          "internalType": "int256",
          "name": "",
          "type": "int256"
        }
      ],
      "stateMutability": "view",
      "type": "function"
    },
    {
      "inputs": [],
      "name": "bondPriceInUSD",
      "outputs": [
        {
          "internalType": "uint256",
          "name": "price_",
          "type": "uint256"
        }
      ],
      "stateMutability": "view",
      "type": "function"
    },
    {
      "inputs": [],
      "name": "debtRatio",
      "outputs": [
        {
          "internalType": "uint256",
          "name": "debtRatio_",
          "type": "uint256"
        }
      ],
      "stateMutability": "view",
      "type": "function"
    },
    {
      "inputs": [],
      "name": "standardizedDebtRatio",
      "outputs": [
        {
          "internalType": "uint256",
          "name": "",
          "type": "uint256"
        }
      ],
      "stateMutability": "view",
      "type": "function"
    },
    {
      "inputs": [],
      "name": "currentDebt",
      "outputs": [
        {
          "internalType": "uint256",
          "name": "",
          "type": "uint256"
        }
      ],
      "stateMutability": "view",
      "type": "function"
    },
    {
      "inputs": [],
      "name": "debtDecay",
      "outputs": [
        {
          "internalType": "uint256",
          "name": "decay_",
          "type": "uint256"
        }
      ],
      "stateMutability": "view",
      "type": "function"
    },
    {
      "inputs": [
        {
          "internalType": "address",
          "name": "_depositor",
          "type": "address"
        }
      ],
      "name": "percentVestedFor",
      "outputs": [
        {
          "internalType": "uint256",
          "name": "percentVested_",
          "type": "uint256"
        }
      ],
      "stateMutability": "view",
      "type": "function"
    },
    {
      "inputs": [
        {
          "internalType": "address",
          "name": "_depositor",
          "type": "address"
        }
      ],
      "name": "pendingPayoutFor",
      "outputs": [
        {
          "internalType": "uint256",
          "name": "pendingPayout_",
          "type": "uint256"
        }
      ],
      "stateMutability": "view",
      "type": "function"
    },
    {
      "inputs": [
        {
          "internalType": "contract IERC20",
          "name": "_token",
          "type": "address"
        }
      ],
      "name": "recoverLostToken",
      "outputs": [
        {
          "internalType": "bool",
          "name": "",
          "type": "bool"
        }
      ],
      "stateMutability": "nonpayable",
      "type": "function"
    }
  ],
  "bytecode": "0x6101006040523480156200001257600080fd5b506040516200306138038062003061833981810160405260a08110156200003857600080fd5b50805160208201516040808401516060850151608090950151600080546001600160a01b031916331780825593519596949592949391926001600160a01b0392909216917fea8258f2d9ddb679928cf34b78cf645b7feda9acc828e4dd82d014eaae270eba908290a36001600160a01b038516620000b557600080fd5b6001600160601b0319606086901b166080526001600160a01b038416620000db57600080fd5b6001600160601b0319606085901b1660a0526001600160a01b0383166200010157600080fd5b6001600160601b0319606084901b1660c0526001600160a01b0382166200012757600080fd5b6001600160601b0319606083901b1660e0526001600160a01b0381166200014d57600080fd5b600280546001600160a01b039092166001600160a01b03199092169190911790555050505060805160601c60a05160601c60c05160601c60e05160601c612e5d6200020460003980611aa25280611d2352508061122752806114e8528061173152806117f952806118455250806108285280611517528061168e528061170252806117d65280611cb3525080611c465280611e0b52806120af52806121a252806121f752806122de52806123f05250612e5d6000f3fe6080604052600436106102255760003560e01c80637927ebf811610123578063d24378eb116100ab578063e0176de81161006f578063e0176de8146107a4578063e392a262146107b9578063f5c2ab5b146107ce578063f8e157ea146107fc578063fc7b9c181461081157610225565b8063d24378eb146106c6578063d4d863ce146106db578063d502562514610716578063d7ccfb0b1461075c578063dc6549fb1461077157610225565b806398fabd3a116100f257806398fabd3a146105c6578063ae9832cf146105db578063b4abccba1461061f578063cd1234b314610652578063cea55f57146106b157610225565b80637927ebf814610540578063844b5c7c1461056a5780638dbdbe6d1461057f578063904b3ece146105b157610225565b8063451ee4a1116101b157806361d027b31161017557806361d027b3146104b957806363b3256b146104ce578063741bef1a14610501578063759076e51461051657806377b818951461052b57610225565b8063451ee4a1146103de57806346f68ee9146104295780634cf088d91461045c578063507930ec146104715780635a96ac0a146104a457610225565b80630ab69367116101f85780630ab69367146102cc5780631e321a0f146103145780631ed2d71a146103475780631feed31f1461037a5780632f3f470a146103b557610225565b8063016a42841461022a57806301b88ee81461025b5780630505c8c9146102a0578063089208d8146102b5575b600080fd5b34801561023657600080fd5b5061023f610826565b604080516001600160a01b039092168252519081900360200190f35b34801561026757600080fd5b5061028e6004803603602081101561027e57600080fd5b50356001600160a01b031661084a565b60408051918252519081900360200190f35b3480156102ac57600080fd5b5061023f6108a2565b3480156102c157600080fd5b506102ca6108b2565b005b3480156102d857600080fd5b506102ca600480360360a08110156102ef57600080fd5b508035906020810135906040810135906060810135906080013563ffffffff16610949565b34801561032057600080fd5b506102ca6004803603604081101561033757600080fd5b5060ff8135169060200135610b2d565b34801561035357600080fd5b506102ca6004803603602081101561036a57600080fd5b50356001600160a01b0316610c9b565b34801561038657600080fd5b5061028e6004803603604081101561039d57600080fd5b506001600160a01b0381351690602001351515610d09565b3480156103c157600080fd5b506103ca610f97565b604080519115158252519081900360200190f35b3480156103ea57600080fd5b506103f3610fa7565b60408051951515865260208601949094528484019290925263ffffffff9081166060850152166080830152519081900360a00190f35b34801561043557600080fd5b506102ca6004803603602081101561044c57600080fd5b50356001600160a01b0316610fcd565b34801561046857600080fd5b5061023f6110ba565b34801561047d57600080fd5b5061028e6004803603602081101561049457600080fd5b50356001600160a01b03166110c9565b3480156104b057600080fd5b506102ca61117b565b3480156104c557600080fd5b5061023f611225565b3480156104da57600080fd5b506102ca600480360360208110156104f157600080fd5b50356001600160a01b0316611249565b34801561050d57600080fd5b5061023f6112fb565b34801561052257600080fd5b5061028e61130a565b34801561053757600080fd5b5061023f611325565b34801561054c57600080fd5b5061028e6004803603602081101561056357600080fd5b5035611334565b34801561057657600080fd5b5061028e611364565b61028e6004803603606081101561059557600080fd5b50803590602081013590604001356001600160a01b0316611386565b3480156105bd57600080fd5b5061028e611a09565b3480156105d257600080fd5b5061023f611aa0565b3480156105e757600080fd5b506102ca600480360360808110156105fe57600080fd5b5080351515906020810135906040810135906060013563ffffffff16611ac4565b34801561062b57600080fd5b506103ca6004803603602081101561064257600080fd5b50356001600160a01b0316611c42565b34801561065e57600080fd5b506106856004803603602081101561067557600080fd5b50356001600160a01b0316611dd4565b60408051948552602085019390935263ffffffff91821684840152166060830152519081900360800190f35b3480156106bd57600080fd5b5061028e611e06565b3480156106d257600080fd5b5061028e611ec3565b3480156106e757600080fd5b506102ca600480360360408110156106fe57600080fd5b506001600160a01b0381351690602001351515611f49565b34801561072257600080fd5b5061072b612039565b60408051958652602086019490945284840192909252606084015263ffffffff166080830152519081900360a00190f35b34801561076857600080fd5b5061028e612051565b34801561077d57600080fd5b506103ca6004803603602081101561079457600080fd5b50356001600160a01b0316612089565b3480156107b057600080fd5b5061028e61209e565b3480156107c557600080fd5b5061028e612138565b3480156107da57600080fd5b506107e3612194565b6040805163ffffffff9092168252519081900360200190f35b34801561080857600080fd5b5061023f6121a0565b34801561081d57600080fd5b5061028e6121c4565b7f000000000000000000000000000000000000000000000000000000000000000081565b600080610856836110c9565b6001600160a01b0384166000908152600e602052604090205490915061271082106108835780925061089b565b61271061089082846121ca565b8161089757fe5b0492505b5050919050565b6000546001600160a01b03165b90565b6000546001600160a01b031633146108ff576040805162461bcd60e51b81526020600482018190526024820152600080516020612d97833981519152604482015290519081900360640190fd5b600080546040516001600160a01b03909116907fea8258f2d9ddb679928cf34b78cf645b7feda9acc828e4dd82d014eaae270eba908390a3600080546001600160a01b0319169055565b6000546001600160a01b03163314610996576040805162461bcd60e51b81526020600482018190526024820152600080516020612d97833981519152604482015290519081900360640190fd5b61099e61130a565b156109da5760405162461bcd60e51b8152600401808060200182810382526021815260200180612d766021913960400191505060405180910390fd5b6028851015610a26576040805162461bcd60e51b815260206004820152601360248201527210d85b881b1bd8dac818591a9d5cdd1b595b9d606a1b604482015290519081900360640190fd5b6103e8831115610a7d576040805162461bcd60e51b815260206004820181905260248201527f5061796f75742063616e6e6f742062652061626f766520312070657263656e74604482015290519081900360640190fd5b6201fa408163ffffffff161015610ac55760405162461bcd60e51b8152600401808060200182810382526024815260200180612dda6024913960400191505060405180910390fd5b6040805160a081018252868152602081018690529081018490526060810183905263ffffffff91821660809091018190526005959095556006939093556007919091556008556009805463ffffffff1990811690931790556010805490921642909116179055565b6000546001600160a01b03163314610b7a576040805162461bcd60e51b81526020600482018190526024820152600080516020612d97833981519152604482015290519081900360640190fd5b6000826003811115610b8857fe5b1415610bea576201fa40811015610bd05760405162461bcd60e51b8152600401808060200182810382526024815260200180612dda6024913960400191505060405180910390fd5b6009805463ffffffff191663ffffffff8316179055610c97565b6001826003811115610bf857fe5b1415610c5f576103e8811115610c55576040805162461bcd60e51b815260206004820181905260248201527f5061796f75742063616e6e6f742062652061626f766520312070657263656e74604482015290519081900360640190fd5b6007819055610c97565b6002826003811115610c6d57fe5b1415610c7d576008819055610c97565b6003826003811115610c8b57fe5b1415610c975760068190555b5050565b6000546001600160a01b03163314610ce8576040805162461bcd60e51b81526020600482018190526024820152600080516020612d97833981519152604482015290519081900360640190fd5b6001600160a01b03166000908152601160205260409020805460ff19169055565b6000336001600160a01b03841614610d4d576040805162461bcd60e51b81526020600482015260026024820152614e4160f01b604482015290519081900360640190fd5b610d55612cc1565b506001600160a01b0383166000908152600e602090815260408083208151608081018352815481526001820154938101939093526002015463ffffffff80821692840192909252600160201b900416606082015290610db3856110c9565b90506127108110610e48576001600160a01b0385166000818152600e6020908152604080832083815560018101849055600201805467ffffffffffffffff19169055855181519081529182019290925281517f51c99f515c87b0d95ba97f616edd182e8f161c4932eac17c6fefe9dab58b77b1929181900390910190a2610e3f858584600001516121ee565b92505050610f91565b815160009061271090610e5b90846121ca565b81610e6257fe5b0490506040518060800160405280610e878386600001516124f190919063ffffffff16565b815260200184602001518152602001610ecf610eb686606001514263ffffffff1661250190919063ffffffff16565b866040015163ffffffff1661250190919063ffffffff16565b63ffffffff90811682524281166020928301526001600160a01b0389166000818152600e8452604090819020855180825586860151600183015586830151600290920180546060909801518616600160201b0267ffffffff00000000199390961663ffffffff19909816979097179190911693909317909455835185815292830191909152825190927f51c99f515c87b0d95ba97f616edd182e8f161c4932eac17c6fefe9dab58b77b1928290030190a2610f8b8686836121ee565b93505050505b92915050565b600454600160a01b900460ff1681565b600a54600b54600c54600d5460ff9093169263ffffffff80821691600160201b90041685565b6000546001600160a01b0316331461101a576040805162461bcd60e51b81526020600482018190526024820152600080516020612d97833981519152604482015290519081900360640190fd5b6001600160a01b03811661105f5760405162461bcd60e51b8152600401808060200182810382526026815260200180612d086026913960400191505060405180910390fd5b600080546040516001600160a01b03808516939216917fea8258f2d9ddb679928cf34b78cf645b7feda9acc828e4dd82d014eaae270eba91a3600180546001600160a01b0319166001600160a01b0392909216919091179055565b6003546001600160a01b031681565b60006110d3612cc1565b506001600160a01b0382166000908152600e602090815260408083208151608081018352815481526001820154938101939093526002015463ffffffff80821692840192909252600160201b900481166060830181905291929161113c91428116919061250116565b604083015163ffffffff918216925016801561116e578061115f836127106121ca565b8161116657fe5b049350611173565b600093505b505050919050565b6001546001600160a01b031633146111c45760405162461bcd60e51b8152600401808060200182810382526022815260200180612d2e6022913960400191505060405180910390fd5b600154600080546040516001600160a01b0393841693909116917faa151555690c956fc3ea32f106bb9f119b5237a061eaa8557cff3e51e3792c8d91a3600154600080546001600160a01b0319166001600160a01b03909216919091179055565b7f000000000000000000000000000000000000000000000000000000000000000081565b6000546001600160a01b03163314611296576040805162461bcd60e51b81526020600482018190526024820152600080516020612d97833981519152604482015290519081900360640190fd5b6001600160a01b0381166112d7576040805162461bcd60e51b81526020600482015260036024820152625a4e4160e81b604482015290519081900360640190fd5b6001600160a01b03166000908152601160205260409020805460ff19166001179055565b6002546001600160a01b031681565b6000611320611317612138565b600f54906124f1565b905090565b6004546001600160a01b031681565b6000655af3107a40006113566113518461134c612051565b61251a565b612691565b8161135d57fe5b0492915050565b6000611320620f4240611380611378611ec3565b611380612051565b906121ca565b60006001600160a01b0382166113d5576040805162461bcd60e51b815260206004820152600f60248201526e496e76616c6964206164647265737360881b604482015290519081900360640190fd5b336001600160a01b03831614806113fb57503360009081526011602052604090205460ff165b611435576040805162461bcd60e51b815260206004808301919091526024820152634c464e4160e01b604482015290519081900360640190fd5b61143d6126ad565b600854600f54111561148d576040805162461bcd60e51b815260206004820152601460248201527313585e0818d85c1858da5d1e481c995858da195960621b604482015290519081900360640190fd5b6000611497611364565b905060006114a36126d2565b9050808510156114e45760405162461bcd60e51b8152600401808060200182810382526023815260200180612db76023913960400191505060405180910390fd5b60007f00000000000000000000000000000000000000000000000000000000000000006001600160a01b0316631eec5a9a7f0000000000000000000000000000000000000000000000000000000000000000896040518363ffffffff1660e01b815260040180836001600160a01b031681526020018281526020019250505060206040518083038186803b15801561157b57600080fd5b505afa15801561158f573d6000803e3d6000fd5b505050506040513d60208110156115a557600080fd5b5051905060006115b482611334565b9050629896808110156115ff576040805162461bcd60e51b815260206004820152600e60248201526d109bdb99081d1bdbc81cdb585b1b60921b604482015290519081900360640190fd5b61160761209e565b81111561164c576040805162461bcd60e51b815260206004820152600e60248201526d426f6e6420746f6f206c6172676560901b604482015290519081900360640190fd5b8747106117c95787341461168c576040805162461bcd60e51b8152602060048201526002602482015261554160f01b604482015290519081900360640190fd5b7f00000000000000000000000000000000000000000000000000000000000000006001600160a01b031663d0e30db0896040518263ffffffff1660e01b81526004016000604051808303818588803b1580156116e757600080fd5b505af11580156116fb573d6000803e3d6000fd5b50505050507f00000000000000000000000000000000000000000000000000000000000000006001600160a01b031663a9059cbb7f00000000000000000000000000000000000000000000000000000000000000008a6040518363ffffffff1660e01b815260040180836001600160a01b0316815260200182815260200192505050602060405180830381600087803b15801561179757600080fd5b505af11580156117ab573d6000803e3d6000fd5b505050506040513d60208110156117c157600080fd5b5061181e9050565b61181e6001600160a01b037f000000000000000000000000000000000000000000000000000000000000000016337f00000000000000000000000000000000000000000000000000000000000000008b612721565b604080516335106f4960e11b81523060048201526024810183905290516001600160a01b037f00000000000000000000000000000000000000000000000000000000000000001691636a20de9291604480830192600092919082900301818387803b15801561188c57600080fd5b505af11580156118a0573d6000803e3d6000fd5b5050600f546118b29250905083612781565b600f55604080516080810182526001600160a01b0388166000908152600e602052919091205481906118e49084612781565b815260208082018790526009805463ffffffff908116604080860191909152428083166060968701526001600160a01b038d166000908152600e865282902087518155948701516001860155908601516002909401805496909501518216600160201b0267ffffffff000000001994831663ffffffff199097169690961793909316949094179092559054869261197f929181169061278116565b604080518b8152905184917f1fec6dc81f140574bf43f6b1e420ae1dd47928b9d57db8cbd7b8611063b85ae5919081900360200190a46119bd611e06565b6119c56126d2565b6119cd611364565b6040517f375b221f40939bfd8f49723a17cf7bc6d576ebf72efe2cc3e991826f5b3f390a90600090a46119fe612791565b979650505050505050565b6002546040805163313ce56760e01b815290516000926001600160a01b03169163313ce567916004808301926020929190829003018186803b158015611a4e57600080fd5b505afa158015611a62573d6000803e3d6000fd5b505050506040513d6020811015611a7857600080fd5b505160ff16600a0a611a93611a8b611ec3565b611380611e06565b81611a9a57fe5b04905090565b7f000000000000000000000000000000000000000000000000000000000000000081565b6000546001600160a01b03163314611b11576040805162461bcd60e51b81526020600482018190526024820152600080516020612d97833981519152604482015290519081900360640190fd5b6005546103e890611b239060196121ca565b81611b2a57fe5b04831115611b75576040805162461bcd60e51b8152602060048201526013602482015272496e6372656d656e7420746f6f206c6172676560681b604482015290519081900360640190fd5b6028821015611bcb576040805162461bcd60e51b815260206004820152601f60248201527f4e6578742041646a7573746d656e7420636f756c64206265206c6f636b656400604482015290519081900360640190fd5b6040805160a0810182529415158086526020860185905290850183905263ffffffff91821660608601819052429092166080909501859052600a805460ff19169091179055600b92909255600c55600d805463ffffffff191690911767ffffffff000000001916600160201b909202919091179055565b60007f00000000000000000000000000000000000000000000000000000000000000006001600160a01b0316826001600160a01b03161415611cb1576040805162461bcd60e51b815260206004820152600360248201526213905560ea1b604482015290519081900360640190fd5b7f00000000000000000000000000000000000000000000000000000000000000006001600160a01b0316826001600160a01b03161415611d1e576040805162461bcd60e51b815260206004820152600360248201526204e41560ec1b604482015290519081900360640190fd5b611dcc7f0000000000000000000000000000000000000000000000000000000000000000836001600160a01b03166370a08231306040518263ffffffff1660e01b815260040180826001600160a01b0316815260200191505060206040518083038186803b158015611d8f57600080fd5b505afa158015611da3573d6000803e3d6000fd5b505050506040513d6020811015611db957600080fd5b50516001600160a01b03851691906128a6565b506001919050565b600e6020526000908152604090208054600182015460029092015490919063ffffffff80821691600160201b90041684565b6000807f00000000000000000000000000000000000000000000000000000000000000006001600160a01b03166318160ddd6040518163ffffffff1660e01b815260040160206040518083038186803b158015611e6257600080fd5b505afa158015611e76573d6000803e3d6000fd5b505050506040513d6020811015611e8c57600080fd5b50519050670de0b6b3a7640000611eb5611351611eaf633b9aca0061138061130a565b8461251a565b81611ebc57fe5b0491505090565b600080600260009054906101000a90046001600160a01b03166001600160a01b031663feaf968c6040518163ffffffff1660e01b815260040160a06040518083038186803b158015611f1457600080fd5b505afa158015611f28573d6000803e3d6000fd5b505050506040513d60a0811015611f3e57600080fd5b506020015191505090565b6000546001600160a01b03163314611f96576040805162461bcd60e51b81526020600482018190526024820152600080516020612d97833981519152604482015290519081900360640190fd5b6001600160a01b038216611fd6576040805162461bcd60e51b8152602060048201526002602482015261494160f01b604482015290519081900360640190fd5b801561200b5760048054600160a01b60ff60a01b19909116176001600160a01b0319166001600160a01b038416179055610c97565b6004805460ff60a01b19169055600380546001600160a01b0384166001600160a01b03199091161790555050565b60055460065460075460085460095463ffffffff1685565b6000620186a061206b612062611e06565b600554906121ca565b8161207257fe5b0490506005600101548110156108af575060065490565b60116020526000908152604090205460ff1681565b6000620186a0611a936005600201547f00000000000000000000000000000000000000000000000000000000000000006001600160a01b03166318160ddd6040518163ffffffff1660e01b815260040160206040518083038186803b15801561210657600080fd5b505afa15801561211a573d6000803e3d6000fd5b505050506040513d602081101561213057600080fd5b5051906121ca565b60105460009081906121569063ffffffff4281169181169061250116565b600954600f5491925063ffffffff9081169161217691808516906121ca16565b8161217d57fe5b049150600f5482111561219057600f5491505b5090565b60105463ffffffff1681565b7f000000000000000000000000000000000000000000000000000000000000000081565b600f5481565b60008215806121e5575050818102818382816121e257fe5b04145b610f9157600080fd5b60008261229e577f00000000000000000000000000000000000000000000000000000000000000006001600160a01b031663a9059cbb85846040518363ffffffff1660e01b815260040180836001600160a01b0316815260200182815260200192505050602060405180830381600087803b15801561226c57600080fd5b505af1158015612280573d6000803e3d6000fd5b505050506040513d602081101561229657600080fd5b506124ea9050565b600454600160a01b900460ff16156123c457600480546040805163095ea7b360e01b81526001600160a01b039283169381019390935260248301859052517f00000000000000000000000000000000000000000000000000000000000000009091169163095ea7b39160448083019260209291908290030181600087803b15801561232857600080fd5b505af115801561233c573d6000803e3d6000fd5b505050506040513d602081101561235257600080fd5b50506004805460408051637acb775760e01b81529283018590526001600160a01b0387811660248501529051911691637acb775791604480830192600092919082900301818387803b1580156123a757600080fd5b505af11580156123bb573d6000803e3d6000fd5b505050506124ea565b6003546040805163095ea7b360e01b81526001600160a01b0392831660048201526024810185905290517f00000000000000000000000000000000000000000000000000000000000000009092169163095ea7b3916044808201926020929091908290030181600087803b15801561243b57600080fd5b505af115801561244f573d6000803e3d6000fd5b505050506040513d602081101561246557600080fd5b505060035460408051637acb775760e01b8152600481018590526001600160a01b03878116602483015291519190921691637acb77579160448083019260209291908290030181600087803b1580156124bd57600080fd5b505af11580156124d1573d6000803e3d6000fd5b505050506040513d60208110156124e757600080fd5b50505b5092915050565b80820382811115610f9157600080fd5b80820363ffffffff8084169082161115610f9157600080fd5b612522612cf5565b600082116125615760405162461bcd60e51b8152600401808060200182810382526026815260200180612d506026913960400191505060405180910390fd5b8261257b5750604080516020810190915260008152610f91565b71ffffffffffffffffffffffffffffffffffff831161262257600082607085901b816125a357fe5b0490506001600160e01b03811115612602576040805162461bcd60e51b815260206004820152601e60248201527f4669786564506f696e743a3a6672616374696f6e3a206f766572666c6f770000604482015290519081900360640190fd5b6040518060200160405280826001600160e01b0316815250915050610f91565b600061263384600160701b856128fd565b90506001600160e01b03811115612602576040805162461bcd60e51b815260206004820152601e60248201527f4669786564506f696e743a3a6672616374696f6e3a206f766572666c6f770000604482015290519081900360640190fd5b80516000906612725dd1d243ab906001600160e01b031661135d565b6126b8611317612138565b600f556010805463ffffffff19164263ffffffff16179055565b6000629896806126f1633b9aca006126eb612062611e06565b90612781565b816126f857fe5b04905060056001015481101561271157506006546108af565b600654156108af57600060065590565b604080516001600160a01b0380861660248301528416604482015260648082018490528251808303909101815260849091019091526020810180516001600160e01b03166323b872dd60e01b17905261277b908590612992565b50505050565b80820182811015610f9157600080fd5b600d546000906127b39063ffffffff600160201b8204811691811690612a4316565b63ffffffff169050600a600101546000141580156127d15750804210155b156128a357600554600a5460ff161561280b57600b546005546127f391612781565b6005819055600c5411612806576000600b555b61282d565b600b5460055461281a916124f1565b6005819055600c541061282d576000600b555b600d805467ffffffff000000001916600160201b4263ffffffff1602179055600554600b54600a546040805185815260208101949094528381019290925260ff1615156060830152517fb923e581a0f83128e9e1d8297aa52b18d6744310476e0b54509c054cd7a93b2a916080908290030190a1505b50565b604080516001600160a01b038416602482015260448082018490528251808303909101815260649091019091526020810180516001600160e01b031663a9059cbb60e01b1790526128f8908490612992565b505050565b600080600061290c8686612a5c565b915091506000848061291a57fe5b86880990508281111561292e576001820391505b8083039250848210612987576040805162461bcd60e51b815260206004820152601a60248201527f46756c6c4d6174683a3a6d756c4469763a206f766572666c6f77000000000000604482015290519081900360640190fd5b6119fe838387612a89565b60606129e7826040518060400160405280602081526020017f5361666545524332303a206c6f772d6c6576656c2063616c6c206661696c6564815250856001600160a01b0316612af99092919063ffffffff16565b8051909150156128f857808060200190516020811015612a0657600080fd5b50516128f85760405162461bcd60e51b815260040180806020018281038252602a815260200180612dfe602a913960400191505060405180910390fd5b80820163ffffffff8084169082161015610f9157600080fd5b6000808060001984860990508385029250828103915082811015612a81576001820391505b509250929050565b60008181038216808381612a9957fe5b049250808581612aa557fe5b049450808160000381612ab457fe5b60028581038087028203028087028203028087028203028087028203028087028203028087028203029586029003909402930460010193909302939093010292915050565b6060612b088484600085612b10565b949350505050565b6060612b1b85612cbb565b612b6c576040805162461bcd60e51b815260206004820152601d60248201527f416464726573733a2063616c6c20746f206e6f6e2d636f6e7472616374000000604482015290519081900360640190fd5b60006060866001600160a01b031685876040518082805190602001908083835b60208310612bab5780518252601f199092019160209182019101612b8c565b6001836020036101000a03801982511681845116808217855250505050505090500191505060006040518083038185875af1925050503d8060008114612c0d576040519150601f19603f3d011682016040523d82523d6000602084013e612c12565b606091505b50915091508115612c26579150612b089050565b805115612c365780518082602001fd5b8360405162461bcd60e51b81526004018080602001828103825283818151815260200191508051906020019080838360005b83811015612c80578181015183820152602001612c68565b50505050905090810190601f168015612cad5780820380516001836020036101000a031916815260200191505b509250505060405180910390fd5b3b151590565b60405180608001604052806000815260200160008152602001600063ffffffff168152602001600063ffffffff1681525090565b6040805160208101909152600081529056fe4f776e61626c653a206e6577206f776e657220697320746865207a65726f20616464726573734f776e61626c653a206d757374206265206e6577206f776e657220746f2070756c6c4669786564506f696e743a3a6672616374696f6e3a206469766973696f6e206279207a65726f44656274206d757374206265203020666f7220696e697469616c697a6174696f6e4f776e61626c653a2063616c6c6572206973206e6f7420746865206f776e6572536c697070616765206c696d69743a206d6f7265207468616e206d617820707269636556657374696e67206d757374206265206c6f6e676572207468616e20333620686f7572735361666545524332303a204552433230206f7065726174696f6e20646964206e6f742073756363656564a2646970667358221220b3a8ed86ae3950774b2381eacdaa50790ba7d1e6af2b58a34d80a78370ab1df164736f6c63430007050033",
  "immutableReferences": {
    "4482": [
      {
        "length": 32,
        "start": 7238
      },
      {
        "length": 32,
        "start": 7691
      },
      {
        "length": 32,
        "start": 8367
      },
      {
        "length": 32,
        "start": 8610
      },
      {
        "length": 32,
        "start": 8695
      },
      {
        "length": 32,
        "start": 8926
      },
      {
        "length": 32,
        "start": 9200
      }
    ],
    "4484": [
      {
        "length": 32,
        "start": 2088
      },
      {
        "length": 32,
        "start": 5399
      },
      {
        "length": 32,
        "start": 5774
      },
      {
        "length": 32,
        "start": 5890
      },
      {
        "length": 32,
        "start": 6102
      },
      {
        "length": 32,
        "start": 7347
      }
    ],
    "4486": [
      {
        "length": 32,
        "start": 4647
      },
      {
        "length": 32,
        "start": 5352
      },
      {
        "length": 32,
        "start": 5937
      },
      {
        "length": 32,
        "start": 6137
      },
      {
        "length": 32,
        "start": 6213
      }
    ],
    "4488": [
      {
        "length": 32,
        "start": 6818
      },
      {
        "length": 32,
        "start": 7459
      }
    ]
  },
  "source": "// SPDX-License-Identifier: AGPL-3.0-or-later\npragma solidity 0.7.5;\n\ninterface IOwnable {\n  function policy() external view returns (address);\n\n  function renounceManagement() external;\n  \n  function pushManagement( address newOwner_ ) external;\n  \n  function pullManagement() external;\n}\n\ncontract Ownable is IOwnable {\n\n    address internal _owner;\n    address internal _newOwner;\n\n    event OwnershipPushed(address indexed previousOwner, address indexed newOwner);\n    event OwnershipPulled(address indexed previousOwner, address indexed newOwner);\n\n    constructor () {\n        _owner = msg.sender;\n        emit OwnershipPushed( address(0), _owner );\n    }\n\n    function policy() public view override returns (address) {\n        return _owner;\n    }\n\n    modifier onlyPolicy() {\n        require( _owner == msg.sender, \"Ownable: caller is not the owner\" );\n        _;\n    }\n\n    function renounceManagement() public virtual override onlyPolicy() {\n        emit OwnershipPushed( _owner, address(0) );\n        _owner = address(0);\n    }\n\n    function pushManagement( address newOwner_ ) public virtual override onlyPolicy() {\n        require( newOwner_ != address(0), \"Ownable: new owner is the zero address\");\n        emit OwnershipPushed( _owner, newOwner_ );\n        _newOwner = newOwner_;\n    }\n    \n    function pullManagement() public virtual override {\n        require( msg.sender == _newOwner, \"Ownable: must be new owner to pull\");\n        emit OwnershipPulled( _owner, _newOwner );\n        _owner = _newOwner;\n    }\n}\n\nlibrary LowGasSafeMath {\n    /// @notice Returns x + y, reverts if sum overflows uint256\n    /// @param x The augend\n    /// @param y The addend\n    /// @return z The sum of x and y\n    function add(uint256 x, uint256 y) internal pure returns (uint256 z) {\n        require((z = x + y) >= x);\n    }\n\n    function add32(uint32 x, uint32 y) internal pure returns (uint32 z) {\n        require((z = x + y) >= x);\n    }\n\n    /// @notice Returns x - y, reverts if underflows\n    /// @param x The minuend\n    /// @param y The subtrahend\n    /// @return z The difference of x and y\n    function sub(uint256 x, uint256 y) internal pure returns (uint256 z) {\n        require((z = x - y) <= x);\n    }\n\n    function sub32(uint32 x, uint32 y) internal pure returns (uint32 z) {\n        require((z = x - y) <= x);\n    }\n\n    /// @notice Returns x * y, reverts if overflows\n    /// @param x The multiplicand\n    /// @param y The multiplier\n    /// @return z The product of x and y\n    function mul(uint256 x, uint256 y) internal pure returns (uint256 z) {\n        require(x == 0 || (z = x * y) / x == y);\n    }\n\n    /// @notice Returns x + y, reverts if overflows or underflows\n    /// @param x The augend\n    /// @param y The addend\n    /// @return z The sum of x and y\n    function add(int256 x, int256 y) internal pure returns (int256 z) {\n        require((z = x + y) >= x == (y >= 0));\n    }\n\n    /// @notice Returns x - y, reverts if overflows or underflows\n    /// @param x The minuend\n    /// @param y The subtrahend\n    /// @return z The difference of x and y\n    function sub(int256 x, int256 y) internal pure returns (int256 z) {\n        require((z = x - y) <= x == (y >= 0));\n    }\n}\n\nlibrary Address {\n\n    function isContract(address account) internal view returns (bool) {\n\n        uint256 size;\n        // solhint-disable-next-line no-inline-assembly\n        assembly { size := extcodesize(account) }\n        return size > 0;\n    }\n\n    function sendValue(address payable recipient, uint256 amount) internal {\n        require(address(this).balance >= amount, \"Address: insufficient balance\");\n\n        // solhint-disable-next-line avoid-low-level-calls, avoid-call-value\n        (bool success, ) = recipient.call{ value: amount }(\"\");\n        require(success, \"Address: unable to send value, recipient may have reverted\");\n    }\n\n    function functionCall(address target, bytes memory data) internal returns (bytes memory) {\n      return functionCall(target, data, \"Address: low-level call failed\");\n    }\n\n    function functionCall(\n        address target, \n        bytes memory data, \n        string memory errorMessage\n    ) internal returns (bytes memory) {\n        return _functionCallWithValue(target, data, 0, errorMessage);\n    }\n\n    function functionCallWithValue(address target, bytes memory data, uint256 value) internal returns (bytes memory) {\n        return functionCallWithValue(target, data, value, \"Address: low-level call with value failed\");\n    }\n\n    function functionCallWithValue(\n        address target, \n        bytes memory data, \n        uint256 value, \n        string memory errorMessage\n    ) internal returns (bytes memory) {\n        require(address(this).balance >= value, \"Address: insufficient balance for call\");\n        require(isContract(target), \"Address: call to non-contract\");\n\n        // solhint-disable-next-line avoid-low-level-calls\n        (bool success, bytes memory returndata) = target.call{ value: value }(data);\n        return _verifyCallResult(success, returndata, errorMessage);\n    }\n\n    function _functionCallWithValue(\n        address target, \n        bytes memory data, \n        uint256 weiValue, \n        string memory errorMessage\n    ) private returns (bytes memory) {\n        require(isContract(target), \"Address: call to non-contract\");\n\n        // solhint-disable-next-line avoid-low-level-calls\n        (bool success, bytes memory returndata) = target.call{ value: weiValue }(data);\n        if (success) {\n            return returndata;\n        } else {\n            // Look for revert reason and bubble it up if present\n            if (returndata.length > 0) {\n                // The easiest way to bubble the revert reason is using memory via assembly\n\n                // solhint-disable-next-line no-inline-assembly\n                assembly {\n                    let returndata_size := mload(returndata)\n                    revert(add(32, returndata), returndata_size)\n                }\n            } else {\n                revert(errorMessage);\n            }\n        }\n    }\n\n    function functionStaticCall(address target, bytes memory data) internal view returns (bytes memory) {\n        return functionStaticCall(target, data, \"Address: low-level static call failed\");\n    }\n\n    function functionStaticCall(\n        address target, \n        bytes memory data, \n        string memory errorMessage\n    ) internal view returns (bytes memory) {\n        require(isContract(target), \"Address: static call to non-contract\");\n\n        // solhint-disable-next-line avoid-low-level-calls\n        (bool success, bytes memory returndata) = target.staticcall(data);\n        return _verifyCallResult(success, returndata, errorMessage);\n    }\n\n    function functionDelegateCall(address target, bytes memory data) internal returns (bytes memory) {\n        return functionDelegateCall(target, data, \"Address: low-level delegate call failed\");\n    }\n\n    function functionDelegateCall(\n        address target, \n        bytes memory data, \n        string memory errorMessage\n    ) internal returns (bytes memory) {\n        require(isContract(target), \"Address: delegate call to non-contract\");\n\n        // solhint-disable-next-line avoid-low-level-calls\n        (bool success, bytes memory returndata) = target.delegatecall(data);\n        return _verifyCallResult(success, returndata, errorMessage);\n    }\n\n    function _verifyCallResult(\n        bool success, \n        bytes memory returndata, \n        string memory errorMessage\n    ) private pure returns(bytes memory) {\n        if (success) {\n            return returndata;\n        } else {\n            if (returndata.length > 0) {\n\n                assembly {\n                    let returndata_size := mload(returndata)\n                    revert(add(32, returndata), returndata_size)\n                }\n            } else {\n                revert(errorMessage);\n            }\n        }\n    }\n\n    function addressToString(address _address) internal pure returns(string memory) {\n        bytes32 _bytes = bytes32(uint256(_address));\n        bytes memory HEX = \"0123456789abcdef\";\n        bytes memory _addr = new bytes(42);\n\n        _addr[0] = '0';\n        _addr[1] = 'x';\n\n        for(uint256 i = 0; i < 20; i++) {\n            _addr[2+i*2] = HEX[uint8(_bytes[i + 12] >> 4)];\n            _addr[3+i*2] = HEX[uint8(_bytes[i + 12] & 0x0f)];\n        }\n\n        return string(_addr);\n\n    }\n}\n\ninterface IERC20 {\n    function decimals() external view returns (uint8);\n\n    function totalSupply() external view returns (uint256);\n\n    function balanceOf(address account) external view returns (uint256);\n\n    function transfer(address recipient, uint256 amount) external returns (bool);\n\n    function allowance(address owner, address spender) external view returns (uint256);\n\n    function approve(address spender, uint256 amount) external returns (bool);\n\n    function transferFrom(address sender, address recipient, uint256 amount) external returns (bool);\n\n    event Transfer(address indexed from, address indexed to, uint256 value);\n\n    event Approval(address indexed owner, address indexed spender, uint256 value);\n}\n\nlibrary SafeERC20 {\n    using LowGasSafeMath for uint256;\n    using Address for address;\n\n    function safeTransfer(IERC20 token, address to, uint256 value) internal {\n        _callOptionalReturn(token, abi.encodeWithSelector(token.transfer.selector, to, value));\n    }\n\n    function safeTransferFrom(IERC20 token, address from, address to, uint256 value) internal {\n        _callOptionalReturn(token, abi.encodeWithSelector(token.transferFrom.selector, from, to, value));\n    }\n\n    function safeApprove(IERC20 token, address spender, uint256 value) internal {\n\n        require((value == 0) || (token.allowance(address(this), spender) == 0),\n            \"SafeERC20: approve from non-zero to non-zero allowance\"\n        );\n        _callOptionalReturn(token, abi.encodeWithSelector(token.approve.selector, spender, value));\n    }\n\n    function safeIncreaseAllowance(IERC20 token, address spender, uint256 value) internal {\n        uint256 newAllowance = token.allowance(address(this), spender).add(value);\n        _callOptionalReturn(token, abi.encodeWithSelector(token.approve.selector, spender, newAllowance));\n    }\n\n    function safeDecreaseAllowance(IERC20 token, address spender, uint256 value) internal {\n        uint256 newAllowance = token.allowance(address(this), spender)\n            .sub(value);\n        _callOptionalReturn(token, abi.encodeWithSelector(token.approve.selector, spender, newAllowance));\n    }\n\n    function _callOptionalReturn(IERC20 token, bytes memory data) private {\n\n        bytes memory returndata = address(token).functionCall(data, \"SafeERC20: low-level call failed\");\n        if (returndata.length > 0) { // Return data is optional\n            // solhint-disable-next-line max-line-length\n            require(abi.decode(returndata, (bool)), \"SafeERC20: ERC20 operation did not succeed\");\n        }\n    }\n}\n\nlibrary FullMath {\n    function fullMul(uint256 x, uint256 y) private pure returns (uint256 l, uint256 h) {\n        uint256 mm = mulmod(x, y, uint256(-1));\n        l = x * y;\n        h = mm - l;\n        if (mm < l) h -= 1;\n    }\n\n    function fullDiv(\n        uint256 l,\n        uint256 h,\n        uint256 d\n    ) private pure returns (uint256) {\n        uint256 pow2 = d & -d;\n        d /= pow2;\n        l /= pow2;\n        l += h * ((-pow2) / pow2 + 1);\n        uint256 r = 1;\n        r *= 2 - d * r;\n        r *= 2 - d * r;\n        r *= 2 - d * r;\n        r *= 2 - d * r;\n        r *= 2 - d * r;\n        r *= 2 - d * r;\n        r *= 2 - d * r;\n        r *= 2 - d * r;\n        return l * r;\n    }\n\n    function mulDiv(\n        uint256 x,\n        uint256 y,\n        uint256 d\n    ) internal pure returns (uint256) {\n        (uint256 l, uint256 h) = fullMul(x, y);\n        uint256 mm = mulmod(x, y, d);\n        if (mm > l) h -= 1;\n        l -= mm;\n        require(h < d, 'FullMath::mulDiv: overflow');\n        return fullDiv(l, h, d);\n    }\n}\n\nlibrary FixedPoint {\n\n    struct uq112x112 {\n        uint224 _x;\n    }\n\n    struct uq144x112 {\n        uint256 _x;\n    }\n\n    uint8 private constant RESOLUTION = 112;\n    uint256 private constant Q112 = 0x10000000000000000000000000000;\n    uint256 private constant Q224 = 0x100000000000000000000000000000000000000000000000000000000;\n    uint256 private constant LOWER_MASK = 0xffffffffffffffffffffffffffff; // decimal of UQ*x112 (lower 112 bits)\n\n    function decode(uq112x112 memory self) internal pure returns (uint112) {\n        return uint112(self._x >> RESOLUTION);\n    }\n\n    function decode112with18(uq112x112 memory self) internal pure returns (uint) {\n\n        return uint(self._x) / 5192296858534827;\n    }\n\n    function fraction(uint256 numerator, uint256 denominator) internal pure returns (uq112x112 memory) {\n        require(denominator > 0, 'FixedPoint::fraction: division by zero');\n        if (numerator == 0) return FixedPoint.uq112x112(0);\n\n        if (numerator <= uint144(-1)) {\n            uint256 result = (numerator << RESOLUTION) / denominator;\n            require(result <= uint224(-1), 'FixedPoint::fraction: overflow');\n            return uq112x112(uint224(result));\n        } else {\n            uint256 result = FullMath.mulDiv(numerator, Q112, denominator);\n            require(result <= uint224(-1), 'FixedPoint::fraction: overflow');\n            return uq112x112(uint224(result));\n        }\n    }\n}\n\ninterface AggregatorV3Interface {\n\n  function decimals() external view returns (uint8);\n  function description() external view returns (string memory);\n  function version() external view returns (uint256);\n\n  // getRoundData and latestRoundData should both raise \"No data present\"\n  // if they do not have data to report, instead of returning unset values\n  // which could be misinterpreted as actual reported values.\n  function getRoundData(uint80 _roundId)\n    external\n    view\n    returns (\n      uint80 roundId,\n      int256 answer,\n      uint256 startedAt,\n      uint256 updatedAt,\n      uint80 answeredInRound\n    );\n  function latestRoundData()\n    external\n    view\n    returns (\n      uint80 roundId,\n      int256 answer,\n      uint256 startedAt,\n      uint256 updatedAt,\n      uint80 answeredInRound\n    );\n}\n\ninterface ITreasury {\n    function deposit( uint _amount, address _token, uint _profit ) external returns ( bool );\n    function valueOf( address _token, uint _amount ) external view returns ( uint value_ );\n    function mintRewards( address _recipient, uint _amount ) external;\n}\n\ninterface IStaking {\n    function stake( uint _amount, address _recipient ) external returns ( bool );\n}\n\ninterface IStakingHelper {\n    function stake( uint _amount, address _recipient ) external;\n}\n\ninterface IWAVAX9 is IERC20 {\n    /// @notice Deposit ether to get wrapped ether\n    function deposit() external payable;\n}\n\ncontract TimeBondDepository is Ownable {\n\n    using FixedPoint for *;\n    using SafeERC20 for IERC20;\n    using SafeERC20 for IWAVAX9;\n    using LowGasSafeMath for uint;\n    using LowGasSafeMath for uint32;\n\n\n\n\n    /* ======== EVENTS ======== */\n\n    event BondCreated( uint deposit, uint indexed payout, uint indexed expires, uint indexed priceInUSD );\n    event BondRedeemed( address indexed recipient, uint payout, uint remaining );\n    event BondPriceChanged( uint indexed priceInUSD, uint indexed internalPrice, uint indexed debtRatio );\n    event ControlVariableAdjustment( uint initialBCV, uint newBCV, uint adjustment, bool addition );\n\n\n\n\n    /* ======== STATE VARIABLES ======== */\n    IERC20 public immutable Time; // token given as payment for bond\n    IWAVAX9 public immutable principle; // token used to create bond\n    ITreasury public immutable treasury; // mints Time when receives principle\n    address public immutable DAO; // receives profit share from bond\n\n    AggregatorV3Interface public priceFeed;\n\n    IStaking public staking; // to auto-stake payout\n    IStakingHelper public stakingHelper; // to stake and claim if no staking warmup\n    bool public useHelper;\n\n    Terms public terms; // stores terms for new bonds\n    Adjust public adjustment; // stores adjustment to BCV data\n\n    mapping( address => Bond ) public bondInfo; // stores bond information for depositors\n\n    uint public totalDebt; // total value of outstanding bonds; used for pricing\n    uint32 public lastDecay; // reference time for debt decay\n\n\n    mapping (address => bool) public allowedZappers;\n\n\n    /* ======== STRUCTS ======== */\n\n    // Info for creating new bonds\n    struct Terms {\n        uint controlVariable; // scaling variable for price\n        uint minimumPrice; // vs principle value. 4 decimals (1500 = 0.15)\n        uint maxPayout; // in thousandths of a %. i.e. 500 = 0.5%\n        uint maxDebt; // 9 decimal debt ratio, max % total supply created as debt\n        uint32 vestingTerm; // in seconds\n    }\n\n    // Info for bond holder\n    struct Bond {\n        uint payout; // Time remaining to be paid\n        uint pricePaid; // In DAI, for front end viewing\n        uint32 vesting; // Seconds left to vest\n        uint32 lastTime; // Last interaction\n    }\n\n    // Info for incremental adjustments to control variable \n    struct Adjust {\n        bool add; // addition or subtraction\n        uint rate; // increment\n        uint target; // BCV when adjustment finished\n        uint32 buffer; // minimum length (in seconds) between adjustments\n        uint32 lastTime; // time when last adjustment made\n    }\n\n\n\n\n    /* ======== INITIALIZATION ======== */\n\n    constructor ( \n        address _Time,\n        address _principle,\n        address _treasury, \n        address _DAO,\n        address _feed\n    ) {\n        require( _Time != address(0) );\n        Time = IERC20(_Time);\n        require( _principle != address(0) );\n        principle = IWAVAX9(_principle);\n        require( _treasury != address(0) );\n        treasury = ITreasury(_treasury);\n        require( _DAO != address(0) );\n        DAO = _DAO;\n        require( _feed != address(0) );\n        priceFeed = AggregatorV3Interface( _feed );\n    }\n\n    /**\n     *  @notice initializes bond parameters\n     *  @param _controlVariable uint\n     *  @param _vestingTerm uint\n     *  @param _minimumPrice uint\n     *  @param _maxPayout uint\n     *  @param _maxDebt uint\n     */\n    function initializeBondTerms( \n        uint _controlVariable, \n        uint _minimumPrice,\n        uint _maxPayout,\n        uint _maxDebt,\n        uint32 _vestingTerm\n    ) external onlyPolicy() {\n        require( currentDebt() == 0, \"Debt must be 0 for initialization\" );\n        require( _controlVariable >= 40, \"Can lock adjustment\" );\n        require( _maxPayout <= 1000, \"Payout cannot be above 1 percent\" );\n        require( _vestingTerm >= 129600, \"Vesting must be longer than 36 hours\" );\n        terms = Terms ({\n            controlVariable: _controlVariable,\n            vestingTerm: _vestingTerm,\n            minimumPrice: _minimumPrice,\n            maxPayout: _maxPayout,\n            maxDebt: _maxDebt\n        });\n        lastDecay = uint32(block.timestamp);\n    }\n\n\n\n    \n    /* ======== POLICY FUNCTIONS ======== */\n\n    enum PARAMETER { VESTING, PAYOUT, DEBT, MINPRICE }\n    /**\n     *  @notice set parameters for new bonds\n     *  @param _parameter PARAMETER\n     *  @param _input uint\n     */\n    function setBondTerms ( PARAMETER _parameter, uint _input ) external onlyPolicy() {\n        if ( _parameter == PARAMETER.VESTING ) { // 0\n            require( _input >= 129600, \"Vesting must be longer than 36 hours\" );\n            terms.vestingTerm = uint32(_input);\n        } else if ( _parameter == PARAMETER.PAYOUT ) { // 1\n            require( _input <= 1000, \"Payout cannot be above 1 percent\" );\n            terms.maxPayout = _input;\n        } else if ( _parameter == PARAMETER.DEBT ) { // 2\n            terms.maxDebt = _input;\n        } else if ( _parameter == PARAMETER.MINPRICE ) { // 3\n            terms.minimumPrice = _input;\n        }\n    }\n\n    /**\n     *  @notice set control variable adjustment\n     *  @param _addition bool\n     *  @param _increment uint\n     *  @param _target uint\n     *  @param _buffer uint\n     */\n    function setAdjustment ( \n        bool _addition,\n        uint _increment, \n        uint _target,\n        uint32 _buffer \n    ) external onlyPolicy() {\n        require( _increment <= terms.controlVariable.mul( 25 )/ 1000, \"Increment too large\" );\n        require(_target >= 40, \"Next Adjustment could be locked\");\n        adjustment = Adjust({\n            add: _addition,\n            rate: _increment,\n            target: _target,\n            buffer: _buffer,\n            lastTime: uint32(block.timestamp)\n        });\n    }\n\n    /**\n     *  @notice set contract for auto stake\n     *  @param _staking address\n     *  @param _helper bool\n     */\n    function setStaking( address _staking, bool _helper ) external onlyPolicy() {\n        require( _staking != address(0) , \"IA\");\n        if ( _helper ) {\n            useHelper = true;\n            stakingHelper = IStakingHelper(_staking);\n        } else {\n            useHelper = false;\n            staking = IStaking(_staking);\n        }\n    }\n\n    function allowZapper(address zapper) external onlyPolicy {\n        require(zapper != address(0), \"ZNA\");\n        \n        allowedZappers[zapper] = true;\n    }\n\n    function removeZapper(address zapper) external onlyPolicy {\n       \n        allowedZappers[zapper] = false;\n    }\n\n\n    \n\n    /* ======== USER FUNCTIONS ======== */\n\n    /**\n     *  @notice deposit bond\n     *  @param _amount uint\n     *  @param _maxPrice uint\n     *  @param _depositor address\n     *  @return uint\n     */\n    function deposit( \n        uint _amount, \n        uint _maxPrice,\n        address _depositor\n    ) external payable returns ( uint ) {\n        require( _depositor != address(0), \"Invalid address\" );\n        require(msg.sender == _depositor || allowedZappers[msg.sender], \"LFNA\");\n        decayDebt();\n        require( totalDebt <= terms.maxDebt, \"Max capacity reached\" );\n        \n        uint priceInUSD = bondPriceInUSD(); // Stored in bond info\n        uint nativePrice = _bondPrice();\n\n        require( _maxPrice >= nativePrice, \"Slippage limit: more than max price\" ); // slippage protection\n\n        uint value = treasury.valueOf( address(principle), _amount );\n        uint payout = payoutFor( value ); // payout to bonder is computed\n\n        require( payout >= 10000000, \"Bond too small\" ); // must be > 0.01 Time ( underflow protection )\n        require( payout <= maxPayout(), \"Bond too large\"); // size protection because there is no slippage\n\n        /**\n            asset carries risk and is not minted against\n            asset transfered to treasury and rewards minted as payout\n         */\n        if (address(this).balance >= _amount) {\n            // pay with WETH9\n            require(msg.value == _amount, \"UA\");\n            principle.deposit{value: _amount}(); // wrap only what is needed to pay\n            principle.transfer(address(treasury), _amount);\n        } else {\n            principle.safeTransferFrom( msg.sender, address(treasury), _amount );\n        }\n        \n        treasury.mintRewards( address(this), payout );\n        \n        // total debt is increased\n        totalDebt = totalDebt.add( value ); \n                \n        // depositor info is stored\n        bondInfo[ _depositor ] = Bond({ \n            payout: bondInfo[ _depositor ].payout.add( payout ),\n            vesting: terms.vestingTerm,\n            lastTime: uint32(block.timestamp),\n            pricePaid: priceInUSD\n        });\n\n        // indexed events are emitted\n        emit BondCreated( _amount, payout, block.timestamp.add( terms.vestingTerm ), priceInUSD );\n        emit BondPriceChanged( bondPriceInUSD(), _bondPrice(), debtRatio() );\n\n        adjust(); // control variable is adjusted\n        return payout; \n    }\n\n    /** \n     *  @notice redeem bond for user\n     *  @param _recipient address\n     *  @param _stake bool\n     *  @return uint\n     */ \n    function redeem( address _recipient, bool _stake ) external returns ( uint ) { \n        require(msg.sender == _recipient, \"NA\");       \n        Bond memory info = bondInfo[ _recipient ];\n        uint percentVested = percentVestedFor( _recipient ); // (seconds since last interaction / vesting term remaining)\n\n        if ( percentVested >= 10000 ) { // if fully vested\n            delete bondInfo[ _recipient ]; // delete user info\n            emit BondRedeemed( _recipient, info.payout, 0 ); // emit bond data\n            return stakeOrSend( _recipient, _stake, info.payout ); // pay user everything due\n\n        } else { // if unfinished\n            // calculate payout vested\n            uint payout = info.payout.mul( percentVested )/ 10000;\n\n            // store updated deposit info\n            bondInfo[ _recipient ] = Bond({\n                payout: info.payout.sub( payout ),\n                vesting: info.vesting.sub32( uint32( block.timestamp ).sub32( info.lastTime ) ),\n                lastTime: uint32( block.timestamp ),\n                pricePaid: info.pricePaid\n            });\n\n            emit BondRedeemed( _recipient, payout, bondInfo[ _recipient ].payout );\n            return stakeOrSend( _recipient, _stake, payout );\n        }\n    }\n\n\n\n    \n    /* ======== INTERNAL HELPER FUNCTIONS ======== */\n\n    /**\n     *  @notice allow user to stake payout automatically\n     *  @param _stake bool\n     *  @param _amount uint\n     *  @return uint\n     */\n    function stakeOrSend( address _recipient, bool _stake, uint _amount ) internal returns ( uint ) {\n        if ( !_stake ) { // if user does not want to stake\n            Time.transfer( _recipient, _amount ); // send payout\n        } else { // if user wants to stake\n            if ( useHelper ) { // use if staking warmup is 0\n                Time.approve( address(stakingHelper), _amount );\n                stakingHelper.stake( _amount, _recipient );\n            } else {\n                Time.approve( address(staking), _amount );\n                staking.stake( _amount, _recipient );\n            }\n        }\n        return _amount;\n    }\n\n    /**\n     *  @notice makes incremental adjustment to control variable\n     */\n    function adjust() internal {\n         uint timeCanAdjust = adjustment.lastTime.add32( adjustment.buffer );\n         if( adjustment.rate != 0 && block.timestamp >= timeCanAdjust ) {\n            uint initial = terms.controlVariable;\n            if ( adjustment.add ) {\n                terms.controlVariable = terms.controlVariable.add( adjustment.rate );\n                if ( terms.controlVariable >= adjustment.target ) {\n                    adjustment.rate = 0;\n                }\n            } else {\n                terms.controlVariable = terms.controlVariable.sub( adjustment.rate );\n                if ( terms.controlVariable <= adjustment.target ) {\n                    adjustment.rate = 0;\n                }\n            }\n            adjustment.lastTime = uint32(block.timestamp);\n            emit ControlVariableAdjustment( initial, terms.controlVariable, adjustment.rate, adjustment.add );\n        }\n    }\n\n    /**\n     *  @notice reduce total debt\n     */\n    function decayDebt() internal {\n        totalDebt = totalDebt.sub( debtDecay() );\n        lastDecay = uint32(block.timestamp);\n    }\n\n\n\n\n    /* ======== VIEW FUNCTIONS ======== */\n\n    /**\n     *  @notice determine maximum bond size\n     *  @return uint\n     */\n    function maxPayout() public view returns ( uint ) {\n        return Time.totalSupply().mul( terms.maxPayout )/ 100000;\n    }\n\n    /**\n     *  @notice calculate interest due for new bond\n     *  @param _value uint\n     *  @return uint\n     */\n    function payoutFor( uint _value ) public view returns ( uint ) {\n        return FixedPoint.fraction( _value, bondPrice() ).decode112with18()/ 1e14;\n    }\n\n\n    /**\n     *  @notice calculate current bond premium\n     *  @return price_ uint\n     */\n    function bondPrice() public view returns ( uint price_ ) {        \n        price_ = terms.controlVariable.mul( debtRatio() )/ 1e5;\n        if ( price_ < terms.minimumPrice ) {\n            price_ = terms.minimumPrice;\n        }\n    }\n\n    /**\n     *  @notice calculate current bond price and remove floor if above\n     *  @return price_ uint\n     */\n    function _bondPrice() internal returns ( uint price_ ) {\n        price_ = terms.controlVariable.mul( debtRatio() ).add( 1000000000 ) / 1e7;\n        if ( price_ < terms.minimumPrice ) {\n            price_ = terms.minimumPrice;        \n        } else if ( terms.minimumPrice != 0 ) {\n            terms.minimumPrice = 0;\n        }\n    }\n\n    /**\n     *  @notice get asset price from chainlink\n     */\n    function assetPrice() public view returns (int) {\n        ( , int price, , , ) = priceFeed.latestRoundData();\n        return price;\n    }\n\n    /**\n     *  @notice converts bond price to DAI value\n     *  @return price_ uint\n     */\n    function bondPriceInUSD() public view returns ( uint price_ ) {\n        price_ = bondPrice().mul( uint( assetPrice() ) ).mul( 1e6 );\n    }\n\n\n    /**\n     *  @notice calculate current ratio of debt to Time supply\n     *  @return debtRatio_ uint\n     */\n    function debtRatio() public view returns ( uint debtRatio_ ) {   \n        uint supply = Time.totalSupply();\n        debtRatio_ = FixedPoint.fraction( \n            currentDebt().mul( 1e9 ), \n            supply\n        ).decode112with18()/ 1e18;\n    }\n\n    /**\n     *  @notice debt ratio in same terms as reserve bonds\n     *  @return uint\n     */\n    function standardizedDebtRatio() external view returns ( uint ) {\n        return debtRatio().mul( uint( assetPrice() ) )/ 10**priceFeed.decimals(); // ETH feed is 8 decimals\n    }\n\n    /**\n     *  @notice calculate debt factoring in decay\n     *  @return uint\n     */\n    function currentDebt() public view returns ( uint ) {\n        return totalDebt.sub( debtDecay() );\n    }\n\n    /**\n     *  @notice amount to decay total debt by\n     *  @return decay_ uint\n     */\n    function debtDecay() public view returns ( uint decay_ ) {\n        uint32 timeSinceLast = uint32(block.timestamp).sub32( lastDecay );\n        decay_ = totalDebt.mul( timeSinceLast )/ terms.vestingTerm;\n        if ( decay_ > totalDebt ) {\n            decay_ = totalDebt;\n        }\n    }\n\n\n    /**\n     *  @notice calculate how far into vesting a depositor is\n     *  @param _depositor address\n     *  @return percentVested_ uint\n     */\n    function percentVestedFor( address _depositor ) public view returns ( uint percentVested_ ) {\n        Bond memory bond = bondInfo[ _depositor ];\n        uint secondsSinceLast = uint32(block.timestamp).sub32( bond.lastTime );\n        uint vesting = bond.vesting;\n\n        if ( vesting > 0 ) {\n            percentVested_ = secondsSinceLast.mul( 10000 )/vesting;\n        } else {\n            percentVested_ = 0;\n        }\n    }\n\n    /**\n     *  @notice calculate amount of Time available for claim by depositor\n     *  @param _depositor address\n     *  @return pendingPayout_ uint\n     */\n    function pendingPayoutFor( address _depositor ) external view returns ( uint pendingPayout_ ) {\n        uint percentVested = percentVestedFor( _depositor );\n        uint payout = bondInfo[ _depositor ].payout;\n\n        if ( percentVested >= 10000 ) {\n            pendingPayout_ = payout;\n        } else {\n            pendingPayout_ = payout.mul( percentVested )/ 10000;\n        }\n    }\n\n\n\n\n    /* ======= AUXILLIARY ======= */\n\n    /**\n     *  @notice allow anyone to send lost tokens (excluding principle or Time) to the DAO\n     *  @return bool\n     */\n    function recoverLostToken( IERC20 _token ) external returns ( bool ) {\n        require( _token != Time, \"NAT\" );\n        require( _token != principle, \"NAP\" );\n        _token.safeTransfer( DAO, _token.balanceOf( address(this) ) );\n        return true;\n    }\n\n    function recoverLostETH() internal {\n        if (address(this).balance > 0) safeTransferETH(DAO, address(this).balance);\n    }\n\n    /// @notice Transfers ETH to the recipient address\n    /// @dev Fails with `STE`\n    /// @param to The destination of the transfer\n    /// @param value The value to be transferred\n    function safeTransferETH(address to, uint256 value) internal {\n        (bool success, ) = to.call{value: value}(new bytes(0));\n        require(success, 'STE');\n    }\n}",
  "sourcePath": "/Users/kisharora/Developer/web3/paradiseDao/contracts/EthBondDepository.sol",
  "compiler": {
    "name": "solc",
    "version": "0.7.5+commit.eb77ed08.Emscripten.clang"
  },
  "schemaVersion": "3.4.4",
  "updatedAt": "2022-01-30T06:19:20.650Z",
  "devdoc": {
    "kind": "dev",
    "methods": {
      "bondPrice()": {
        "returns": {
          "price_": "uint"
        }
      },
      "bondPriceInUSD()": {
        "returns": {
          "price_": "uint"
        }
      },
      "currentDebt()": {
        "returns": {
          "_0": "uint"
        }
      },
      "debtDecay()": {
        "returns": {
          "decay_": "uint"
        }
      },
      "debtRatio()": {
        "returns": {
          "debtRatio_": "uint"
        }
      },
      "deposit(uint256,uint256,address)": {
        "params": {
          "_amount": "uint",
          "_depositor": "address",
          "_maxPrice": "uint"
        },
        "returns": {
          "_0": "uint"
        }
      },
      "initializeBondTerms(uint256,uint256,uint256,uint256,uint32)": {
        "params": {
          "_controlVariable": "uint",
          "_maxDebt": "uint",
          "_maxPayout": "uint",
          "_minimumPrice": "uint",
          "_vestingTerm": "uint"
        }
      },
      "maxPayout()": {
        "returns": {
          "_0": "uint"
        }
      },
      "payoutFor(uint256)": {
        "params": {
          "_value": "uint"
        },
        "returns": {
          "_0": "uint"
        }
      },
      "pendingPayoutFor(address)": {
        "params": {
          "_depositor": "address"
        },
        "returns": {
          "pendingPayout_": "uint"
        }
      },
      "percentVestedFor(address)": {
        "params": {
          "_depositor": "address"
        },
        "returns": {
          "percentVested_": "uint"
        }
      },
      "recoverLostToken(address)": {
        "returns": {
          "_0": "bool"
        }
      },
      "redeem(address,bool)": {
        "params": {
          "_recipient": "address",
          "_stake": "bool"
        },
        "returns": {
          "_0": "uint"
        }
      },
      "setAdjustment(bool,uint256,uint256,uint32)": {
        "params": {
          "_addition": "bool",
          "_buffer": "uint",
          "_increment": "uint",
          "_target": "uint"
        }
      },
      "setBondTerms(uint8,uint256)": {
        "params": {
          "_input": "uint",
          "_parameter": "PARAMETER"
        }
      },
      "setStaking(address,bool)": {
        "params": {
          "_helper": "bool",
          "_staking": "address"
        }
      },
      "standardizedDebtRatio()": {
        "returns": {
          "_0": "uint"
        }
      }
    },
    "version": 1
  },
  "userdoc": {
    "kind": "user",
    "methods": {
      "assetPrice()": {
        "notice": "get asset price from chainlink"
      },
      "bondPrice()": {
        "notice": "calculate current bond premium"
      },
      "bondPriceInUSD()": {
        "notice": "converts bond price to DAI value"
      },
      "currentDebt()": {
        "notice": "calculate debt factoring in decay"
      },
      "debtDecay()": {
        "notice": "amount to decay total debt by"
      },
      "debtRatio()": {
        "notice": "calculate current ratio of debt to Time supply"
      },
      "deposit(uint256,uint256,address)": {
        "notice": "deposit bond"
      },
      "initializeBondTerms(uint256,uint256,uint256,uint256,uint32)": {
        "notice": "initializes bond parameters"
      },
      "maxPayout()": {
        "notice": "determine maximum bond size"
      },
      "payoutFor(uint256)": {
        "notice": "calculate interest due for new bond"
      },
      "pendingPayoutFor(address)": {
        "notice": "calculate amount of Time available for claim by depositor"
      },
      "percentVestedFor(address)": {
        "notice": "calculate how far into vesting a depositor is"
      },
      "recoverLostToken(address)": {
        "notice": "allow anyone to send lost tokens (excluding principle or Time) to the DAO"
      },
      "redeem(address,bool)": {
        "notice": "redeem bond for user"
      },
      "setAdjustment(bool,uint256,uint256,uint32)": {
        "notice": "set control variable adjustment"
      },
      "setBondTerms(uint8,uint256)": {
        "notice": "set parameters for new bonds"
      },
      "setStaking(address,bool)": {
        "notice": "set contract for auto stake"
      },
      "standardizedDebtRatio()": {
        "notice": "debt ratio in same terms as reserve bonds"
      }
    },
    "version": 1
  }
}