{
  "contractName": "UtopiaBondDepository",
  "abi": [
    {
      "inputs": [
        {
          "internalType": "address",
          "name": "_Utop",
          "type": "address"
        },
        {
          "internalType": "address",
          "name": "_principle",
          "type": "address"
        },
        {
          "internalType": "address",
          "name": "_treasury",
          "type": "address"
        },
        {
          "internalType": "address",
          "name": "_DAO",
          "type": "address"
        },
        {
          "internalType": "address",
          "name": "_bondCalculator",
          "type": "address"
        }
      ],
      "stateMutability": "nonpayable",
      "type": "constructor"
    },
    {
      "anonymous": false,
      "inputs": [
        {
          "indexed": false,
          "internalType": "uint256",
          "name": "deposit",
          "type": "uint256"
        },
        {
          "indexed": true,
          "internalType": "uint256",
          "name": "payout",
          "type": "uint256"
        },
        {
          "indexed": true,
          "internalType": "uint256",
          "name": "expires",
          "type": "uint256"
        },
        {
          "indexed": true,
          "internalType": "uint256",
          "name": "priceInUSD",
          "type": "uint256"
        }
      ],
      "name": "BondCreated",
      "type": "event"
    },
    {
      "anonymous": false,
      "inputs": [
        {
          "indexed": true,
          "internalType": "uint256",
          "name": "priceInUSD",
          "type": "uint256"
        },
        {
          "indexed": true,
          "internalType": "uint256",
          "name": "internalPrice",
          "type": "uint256"
        },
        {
          "indexed": true,
          "internalType": "uint256",
          "name": "debtRatio",
          "type": "uint256"
        }
      ],
      "name": "BondPriceChanged",
      "type": "event"
    },
    {
      "anonymous": false,
      "inputs": [
        {
          "indexed": true,
          "internalType": "address",
          "name": "recipient",
          "type": "address"
        },
        {
          "indexed": false,
          "internalType": "uint256",
          "name": "payout",
          "type": "uint256"
        },
        {
          "indexed": false,
          "internalType": "uint256",
          "name": "remaining",
          "type": "uint256"
        }
      ],
      "name": "BondRedeemed",
      "type": "event"
    },
    {
      "anonymous": false,
      "inputs": [
        {
          "indexed": false,
          "internalType": "uint256",
          "name": "initialBCV",
          "type": "uint256"
        },
        {
          "indexed": false,
          "internalType": "uint256",
          "name": "newBCV",
          "type": "uint256"
        },
        {
          "indexed": false,
          "internalType": "uint256",
          "name": "adjustment",
          "type": "uint256"
        },
        {
          "indexed": false,
          "internalType": "bool",
          "name": "addition",
          "type": "bool"
        }
      ],
      "name": "ControlVariableAdjustment",
      "type": "event"
    },
    {
      "anonymous": false,
      "inputs": [
        {
          "components": [
            {
              "internalType": "uint256",
              "name": "controlVariable",
              "type": "uint256"
            },
            {
              "internalType": "uint256",
              "name": "minimumPrice",
              "type": "uint256"
            },
            {
              "internalType": "uint256",
              "name": "maxPayout",
              "type": "uint256"
            },
            {
              "internalType": "uint256",
              "name": "fee",
              "type": "uint256"
            },
            {
              "internalType": "uint256",
              "name": "maxDebt",
              "type": "uint256"
            },
            {
              "internalType": "uint32",
              "name": "vestingTerm",
              "type": "uint32"
            }
          ],
          "indexed": false,
          "internalType": "struct UtopiaBondDepository.Terms",
          "name": "terms",
          "type": "tuple"
        }
      ],
      "name": "InitTerms",
      "type": "event"
    },
    {
      "anonymous": false,
      "inputs": [
        {
          "indexed": true,
          "internalType": "address",
          "name": "tokenToRecover",
          "type": "address"
        },
        {
          "indexed": false,
          "internalType": "uint256",
          "name": "amount",
          "type": "uint256"
        }
      ],
      "name": "LogRecoverLostToken",
      "type": "event"
    },
    {
      "anonymous": false,
      "inputs": [
        {
          "components": [
            {
              "internalType": "bool",
              "name": "add",
              "type": "bool"
            },
            {
              "internalType": "uint256",
              "name": "rate",
              "type": "uint256"
            },
            {
              "internalType": "uint256",
              "name": "target",
              "type": "uint256"
            },
            {
              "internalType": "uint32",
              "name": "buffer",
              "type": "uint32"
            },
            {
              "internalType": "uint32",
              "name": "lastTime",
              "type": "uint32"
            }
          ],
          "indexed": false,
          "internalType": "struct UtopiaBondDepository.Adjust",
          "name": "adjust",
          "type": "tuple"
        }
      ],
      "name": "LogSetAdjustment",
      "type": "event"
    },
    {
      "anonymous": false,
      "inputs": [
        {
          "indexed": true,
          "internalType": "address",
          "name": "stakingContract",
          "type": "address"
        },
        {
          "indexed": false,
          "internalType": "bool",
          "name": "isHelper",
          "type": "bool"
        }
      ],
      "name": "LogSetStaking",
      "type": "event"
    },
    {
      "anonymous": false,
      "inputs": [
        {
          "indexed": false,
          "internalType": "enum UtopiaBondDepository.PARAMETER",
          "name": "param",
          "type": "uint8"
        },
        {
          "indexed": false,
          "internalType": "uint256",
          "name": "value",
          "type": "uint256"
        }
      ],
      "name": "LogSetTerms",
      "type": "event"
    },
    {
      "anonymous": false,
      "inputs": [
        {
          "indexed": true,
          "internalType": "address",
          "name": "previousOwner",
          "type": "address"
        },
        {
          "indexed": true,
          "internalType": "address",
          "name": "newOwner",
          "type": "address"
        }
      ],
      "name": "OwnershipTransferred",
      "type": "event"
    },
    {
      "inputs": [],
      "name": "DAO",
      "outputs": [
        {
          "internalType": "address",
          "name": "",
          "type": "address"
        }
      ],
      "stateMutability": "view",
      "type": "function"
    },
    {
      "inputs": [],
      "name": "UTOP",
      "outputs": [
        {
          "internalType": "contract IERC20",
          "name": "",
          "type": "address"
        }
      ],
      "stateMutability": "view",
      "type": "function"
    },
    {
      "inputs": [],
      "name": "adjustment",
      "outputs": [
        {
          "internalType": "bool",
          "name": "add",
          "type": "bool"
        },
        {
          "internalType": "uint256",
          "name": "rate",
          "type": "uint256"
        },
        {
          "internalType": "uint256",
          "name": "target",
          "type": "uint256"
        },
        {
          "internalType": "uint32",
          "name": "buffer",
          "type": "uint32"
        },
        {
          "internalType": "uint32",
          "name": "lastTime",
          "type": "uint32"
        }
      ],
      "stateMutability": "view",
      "type": "function"
    },
    {
      "inputs": [
        {
          "internalType": "address",
          "name": "",
          "type": "address"
        }
      ],
      "name": "allowedZappers",
      "outputs": [
        {
          "internalType": "bool",
          "name": "",
          "type": "bool"
        }
      ],
      "stateMutability": "view",
      "type": "function"
    },
    {
      "inputs": [],
      "name": "bondCalculator",
      "outputs": [
        {
          "internalType": "contract IBondCalculator",
          "name": "",
          "type": "address"
        }
      ],
      "stateMutability": "view",
      "type": "function"
    },
    {
      "inputs": [
        {
          "internalType": "address",
          "name": "",
          "type": "address"
        }
      ],
      "name": "bondInfo",
      "outputs": [
        {
          "internalType": "uint256",
          "name": "payout",
          "type": "uint256"
        },
        {
          "internalType": "uint256",
          "name": "pricePaid",
          "type": "uint256"
        },
        {
          "internalType": "uint32",
          "name": "lastTime",
          "type": "uint32"
        },
        {
          "internalType": "uint32",
          "name": "vesting",
          "type": "uint32"
        }
      ],
      "stateMutability": "view",
      "type": "function"
    },
    {
      "inputs": [],
      "name": "claimOwnership",
      "outputs": [],
      "stateMutability": "nonpayable",
      "type": "function"
    },
    {
      "inputs": [],
      "name": "isLiquidityBond",
      "outputs": [
        {
          "internalType": "bool",
          "name": "",
          "type": "bool"
        }
      ],
      "stateMutability": "view",
      "type": "function"
    },
    {
      "inputs": [],
      "name": "lastDecay",
      "outputs": [
        {
          "internalType": "uint32",
          "name": "",
          "type": "uint32"
        }
      ],
      "stateMutability": "view",
      "type": "function"
    },
    {
      "inputs": [],
      "name": "owner",
      "outputs": [
        {
          "internalType": "address",
          "name": "",
          "type": "address"
        }
      ],
      "stateMutability": "view",
      "type": "function"
    },
    {
      "inputs": [],
      "name": "pendingOwner",
      "outputs": [
        {
          "internalType": "address",
          "name": "",
          "type": "address"
        }
      ],
      "stateMutability": "view",
      "type": "function"
    },
    {
      "inputs": [],
      "name": "principle",
      "outputs": [
        {
          "internalType": "contract IERC20",
          "name": "",
          "type": "address"
        }
      ],
      "stateMutability": "view",
      "type": "function"
    },
    {
      "inputs": [],
      "name": "staking",
      "outputs": [
        {
          "internalType": "contract IStaking",
          "name": "",
          "type": "address"
        }
      ],
      "stateMutability": "view",
      "type": "function"
    },
    {
      "inputs": [],
      "name": "stakingHelper",
      "outputs": [
        {
          "internalType": "contract IStakingHelper",
          "name": "",
          "type": "address"
        }
      ],
      "stateMutability": "view",
      "type": "function"
    },
    {
      "inputs": [],
      "name": "terms",
      "outputs": [
        {
          "internalType": "uint256",
          "name": "controlVariable",
          "type": "uint256"
        },
        {
          "internalType": "uint256",
          "name": "minimumPrice",
          "type": "uint256"
        },
        {
          "internalType": "uint256",
          "name": "maxPayout",
          "type": "uint256"
        },
        {
          "internalType": "uint256",
          "name": "fee",
          "type": "uint256"
        },
        {
          "internalType": "uint256",
          "name": "maxDebt",
          "type": "uint256"
        },
        {
          "internalType": "uint32",
          "name": "vestingTerm",
          "type": "uint32"
        }
      ],
      "stateMutability": "view",
      "type": "function"
    },
    {
      "inputs": [],
      "name": "totalDebt",
      "outputs": [
        {
          "internalType": "uint256",
          "name": "",
          "type": "uint256"
        }
      ],
      "stateMutability": "view",
      "type": "function"
    },
    {
      "inputs": [
        {
          "internalType": "address",
          "name": "newOwner",
          "type": "address"
        },
        {
          "internalType": "bool",
          "name": "direct",
          "type": "bool"
        },
        {
          "internalType": "bool",
          "name": "renounce",
          "type": "bool"
        }
      ],
      "name": "transferOwnership",
      "outputs": [],
      "stateMutability": "nonpayable",
      "type": "function"
    },
    {
      "inputs": [],
      "name": "treasury",
      "outputs": [
        {
          "internalType": "contract ITreasury",
          "name": "",
          "type": "address"
        }
      ],
      "stateMutability": "view",
      "type": "function"
    },
    {
      "inputs": [],
      "name": "useHelper",
      "outputs": [
        {
          "internalType": "bool",
          "name": "",
          "type": "bool"
        }
      ],
      "stateMutability": "view",
      "type": "function"
    },
    {
      "inputs": [
        {
          "internalType": "uint256",
          "name": "_controlVariable",
          "type": "uint256"
        },
        {
          "internalType": "uint256",
          "name": "_minimumPrice",
          "type": "uint256"
        },
        {
          "internalType": "uint256",
          "name": "_maxPayout",
          "type": "uint256"
        },
        {
          "internalType": "uint256",
          "name": "_fee",
          "type": "uint256"
        },
        {
          "internalType": "uint256",
          "name": "_maxDebt",
          "type": "uint256"
        },
        {
          "internalType": "uint32",
          "name": "_vestingTerm",
          "type": "uint32"
        }
      ],
      "name": "initializeBondTerms",
      "outputs": [],
      "stateMutability": "nonpayable",
      "type": "function"
    },
    {
      "inputs": [
        {
          "internalType": "enum UtopiaBondDepository.PARAMETER",
          "name": "_parameter",
          "type": "uint8"
        },
        {
          "internalType": "uint256",
          "name": "_input",
          "type": "uint256"
        }
      ],
      "name": "setBondTerms",
      "outputs": [],
      "stateMutability": "nonpayable",
      "type": "function"
    },
    {
      "inputs": [
        {
          "internalType": "bool",
          "name": "_addition",
          "type": "bool"
        },
        {
          "internalType": "uint256",
          "name": "_increment",
          "type": "uint256"
        },
        {
          "internalType": "uint256",
          "name": "_target",
          "type": "uint256"
        },
        {
          "internalType": "uint32",
          "name": "_buffer",
          "type": "uint32"
        }
      ],
      "name": "setAdjustment",
      "outputs": [],
      "stateMutability": "nonpayable",
      "type": "function"
    },
    {
      "inputs": [
        {
          "internalType": "address",
          "name": "_staking",
          "type": "address"
        },
        {
          "internalType": "bool",
          "name": "_helper",
          "type": "bool"
        }
      ],
      "name": "setStaking",
      "outputs": [],
      "stateMutability": "nonpayable",
      "type": "function"
    },
    {
      "inputs": [
        {
          "internalType": "address",
          "name": "zapper",
          "type": "address"
        }
      ],
      "name": "allowZapper",
      "outputs": [],
      "stateMutability": "nonpayable",
      "type": "function"
    },
    {
      "inputs": [
        {
          "internalType": "address",
          "name": "zapper",
          "type": "address"
        }
      ],
      "name": "removeZapper",
      "outputs": [],
      "stateMutability": "nonpayable",
      "type": "function"
    },
    {
      "inputs": [
        {
          "internalType": "uint256",
          "name": "_amount",
          "type": "uint256"
        },
        {
          "internalType": "uint256",
          "name": "_maxPrice",
          "type": "uint256"
        },
        {
          "internalType": "address",
          "name": "_depositor",
          "type": "address"
        }
      ],
      "name": "deposit",
      "outputs": [
        {
          "internalType": "uint256",
          "name": "",
          "type": "uint256"
        }
      ],
      "stateMutability": "nonpayable",
      "type": "function"
    },
    {
      "inputs": [
        {
          "internalType": "address",
          "name": "_recipient",
          "type": "address"
        },
        {
          "internalType": "bool",
          "name": "_stake",
          "type": "bool"
        }
      ],
      "name": "redeem",
      "outputs": [
        {
          "internalType": "uint256",
          "name": "",
          "type": "uint256"
        }
      ],
      "stateMutability": "nonpayable",
      "type": "function"
    },
    {
      "inputs": [],
      "name": "maxPayout",
      "outputs": [
        {
          "internalType": "uint256",
          "name": "",
          "type": "uint256"
        }
      ],
      "stateMutability": "view",
      "type": "function"
    },
    {
      "inputs": [
        {
          "internalType": "uint256",
          "name": "_value",
          "type": "uint256"
        }
      ],
      "name": "payoutFor",
      "outputs": [
        {
          "internalType": "uint256",
          "name": "",
          "type": "uint256"
        }
      ],
      "stateMutability": "view",
      "type": "function"
    },
    {
      "inputs": [],
      "name": "bondPrice",
      "outputs": [
        {
          "internalType": "uint256",
          "name": "price_",
          "type": "uint256"
        }
      ],
      "stateMutability": "view",
      "type": "function"
    },
    {
      "inputs": [],
      "name": "bondPriceInUSD",
      "outputs": [
        {
          "internalType": "uint256",
          "name": "price_",
          "type": "uint256"
        }
      ],
      "stateMutability": "view",
      "type": "function"
    },
    {
      "inputs": [],
      "name": "debtRatio",
      "outputs": [
        {
          "internalType": "uint256",
          "name": "debtRatio_",
          "type": "uint256"
        }
      ],
      "stateMutability": "view",
      "type": "function"
    },
    {
      "inputs": [],
      "name": "standardizedDebtRatio",
      "outputs": [
        {
          "internalType": "uint256",
          "name": "",
          "type": "uint256"
        }
      ],
      "stateMutability": "view",
      "type": "function"
    },
    {
      "inputs": [],
      "name": "currentDebt",
      "outputs": [
        {
          "internalType": "uint256",
          "name": "",
          "type": "uint256"
        }
      ],
      "stateMutability": "view",
      "type": "function"
    },
    {
      "inputs": [],
      "name": "debtDecay",
      "outputs": [
        {
          "internalType": "uint256",
          "name": "decay_",
          "type": "uint256"
        }
      ],
      "stateMutability": "view",
      "type": "function"
    },
    {
      "inputs": [
        {
          "internalType": "address",
          "name": "_depositor",
          "type": "address"
        }
      ],
      "name": "percentVestedFor",
      "outputs": [
        {
          "internalType": "uint256",
          "name": "percentVested_",
          "type": "uint256"
        }
      ],
      "stateMutability": "view",
      "type": "function"
    },
    {
      "inputs": [
        {
          "internalType": "address",
          "name": "_depositor",
          "type": "address"
        }
      ],
      "name": "pendingPayoutFor",
      "outputs": [
        {
          "internalType": "uint256",
          "name": "pendingPayout_",
          "type": "uint256"
        }
      ],
      "stateMutability": "view",
      "type": "function"
    },
    {
      "inputs": [
        {
          "internalType": "contract IERC20",
          "name": "_token",
          "type": "address"
        }
      ],
      "name": "recoverLostToken",
      "outputs": [
        {
          "internalType": "bool",
          "name": "",
          "type": "bool"
        }
      ],
      "stateMutability": "nonpayable",
      "type": "function"
    }
  ],
  "bytecode": "0x6101406040523480156200001257600080fd5b50604051620034fd380380620034fd833981016040819052620000359162000151565b600080546001600160a01b0319163390811782556040519091907f8be0079c531659141344cd1fd0a4f28419497f9722a3daafe3b4186f6b6457e0908290a36001600160a01b0385166200008857600080fd5b6001600160601b0319606086901b166080526001600160a01b038416620000ae57600080fd5b6001600160601b0319606085901b1660a0526001600160a01b038316620000d457600080fd5b6001600160601b0319606084901b1660c0526001600160a01b038216620000fa57600080fd5b6001600160601b0319606092831b811660e0529181901b909116610120526001600160a01b0316151560f81b6101005250620001c0915050565b80516001600160a01b03811681146200014c57600080fd5b919050565b600080600080600060a0868803121562000169578081fd5b620001748662000134565b9450620001846020870162000134565b9350620001946040870162000134565b9250620001a46060870162000134565b9150620001b46080870162000134565b90509295509295909350565b60805160601c60a05160601c60c05160601c60e05160601c6101005160f81c6101205160601c61325f6200029e60003980610e47528061176f5280611b65525080610e1c52806117415280611d9252508061149752806118665280611af4525080610d2452806110a2528061132252806113b65250806104805280610e765280610f2552806110cf52806112b652806112f552806113e5528061179e5280611a1452508061120d528061147552806114d3528061184252806119c25280611bbe5280611e205280611f6e5280612029528061213a525061325f6000f3fe608060405234801561001057600080fd5b50600436106102325760003560e01c80638dbdbe6d11610130578063d4d863ce116100b8578063e0176de81161007c578063e0176de814610449578063e30c397814610451578063e392a26214610459578063f5c2ab5b14610461578063fc7b9c181461047657610232565b8063d4d863ce146103f9578063d50256251461040c578063d796906014610426578063d7ccfb0b1461042e578063dc6549fb1461043657610232565b8063ae9832cf116100ff578063ae9832cf146103a0578063b4abccba146103b3578063c5332b7c146103c6578063cd1234b3146103ce578063cea55f57146103f157610232565b80638dbdbe6d14610375578063904b3ece1461038857806392629c201461039057806398fabd3a1461039857610232565b80634cf088d9116101be578063759076e511610182578063759076e51461034257806377b818951461034a5780637927ebf814610352578063844b5c7c146103655780638da5cb5b1461036d57610232565b80634cf088d9146103045780634e71e0c81461030c578063507930ec1461031457806361d027b31461032757806363b3256b1461032f57610232565b80631ed2d71a116102055780631ed2d71a1461029d5780631feed31f146102b05780632f3f470a146102c3578063309bf24b146102d8578063451ee4a1146102eb57610232565b8063016a42841461023757806301b88ee814610255578063078dfbe7146102755780631e321a0f1461028a575b600080fd5b61023f61047e565b60405161024c9190612a9f565b60405180910390f35b61026861026336600461287f565b6104a2565b60405161024c919061310d565b6102886102833660046128da565b6104fa565b005b610288610298366004612987565b6105e9565b6102886102ab36600461287f565b610759565b6102686102be3660046128a2565b6107a4565b6102cb610a17565b60405161024c9190612af0565b6102886102e6366004612a12565b610a27565b6102f3610bb1565b60405161024c959493929190612afb565b61023f610bd7565b610288610be6565b61026861032236600461287f565b610c73565b61023f610d22565b61028861033d36600461287f565b610d46565b610268610dba565b61023f610dd6565b6102686103603660046129b5565b610de5565b610268610e18565b61023f610fcf565b6102686103833660046129e5565b610fde565b61026861173d565b61023f611840565b61023f611864565b6102886103ae366004612940565b611888565b6102cb6103c136600461287f565b6119be565b61023f611b63565b6103e16103dc36600461287f565b611b87565b60405161024c94939291906131a5565b610268611bb9565b6102886104073660046128a2565b611c82565b610414611d75565b60405161024c96959493929190613177565b6102cb611d90565b610268611db4565b6102cb61044436600461287f565b611dfa565b610268611e0f565b61023f611eaf565b610268611ebe565b610469611f1a565b60405161024c91906131c9565b610268611f26565b7f000000000000000000000000000000000000000000000000000000000000000081565b6000806104ae83610c73565b6001600160a01b0384166000908152600e602052604090205490915061271082106104db578092506104f3565b6127106104e88284611f2c565b816104ef57fe5b0492505b5050919050565b6000546001600160a01b0316331461052d5760405162461bcd60e51b815260040161052490612ddf565b60405180910390fd5b81156105c8576001600160a01b0383161515806105475750805b6105635760405162461bcd60e51b815260040161052490612c77565b600080546040516001600160a01b03808716939216917f8be0079c531659141344cd1fd0a4f28419497f9722a3daafe3b4186f6b6457e091a3600080546001600160a01b0385166001600160a01b0319918216179091556001805490911690556105e4565b600180546001600160a01b0319166001600160a01b0385161790555b505050565b6000546001600160a01b031633146106135760405162461bcd60e51b815260040161052490612ddf565b600082600481111561062157fe5b1415610664576201fa4081101561064a5760405162461bcd60e51b815260040161052490612e57565b6009805463ffffffff191663ffffffff831617905561071c565b600182600481111561067257fe5b14156106a4576103e881111561069a5760405162461bcd60e51b815260040161052490612c42565b600681905561071c565b60028260048111156106b257fe5b14156106e4576127108111156106da5760405162461bcd60e51b815260040161052490612b74565b600781905561071c565b60038260048111156106f257fe5b141561070257600881905561071c565b600482600481111561071057fe5b141561071c5760058190555b7f4e3705d256225a38255bfb7114e7fa4b6b2939ab1f71639f57e06928858646c5828260405161074d929190612b29565b60405180910390a15050565b6000546001600160a01b031633146107835760405162461bcd60e51b815260040161052490612ddf565b6001600160a01b03166000908152601160205260409020805460ff19169055565b6000336001600160a01b038416146107ce5760405162461bcd60e51b815260040161052490612fcb565b6107d6612825565b506001600160a01b0383166000908152600e602090815260408083208151608081018352815481526001820154938101939093526002015463ffffffff80821692840192909252600160201b90041660608201529061083485610c73565b905061271081106108c4576001600160a01b0385166000818152600e602052604080822082815560018101839055600201805467ffffffffffffffff19169055845190517f51c99f515c87b0d95ba97f616edd182e8f161c4932eac17c6fefe9dab58b77b1926108a4929161314c565b60405180910390a26108bb85858460000151611f50565b92505050610a11565b8151600090612710906108d79084611f2c565b816108de57fe5b049050604051806080016040528061090383866000015161225590919063ffffffff16565b8152602001846020015181526020014263ffffffff16815260200161095761093e86604001514263ffffffff1661226590919063ffffffff16565b866060015163ffffffff1661226590919063ffffffff16565b63ffffffff9081169091526001600160a01b0388166000818152600e6020908152604091829020855180825591860151600182015585830151600290910180546060909701518616600160201b0267ffffffff00000000199290961663ffffffff1990971696909617169390931790935591517f51c99f515c87b0d95ba97f616edd182e8f161c4932eac17c6fefe9dab58b77b1916109f89185919061314c565b60405180910390a2610a0b868683611f50565b93505050505b92915050565b600354600160a01b900460ff1681565b6000546001600160a01b03163314610a515760405162461bcd60e51b815260040161052490612ddf565b60045415610a715760405162461bcd60e51b815260040161052490612f51565b6028861015610a925760405162461bcd60e51b815260040161052490612f24565b6103e8841115610ab45760405162461bcd60e51b815260040161052490612c42565b6201fa408163ffffffff161015610add5760405162461bcd60e51b815260040161052490612e57565b612710831115610aff5760405162461bcd60e51b815260040161052490612b74565b6040805160c08101825287815260208101879052808201869052606081018590526080810184905263ffffffff83811660a0909201829052600489815560058990556006889055600787905560088690556009805463ffffffff19908116909417905560108054909316429092169190911790915590517f0df16b6e9edd2420312d801992c90082fdf3061dc551178c6f5d504e381a20fc91610ba1916130ca565b60405180910390a1505050505050565b600a54600b54600c54600d5460ff9093169263ffffffff80821691600160201b90041685565b6002546001600160a01b031681565b6001546001600160a01b0316338114610c115760405162461bcd60e51b815260040161052490612eef565b600080546040516001600160a01b03808516939216917f8be0079c531659141344cd1fd0a4f28419497f9722a3daafe3b4186f6b6457e091a3600080546001600160a01b039092166001600160a01b0319928316179055600180549091169055565b6000610c7d612825565b506001600160a01b0382166000908152600e602090815260408083208151608081018352815481526001820154938101939093526002015463ffffffff808216928401839052600160201b90910481166060840152919291610ce3914282169161226516565b606083015163ffffffff9182169250168015610d155780610d0683612710611f2c565b81610d0d57fe5b049350610d1a565b600093505b505050919050565b7f000000000000000000000000000000000000000000000000000000000000000081565b6000546001600160a01b03163314610d705760405162461bcd60e51b815260040161052490612ddf565b6001600160a01b038116610d965760405162461bcd60e51b815260040161052490612ed2565b6001600160a01b03166000908152601160205260409020805460ff19166001179055565b6000610dd0610dc7611ebe565b600f5490612255565b90505b90565b6003546001600160a01b031681565b6000662386f26fc10000610e08610e0384610dfe611db4565b61227e565b61236c565b81610e0f57fe5b0490505b919050565b60007f000000000000000000000000000000000000000000000000000000000000000015610f1e576064610f0f7f00000000000000000000000000000000000000000000000000000000000000006001600160a01b03166332da80a37f00000000000000000000000000000000000000000000000000000000000000006040518263ffffffff1660e01b8152600401610eb19190612a9f565b60206040518083038186803b158015610ec957600080fd5b505afa158015610edd573d6000803e3d6000fd5b505050506040513d601f19601f82011682018060405250810190610f0191906129cd565b610f09611db4565b90611f2c565b81610f1657fe5b049050610dd3565b6064610fc27f00000000000000000000000000000000000000000000000000000000000000006001600160a01b031663313ce5676040518163ffffffff1660e01b815260040160206040518083038186803b158015610f7c57600080fd5b505afa158015610f90573d6000803e3d6000fd5b505050506040513d601f19601f82011682018060405250810190610fb49190612a62565b60ff16600a0a610f09611db4565b81610fc957fe5b04905090565b6000546001600160a01b031681565b60006001600160a01b0382166110065760405162461bcd60e51b815260040161052490612be2565b336001600160a01b038316148061102c57503360009081526011602052604090205460ff165b6110485760405162461bcd60e51b81526004016105249061301e565b611050612388565b600061105a610e18565b905060006110666123ad565b9050808510156110885760405162461bcd60e51b815260040161052490612e14565b604051630f762d4d60e11b81526000906001600160a01b037f00000000000000000000000000000000000000000000000000000000000000001690631eec5a9a906110f9907f0000000000000000000000000000000000000000000000000000000000000000908b90600401612ad7565b60206040518083038186803b15801561111157600080fd5b505afa158015611125573d6000803e3d6000fd5b505050506040513d601f19601f8201168201806040525081019061114991906129cd565b9050600061115682610de5565b600854600f549192509061116a90846123f6565b11156111885760405162461bcd60e51b815260040161052490612d36565b629896808110156111ab5760405162461bcd60e51b815260040161052490612d9b565b6111b3611e0f565b8111156111d25760405162461bcd60e51b815260040161052490612fa3565b600754600090612710906111e7908490611f2c565b816111ee57fe5b0490506000611207826112018686612255565b90612255565b905060007f00000000000000000000000000000000000000000000000000000000000000006001600160a01b03166370a08231306040518263ffffffff1660e01b81526004016112579190612a9f565b60206040518083038186803b15801561126f57600080fd5b505afa158015611283573d6000803e3d6000fd5b505050506040513d601f19601f820116820180604052508101906112a791906129cd565b90506112de6001600160a01b037f00000000000000000000000000000000000000000000000000000000000000001633308e612406565b60405163095ea7b360e01b81526001600160a01b037f0000000000000000000000000000000000000000000000000000000000000000169063095ea7b39061134c907f0000000000000000000000000000000000000000000000000000000000000000908f90600401612ad7565b602060405180830381600087803b15801561136657600080fd5b505af115801561137a573d6000803e3d6000fd5b505050506040513d601f19601f8201168201806040525081019061139e9190612924565b5060405163bc157ac160e01b81526001600160a01b037f0000000000000000000000000000000000000000000000000000000000000000169063bc157ac19061140f908e907f000000000000000000000000000000000000000000000000000000000000000090879060040161312d565b602060405180830381600087803b15801561142957600080fd5b505af115801561143d573d6000803e3d6000fd5b505050506040513d601f19601f820116820180604052508101906114619190612924565b5082156114bc576114bc6001600160a01b037f0000000000000000000000000000000000000000000000000000000000000000167f000000000000000000000000000000000000000000000000000000000000000085612464565b6040516370a0823160e01b81526001600160a01b037f000000000000000000000000000000000000000000000000000000000000000016906370a0823190611508903090600401612a9f565b60206040518083038186803b15801561152057600080fd5b505afa158015611534573d6000803e3d6000fd5b505050506040513d601f19601f8201168201806040525081019061155891906129cd565b61156282846123f6565b1461157f5760405162461bcd60e51b815260040161052490612c0b565b600f5461158c90866123f6565b600f55604080516080810182526001600160a01b038b166000908152600e602052919091205481906115be90876123f6565b81526020018881526020014263ffffffff168152602001600460050160009054906101000a900463ffffffff1663ffffffff16815250600e60008b6001600160a01b03166001600160a01b03168152602001908152602001600020600082015181600001556020820151816001015560408201518160020160006101000a81548163ffffffff021916908363ffffffff16021790555060608201518160020160046101000a81548163ffffffff021916908363ffffffff160217905550905050866116ad600460050160009054906101000a900463ffffffff1663ffffffff16426123f690919063ffffffff16565b857f1fec6dc81f140574bf43f6b1e420ae1dd47928b9d57db8cbd7b8611063b85ae58e6040516116dd919061310d565b60405180910390a46116ed611bb9565b6116f56123ad565b6116fd610e18565b6040517f375b221f40939bfd8f49723a17cf7bc6d576ebf72efe2cc3e991826f5b3f390a90600090a461172e612483565b50919998505050505050505050565b60007f00000000000000000000000000000000000000000000000000000000000000001561183157633b9aca00610f0f7f00000000000000000000000000000000000000000000000000000000000000006001600160a01b03166332da80a37f00000000000000000000000000000000000000000000000000000000000000006040518263ffffffff1660e01b81526004016117d99190612a9f565b60206040518083038186803b1580156117f157600080fd5b505afa158015611805573d6000803e3d6000fd5b505050506040513d601f19601f8201168201806040525081019061182991906129cd565b610f09611bb9565b611839611bb9565b9050610dd3565b7f000000000000000000000000000000000000000000000000000000000000000081565b7f000000000000000000000000000000000000000000000000000000000000000081565b6000546001600160a01b031633146118b25760405162461bcd60e51b815260040161052490612ddf565b6004546103e8906118c4906019611f2c565b816118cb57fe5b048311156118eb5760405162461bcd60e51b815260040161052490612cec565b602882101561190c5760405162461bcd60e51b815260040161052490612bab565b6040805160a0810182528515158082526020820186905281830185905263ffffffff84811660608401819052429091166080909301839052600a805460ff19169092178255600b879055600c869055600d805463ffffffff191690911767ffffffff000000001916600160201b9093029290921790915590517f12e0d895835c5636a844b2d6d6e82e6b0e5e7df951b7beb2dcb89eb46ddb875e916119b091613086565b60405180910390a150505050565b60007f00000000000000000000000000000000000000000000000000000000000000006001600160a01b0316826001600160a01b03161415611a125760405162461bcd60e51b815260040161052490612f86565b7f00000000000000000000000000000000000000000000000000000000000000006001600160a01b0316826001600160a01b03161415611a645760405162461bcd60e51b815260040161052490612d19565b6040516370a0823160e01b81526000906001600160a01b038416906370a0823190611a93903090600401612a9f565b60206040518083038186803b158015611aab57600080fd5b505afa158015611abf573d6000803e3d6000fd5b505050506040513d601f19601f82011682018060405250810190611ae391906129cd565b9050611b196001600160a01b0384167f000000000000000000000000000000000000000000000000000000000000000083612464565b826001600160a01b03167f11f0a001971cc33b9a8651a3368b34900c22a665504b5cabc3e0e9fdf59d984682604051611b52919061310d565b60405180910390a250600192915050565b7f000000000000000000000000000000000000000000000000000000000000000081565b600e6020526000908152604090208054600182015460029092015490919063ffffffff80821691600160201b90041684565b6000807f00000000000000000000000000000000000000000000000000000000000000006001600160a01b03166318160ddd6040518163ffffffff1660e01b815260040160206040518083038186803b158015611c1557600080fd5b505afa158015611c29573d6000803e3d6000fd5b505050506040513d601f19601f82011682018060405250810190611c4d91906129cd565b9050670de0b6b3a7640000611c74610e03611c6e633b9aca00610f09610dba565b8461227e565b81611c7b57fe5b0491505090565b6000546001600160a01b03163314611cac5760405162461bcd60e51b815260040161052490612ddf565b6001600160a01b038216611cd25760405162461bcd60e51b815260040161052490612dc3565b8015611d075760038054600160a01b60ff60a01b19909116176001600160a01b0319166001600160a01b038416179055611d30565b6003805460ff60a01b19169055600280546001600160a01b0319166001600160a01b0384161790555b816001600160a01b03167f9618307401872b2d1dc9c414b9568d81ab7cdf31913dbbcbcc296036b4a6a35782604051611d699190612af0565b60405180910390a25050565b60045460055460065460075460085460095463ffffffff1686565b7f000000000000000000000000000000000000000000000000000000000000000081565b600062989680611ddc633b9aca00611dd6611dcd611bb9565b60045490611f2c565b906123f6565b81611de357fe5b049050600460010154811015610dd3575060055490565b60116020526000908152604090205460ff1681565b6000620186a0610fc26004600201547f00000000000000000000000000000000000000000000000000000000000000006001600160a01b03166318160ddd6040518163ffffffff1660e01b815260040160206040518083038186803b158015611e7757600080fd5b505afa158015611e8b573d6000803e3d6000fd5b505050506040513d601f19601f82011682018060405250810190610f0991906129cd565b6001546001600160a01b031681565b6010546000908190611edc9063ffffffff4281169181169061226516565b600954600f5491925063ffffffff90811691611efc9180851690611f2c16565b81611f0357fe5b049150600f54821115611f1657600f5491505b5090565b60105463ffffffff1681565b600f5481565b6000821580611f4757505081810281838281611f4457fe5b04145b610a1157600080fd5b600082611ffd5760405163a9059cbb60e01b81526001600160a01b037f0000000000000000000000000000000000000000000000000000000000000000169063a9059cbb90611fa59087908690600401612ad7565b602060405180830381600087803b158015611fbf57600080fd5b505af1158015611fd3573d6000803e3d6000fd5b505050506040513d601f19601f82011682018060405250810190611ff79190612924565b5061224e565b600354600160a01b900460ff16156121205760035460405163095ea7b360e01b81526001600160a01b037f000000000000000000000000000000000000000000000000000000000000000081169263095ea7b3926120649291909116908690600401612ad7565b602060405180830381600087803b15801561207e57600080fd5b505af1158015612092573d6000803e3d6000fd5b505050506040513d601f19601f820116820180604052508101906120b69190612924565b50600354604051637acb775760e01b81526001600160a01b0390911690637acb7757906120e99085908890600401613116565b600060405180830381600087803b15801561210357600080fd5b505af1158015612117573d6000803e3d6000fd5b5050505061224e565b60025460405163095ea7b360e01b81526001600160a01b037f000000000000000000000000000000000000000000000000000000000000000081169263095ea7b3926121759291909116908690600401612ad7565b602060405180830381600087803b15801561218f57600080fd5b505af11580156121a3573d6000803e3d6000fd5b505050506040513d601f19601f820116820180604052508101906121c79190612924565b50600254604051637acb775760e01b81526001600160a01b0390911690637acb7757906121fa9085908890600401613116565b602060405180830381600087803b15801561221457600080fd5b505af1158015612228573d6000803e3d6000fd5b505050506040513d601f19601f8201168201806040525081019061224c9190612924565b505b5092915050565b80820382811115610a1157600080fd5b80820363ffffffff8084169082161115610a1157600080fd5b612286612859565b600082116122a65760405162461bcd60e51b815260040161052490612ca6565b826122c05750604080516020810190915260008152610a11565b71ffffffffffffffffffffffffffffffffffff831161233257600082607085901b816122e857fe5b0490506001600160e01b038111156123125760405162461bcd60e51b815260040161052490612e9b565b6040518060200160405280826001600160e01b0316815250915050610a11565b600061234384600160701b85612594565b90506001600160e01b038111156123125760405162461bcd60e51b815260040161052490612e9b565b80516000906612725dd1d243ab906001600160e01b0316610e0f565b612393610dc7611ebe565b600f556010805463ffffffff19164263ffffffff16179055565b6000629896806123c6633b9aca00611dd6611dcd611bb9565b816123cd57fe5b0490506004600101548110156123e65750600554610dd3565b60055415610dd357600060055590565b80820182811015610a1157600080fd5b61245e846323b872dd60e01b85858560405160240161242793929190612ab3565b60408051601f198184030181529190526020810180516001600160e01b03166001600160e01b0319909316929092179091526125ff565b50505050565b6105e48363a9059cbb60e01b8484604051602401612427929190612ad7565b600d546000906124a59063ffffffff600160201b820481169181169061268e16565b63ffffffff169050600a600101546000141580156124c35750804210155b1561259157600454600a54819060ff161561250157600b546124e69082906123f6565b600c5490915081106124fc57506000600b55600c545b612525565b600b5461250f908290612255565b600c54909150811161252557506000600b55600c545b6004819055600d805467ffffffff000000001916600160201b4263ffffffff1602179055600b54600a546040517fb923e581a0f83128e9e1d8297aa52b18d6744310476e0b54509c054cd7a93b2a9261258692869286929160ff169061315a565b60405180910390a150505b50565b60008060006125a386866126a7565b91509150600084806125b157fe5b8688099050828111156125c5576001820391505b80830392508482106125e95760405162461bcd60e51b815260040161052490612d64565b6125f48383876126d4565b979650505050505050565b6060612654826040518060400160405280602081526020017f5361666545524332303a206c6f772d6c6576656c2063616c6c206661696c6564815250856001600160a01b03166127449092919063ffffffff16565b8051909150156105e457808060200190518101906126729190612924565b6105e45760405162461bcd60e51b81526004016105249061303c565b80820163ffffffff8084169082161015610a1157600080fd5b60008080600019848609905083850292508281039150828110156126cc576001820391505b509250929050565b600081810382168083816126e457fe5b0492508085816126f057fe5b0494508081600003816126ff57fe5b60028581038087028203028087028203028087028203028087028203028087028203028087028203029586029003909402930460010193909302939093010292915050565b6060612753848460008561275b565b949350505050565b60606127668561281f565b6127825760405162461bcd60e51b815260040161052490612fe7565b60006060866001600160a01b0316858760405161279f9190612a83565b60006040518083038185875af1925050503d80600081146127dc576040519150601f19603f3d011682016040523d82523d6000602084013e6127e1565b606091505b509150915081156127f55791506127539050565b8051156128055780518082602001fd5b8360405162461bcd60e51b81526004016105249190612b41565b3b151590565b60405180608001604052806000815260200160008152602001600063ffffffff168152602001600063ffffffff1681525090565b60408051602081019091526000815290565b803563ffffffff81168114610e1357600080fd5b600060208284031215612890578081fd5b813561289b81613206565b9392505050565b600080604083850312156128b4578081fd5b82356128bf81613206565b915060208301356128cf8161321b565b809150509250929050565b6000806000606084860312156128ee578081fd5b83356128f981613206565b925060208401356129098161321b565b915060408401356129198161321b565b809150509250925092565b600060208284031215612935578081fd5b815161289b8161321b565b60008060008060808587031215612955578081fd5b84356129608161321b565b9350602085013592506040850135915061297c6060860161286b565b905092959194509250565b60008060408385031215612999578182fd5b8235600581106129a7578283fd5b946020939093013593505050565b6000602082840312156129c6578081fd5b5035919050565b6000602082840312156129de578081fd5b5051919050565b6000806000606084860312156129f9578283fd5b8335925060208401359150604084013561291981613206565b60008060008060008060c08789031215612a2a578182fd5b8635955060208701359450604087013593506060870135925060808701359150612a5660a0880161286b565b90509295509295509295565b600060208284031215612a73578081fd5b815160ff8116811461289b578182fd5b60008251612a958184602087016131da565b9190910192915050565b6001600160a01b0391909116815260200190565b6001600160a01b039384168152919092166020820152604081019190915260600190565b6001600160a01b03929092168252602082015260400190565b901515815260200190565b94151585526020850193909352604084019190915263ffffffff908116606084015216608082015260a00190565b6040810160058410612b3757fe5b9281526020015290565b6000602082528251806020840152612b608160408501602087016131da565b601f01601f19169190910160400192915050565b6020808252601c908201527f44414f206665652063616e6e6f7420657863656564207061796f757400000000604082015260600190565b6020808252601f908201527f4e6578742041646a7573746d656e7420636f756c64206265206c6f636b656400604082015260600190565b6020808252600f908201526e496e76616c6964206164647265737360881b604082015260600190565b6020808252601f908201527f4e6f7420656e6f7567682054696d6520746f20636f7665722070726f66697400604082015260600190565b6020808252818101527f5061796f75742063616e6e6f742062652061626f766520312070657263656e74604082015260600190565b6020808252601590820152744f776e61626c653a207a65726f206164647265737360581b604082015260600190565b60208082526026908201527f4669786564506f696e743a3a6672616374696f6e3a206469766973696f6e206260408201526579207a65726f60d01b606082015260800190565b602080825260139082015272496e6372656d656e7420746f6f206c6172676560681b604082015260600190565b60208082526003908201526204e41560ec1b604082015260600190565b60208082526014908201527313585e0818d85c1858da5d1e481c995858da195960621b604082015260600190565b6020808252601a908201527f46756c6c4d6174683a3a6d756c4469763a206f766572666c6f77000000000000604082015260600190565b6020808252600e908201526d109bdb99081d1bdbc81cdb585b1b60921b604082015260600190565b602080825260029082015261494160f01b604082015260600190565b6020808252818101527f4f776e61626c653a2063616c6c6572206973206e6f7420746865206f776e6572604082015260600190565b60208082526023908201527f536c697070616765206c696d69743a206d6f7265207468616e206d617820707260408201526269636560e81b606082015260800190565b60208082526024908201527f56657374696e67206d757374206265206c6f6e676572207468616e20333620686040820152636f75727360e01b606082015260800190565b6020808252601e908201527f4669786564506f696e743a3a6672616374696f6e3a206f766572666c6f770000604082015260600190565b6020808252600390820152625a4e4160e81b604082015260600190565b6020808252818101527f4f776e61626c653a2063616c6c657220213d2070656e64696e67206f776e6572604082015260600190565b60208082526013908201527210d85b881b1bd8dac818591a9d5cdd1b595b9d606a1b604082015260600190565b6020808252818101527f426f6e6473206d75737420626520696e697469616c697a65642066726f6d2030604082015260600190565b60208082526003908201526213905560ea1b604082015260600190565b6020808252600e908201526d426f6e6420746f6f206c6172676560901b604082015260600190565b6020808252600290820152614e4160f01b604082015260600190565b6020808252601d908201527f416464726573733a2063616c6c20746f206e6f6e2d636f6e7472616374000000604082015260600190565b6020808252600490820152634c464e4160e01b604082015260600190565b6020808252602a908201527f5361666545524332303a204552433230206f7065726174696f6e20646964206e6040820152691bdd081cdd58d8d9595960b21b606082015260800190565b815460ff161515815260018201546020808301919091526002830154604083015260039092015463ffffffff8082166060840152921c909116608082015260a00190565b815481526001820154602082015260028201546040820152600382015460608201526004820154608082015260059091015463ffffffff1660a082015260c00190565b90815260200190565b9182526001600160a01b0316602082015260400190565b9283526001600160a01b03919091166020830152604082015260600190565b918252602082015260400190565b938452602084019290925260408301521515606082015260800190565b958652602086019490945260408501929092526060840152608083015263ffffffff1660a082015260c00190565b938452602084019290925263ffffffff908116604084015216606082015260800190565b63ffffffff91909116815260200190565b60005b838110156131f55781810151838201526020016131dd565b8381111561245e5750506000910152565b6001600160a01b038116811461259157600080fd5b801515811461259157600080fdfea264697066735822122060172e9ad3f008726d46db36ce8f0c85b58ad1342f02990208853ddea0d2701164736f6c63430007050033",
  "immutableReferences": {
    "1513": [
      {
        "length": 32,
        "start": 4621
      },
      {
        "length": 32,
        "start": 5237
      },
      {
        "length": 32,
        "start": 5331
      },
      {
        "length": 32,
        "start": 6210
      },
      {
        "length": 32,
        "start": 6594
      },
      {
        "length": 32,
        "start": 7102
      },
      {
        "length": 32,
        "start": 7712
      },
      {
        "length": 32,
        "start": 8046
      },
      {
        "length": 32,
        "start": 8233
      },
      {
        "length": 32,
        "start": 8506
      }
    ],
    "1515": [
      {
        "length": 32,
        "start": 1152
      },
      {
        "length": 32,
        "start": 3702
      },
      {
        "length": 32,
        "start": 3877
      },
      {
        "length": 32,
        "start": 4303
      },
      {
        "length": 32,
        "start": 4790
      },
      {
        "length": 32,
        "start": 4853
      },
      {
        "length": 32,
        "start": 5093
      },
      {
        "length": 32,
        "start": 6046
      },
      {
        "length": 32,
        "start": 6676
      }
    ],
    "1517": [
      {
        "length": 32,
        "start": 3364
      },
      {
        "length": 32,
        "start": 4258
      },
      {
        "length": 32,
        "start": 4898
      },
      {
        "length": 32,
        "start": 5046
      }
    ],
    "1519": [
      {
        "length": 32,
        "start": 5271
      },
      {
        "length": 32,
        "start": 6246
      },
      {
        "length": 32,
        "start": 6900
      }
    ],
    "1521": [
      {
        "length": 32,
        "start": 3612
      },
      {
        "length": 32,
        "start": 5953
      },
      {
        "length": 32,
        "start": 7570
      }
    ],
    "1523": [
      {
        "length": 32,
        "start": 3655
      },
      {
        "length": 32,
        "start": 5999
      },
      {
        "length": 32,
        "start": 7013
      }
    ]
  },
  "source": "// SPDX-License-Identifier: AGPL-3.0-or-later\npragma solidity 0.7.5;\npragma abicoder v2;\n\ninterface IOwnable {\n  function policy() external view returns (address);\n\n  function renounceManagement() external;\n  \n  function pushManagement( address newOwner_ ) external;\n  \n  function pullManagement() external;\n}\n\ncontract OwnableData {\n    address public owner;\n    address public pendingOwner;\n}\n\ncontract Ownable is OwnableData {\n    event OwnershipTransferred(address indexed previousOwner, address indexed newOwner);\n\n    /// @notice `owner` defaults to msg.sender on construction.\n    constructor() {\n        owner = msg.sender;\n        emit OwnershipTransferred(address(0), msg.sender);\n    }\n\n    /// @notice Transfers ownership to `newOwner`. Either directly or claimable by the new pending owner.\n    /// Can only be invoked by the current `owner`.\n    /// @param newOwner Address of the new owner.\n    /// @param direct True if `newOwner` should be set immediately. False if `newOwner` needs to use `claimOwnership`.\n    /// @param renounce Allows the `newOwner` to be `address(0)` if `direct` and `renounce` is True. Has no effect otherwise.\n    function transferOwnership(\n        address newOwner,\n        bool direct,\n        bool renounce\n    ) public onlyOwner {\n        if (direct) {\n            // Checks\n            require(newOwner != address(0) || renounce, \"Ownable: zero address\");\n\n            // Effects\n            emit OwnershipTransferred(owner, newOwner);\n            owner = newOwner;\n            pendingOwner = address(0);\n        } else {\n            // Effects\n            pendingOwner = newOwner;\n        }\n    }\n\n    /// @notice Needs to be called by `pendingOwner` to claim ownership.\n    function claimOwnership() public {\n        address _pendingOwner = pendingOwner;\n\n        // Checks\n        require(msg.sender == _pendingOwner, \"Ownable: caller != pending owner\");\n\n        // Effects\n        emit OwnershipTransferred(owner, _pendingOwner);\n        owner = _pendingOwner;\n        pendingOwner = address(0);\n    }\n\n    /// @notice Only allows the `owner` to execute the function.\n    modifier onlyOwner() {\n        require(msg.sender == owner, \"Ownable: caller is not the owner\");\n        _;\n    }\n}\n\nlibrary LowGasSafeMath {\n    /// @notice Returns x + y, reverts if sum overflows uint256\n    /// @param x The augend\n    /// @param y The addend\n    /// @return z The sum of x and y\n    function add(uint256 x, uint256 y) internal pure returns (uint256 z) {\n        require((z = x + y) >= x);\n    }\n\n    function add32(uint32 x, uint32 y) internal pure returns (uint32 z) {\n        require((z = x + y) >= x);\n    }\n\n    /// @notice Returns x - y, reverts if underflows\n    /// @param x The minuend\n    /// @param y The subtrahend\n    /// @return z The difference of x and y\n    function sub(uint256 x, uint256 y) internal pure returns (uint256 z) {\n        require((z = x - y) <= x);\n    }\n\n    function sub32(uint32 x, uint32 y) internal pure returns (uint32 z) {\n        require((z = x - y) <= x);\n    }\n\n    /// @notice Returns x * y, reverts if overflows\n    /// @param x The multiplicand\n    /// @param y The multiplier\n    /// @return z The product of x and y\n    function mul(uint256 x, uint256 y) internal pure returns (uint256 z) {\n        require(x == 0 || (z = x * y) / x == y);\n    }\n\n    /// @notice Returns x + y, reverts if overflows or underflows\n    /// @param x The augend\n    /// @param y The addend\n    /// @return z The sum of x and y\n    function add(int256 x, int256 y) internal pure returns (int256 z) {\n        require((z = x + y) >= x == (y >= 0));\n    }\n\n    /// @notice Returns x - y, reverts if overflows or underflows\n    /// @param x The minuend\n    /// @param y The subtrahend\n    /// @return z The difference of x and y\n    function sub(int256 x, int256 y) internal pure returns (int256 z) {\n        require((z = x - y) <= x == (y >= 0));\n    }\n}\n\nlibrary Address {\n\n    function isContract(address account) internal view returns (bool) {\n\n        uint256 size;\n        // solhint-disable-next-line no-inline-assembly\n        assembly { size := extcodesize(account) }\n        return size > 0;\n    }\n\n    function sendValue(address payable recipient, uint256 amount) internal {\n        require(address(this).balance >= amount, \"Address: insufficient balance\");\n\n        // solhint-disable-next-line avoid-low-level-calls, avoid-call-value\n        (bool success, ) = recipient.call{ value: amount }(\"\");\n        require(success, \"Address: unable to send value, recipient may have reverted\");\n    }\n\n    function functionCall(address target, bytes memory data) internal returns (bytes memory) {\n      return functionCall(target, data, \"Address: low-level call failed\");\n    }\n\n    function functionCall(\n        address target, \n        bytes memory data, \n        string memory errorMessage\n    ) internal returns (bytes memory) {\n        return _functionCallWithValue(target, data, 0, errorMessage);\n    }\n\n    function functionCallWithValue(address target, bytes memory data, uint256 value) internal returns (bytes memory) {\n        return functionCallWithValue(target, data, value, \"Address: low-level call with value failed\");\n    }\n\n    function functionCallWithValue(\n        address target, \n        bytes memory data, \n        uint256 value, \n        string memory errorMessage\n    ) internal returns (bytes memory) {\n        require(address(this).balance >= value, \"Address: insufficient balance for call\");\n        require(isContract(target), \"Address: call to non-contract\");\n\n        // solhint-disable-next-line avoid-low-level-calls\n        (bool success, bytes memory returndata) = target.call{ value: value }(data);\n        return _verifyCallResult(success, returndata, errorMessage);\n    }\n\n    function _functionCallWithValue(\n        address target, \n        bytes memory data, \n        uint256 weiValue, \n        string memory errorMessage\n    ) private returns (bytes memory) {\n        require(isContract(target), \"Address: call to non-contract\");\n\n        // solhint-disable-next-line avoid-low-level-calls\n        (bool success, bytes memory returndata) = target.call{ value: weiValue }(data);\n        if (success) {\n            return returndata;\n        } else {\n            // Look for revert reason and bubble it up if present\n            if (returndata.length > 0) {\n                // The easiest way to bubble the revert reason is using memory via assembly\n\n                // solhint-disable-next-line no-inline-assembly\n                assembly {\n                    let returndata_size := mload(returndata)\n                    revert(add(32, returndata), returndata_size)\n                }\n            } else {\n                revert(errorMessage);\n            }\n        }\n    }\n\n    function functionStaticCall(address target, bytes memory data) internal view returns (bytes memory) {\n        return functionStaticCall(target, data, \"Address: low-level static call failed\");\n    }\n\n    function functionStaticCall(\n        address target, \n        bytes memory data, \n        string memory errorMessage\n    ) internal view returns (bytes memory) {\n        require(isContract(target), \"Address: static call to non-contract\");\n\n        // solhint-disable-next-line avoid-low-level-calls\n        (bool success, bytes memory returndata) = target.staticcall(data);\n        return _verifyCallResult(success, returndata, errorMessage);\n    }\n\n    function functionDelegateCall(address target, bytes memory data) internal returns (bytes memory) {\n        return functionDelegateCall(target, data, \"Address: low-level delegate call failed\");\n    }\n\n    function functionDelegateCall(\n        address target, \n        bytes memory data, \n        string memory errorMessage\n    ) internal returns (bytes memory) {\n        require(isContract(target), \"Address: delegate call to non-contract\");\n\n        // solhint-disable-next-line avoid-low-level-calls\n        (bool success, bytes memory returndata) = target.delegatecall(data);\n        return _verifyCallResult(success, returndata, errorMessage);\n    }\n\n    function _verifyCallResult(\n        bool success, \n        bytes memory returndata, \n        string memory errorMessage\n    ) private pure returns(bytes memory) {\n        if (success) {\n            return returndata;\n        } else {\n            if (returndata.length > 0) {\n\n                assembly {\n                    let returndata_size := mload(returndata)\n                    revert(add(32, returndata), returndata_size)\n                }\n            } else {\n                revert(errorMessage);\n            }\n        }\n    }\n\n    function addressToString(address _address) internal pure returns(string memory) {\n        bytes32 _bytes = bytes32(uint256(uint160(_address)));\n        bytes memory HEX = \"0123456789abcdef\";\n        bytes memory _addr = new bytes(42);\n\n        _addr[0] = '0';\n        _addr[1] = 'x';\n\n        for(uint256 i = 0; i < 20; i++) {\n            _addr[2+i*2] = HEX[uint8(_bytes[i + 12] >> 4)];\n            _addr[3+i*2] = HEX[uint8(_bytes[i + 12] & 0x0f)];\n        }\n\n        return string(_addr);\n\n    }\n}\ninterface IERC20 {\n    function decimals() external view returns (uint8);\n\n    function totalSupply() external view returns (uint256);\n\n    function balanceOf(address account) external view returns (uint256);\n\n    function transfer(address recipient, uint256 amount) external returns (bool);\n\n    function allowance(address owner, address spender) external view returns (uint256);\n\n    function approve(address spender, uint256 amount) external returns (bool);\n\n    function transferFrom(address sender, address recipient, uint256 amount) external returns (bool);\n\n    event Transfer(address indexed from, address indexed to, uint256 value);\n\n    event Approval(address indexed owner, address indexed spender, uint256 value);\n}\n\nlibrary SafeERC20 {\n    using LowGasSafeMath for uint256;\n    using Address for address;\n\n    function safeTransfer(IERC20 token, address to, uint256 value) internal {\n        _callOptionalReturn(token, abi.encodeWithSelector(token.transfer.selector, to, value));\n    }\n\n    function safeTransferFrom(IERC20 token, address from, address to, uint256 value) internal {\n        _callOptionalReturn(token, abi.encodeWithSelector(token.transferFrom.selector, from, to, value));\n    }\n\n    function safeApprove(IERC20 token, address spender, uint256 value) internal {\n\n        require((value == 0) || (token.allowance(address(this), spender) == 0),\n            \"SafeERC20: approve from non-zero to non-zero allowance\"\n        );\n        _callOptionalReturn(token, abi.encodeWithSelector(token.approve.selector, spender, value));\n    }\n\n    function safeIncreaseAllowance(IERC20 token, address spender, uint256 value) internal {\n        uint256 newAllowance = token.allowance(address(this), spender).add(value);\n        _callOptionalReturn(token, abi.encodeWithSelector(token.approve.selector, spender, newAllowance));\n    }\n\n    function safeDecreaseAllowance(IERC20 token, address spender, uint256 value) internal {\n        uint256 newAllowance = token.allowance(address(this), spender)\n            .sub(value);\n        _callOptionalReturn(token, abi.encodeWithSelector(token.approve.selector, spender, newAllowance));\n    }\n\n    function _callOptionalReturn(IERC20 token, bytes memory data) private {\n\n        bytes memory returndata = address(token).functionCall(data, \"SafeERC20: low-level call failed\");\n        if (returndata.length > 0) { // Return data is optional\n            // solhint-disable-next-line max-line-length\n            require(abi.decode(returndata, (bool)), \"SafeERC20: ERC20 operation did not succeed\");\n        }\n    }\n}\n\nlibrary FullMath {\n    function fullMul(uint256 x, uint256 y) private pure returns (uint256 l, uint256 h) {\n        uint256 mm = mulmod(x, y, uint256(-1));\n        l = x * y;\n        h = mm - l;\n        if (mm < l) h -= 1;\n    }\n\n    function fullDiv(\n        uint256 l,\n        uint256 h,\n        uint256 d\n    ) private pure returns (uint256) {\n        uint256 pow2 = d & -d;\n        d /= pow2;\n        l /= pow2;\n        l += h * ((-pow2) / pow2 + 1);\n        uint256 r = 1;\n        r *= 2 - d * r;\n        r *= 2 - d * r;\n        r *= 2 - d * r;\n        r *= 2 - d * r;\n        r *= 2 - d * r;\n        r *= 2 - d * r;\n        r *= 2 - d * r;\n        r *= 2 - d * r;\n        return l * r;\n    }\n\n    function mulDiv(\n        uint256 x,\n        uint256 y,\n        uint256 d\n    ) internal pure returns (uint256) {\n        (uint256 l, uint256 h) = fullMul(x, y);\n        uint256 mm = mulmod(x, y, d);\n        if (mm > l) h -= 1;\n        l -= mm;\n        require(h < d, 'FullMath::mulDiv: overflow');\n        return fullDiv(l, h, d);\n    }\n}\n\nlibrary FixedPoint {\n\n    struct uq112x112 {\n        uint224 _x;\n    }\n\n    struct uq144x112 {\n        uint256 _x;\n    }\n\n    uint8 private constant RESOLUTION = 112;\n    uint256 private constant Q112 = 0x10000000000000000000000000000;\n    uint256 private constant Q224 = 0x100000000000000000000000000000000000000000000000000000000;\n    uint256 private constant LOWER_MASK = 0xffffffffffffffffffffffffffff; // decimal of UQ*x112 (lower 112 bits)\n\n    function decode(uq112x112 memory self) internal pure returns (uint112) {\n        return uint112(self._x >> RESOLUTION);\n    }\n\n    function decode112with18(uq112x112 memory self) internal pure returns (uint) {\n\n        return uint(self._x) / 5192296858534827;\n    }\n\n    function fraction(uint256 numerator, uint256 denominator) internal pure returns (uq112x112 memory) {\n        require(denominator > 0, 'FixedPoint::fraction: division by zero');\n        if (numerator == 0) return FixedPoint.uq112x112(0);\n\n        if (numerator <= uint144(-1)) {\n            uint256 result = (numerator << RESOLUTION) / denominator;\n            require(result <= uint224(-1), 'FixedPoint::fraction: overflow');\n            return uq112x112(uint224(result));\n        } else {\n            uint256 result = FullMath.mulDiv(numerator, Q112, denominator);\n            require(result <= uint224(-1), 'FixedPoint::fraction: overflow');\n            return uq112x112(uint224(result));\n        }\n    }\n}\n\ninterface ITreasury {\n    function deposit( uint _amount, address _token, uint _profit ) external returns ( bool );\n    function valueOf( address _token, uint _amount ) external view returns ( uint value_ );\n}\n\ninterface IBondCalculator {\n    function valuation( address _LP, uint _amount ) external view returns ( uint );\n    function markdown( address _LP ) external view returns ( uint );\n}\n\ninterface IStaking {\n    function stake( uint _amount, address _recipient ) external returns ( bool );\n}\n\ninterface IStakingHelper {\n    function stake( uint _amount, address _recipient ) external;\n}\n\ncontract UtopiaBondDepository is Ownable {\n\n    using FixedPoint for *;\n    using SafeERC20 for IERC20;\n    using LowGasSafeMath for uint;\n    using LowGasSafeMath for uint32;\n\n\n\n\n    /* ======== EVENTS ======== */\n\n    event BondCreated( uint deposit, uint indexed payout, uint indexed expires, uint indexed priceInUSD );\n    event BondRedeemed( address indexed recipient, uint payout, uint remaining );\n    event BondPriceChanged( uint indexed priceInUSD, uint indexed internalPrice, uint indexed debtRatio );\n    event ControlVariableAdjustment( uint initialBCV, uint newBCV, uint adjustment, bool addition );\n    event InitTerms( Terms terms);\n    event LogSetTerms(PARAMETER param, uint value);\n    event LogSetAdjustment( Adjust adjust);\n    event LogSetStaking( address indexed stakingContract, bool isHelper);\n    event LogRecoverLostToken( address indexed tokenToRecover, uint amount);\n\n\n\n    /* ======== STATE VARIABLES ======== */\n\n    IERC20 public immutable UTOP; // token given as payment for bond\n    IERC20 public immutable principle; // token used to create bond\n    ITreasury public immutable treasury; // mints Time when receives principle\n    address public immutable DAO; // receives profit share from bond\n\n    bool public immutable isLiquidityBond; // LP and Reserve bonds are treated slightly different\n    IBondCalculator public immutable bondCalculator; // calculates value of LP tokens\n\n    IStaking public staking; // to auto-stake payout\n    IStakingHelper public stakingHelper; // to stake and claim if no staking warmup\n    bool public useHelper;\n\n    Terms public terms; // stores terms for new bonds\n    Adjust public adjustment; // stores adjustment to BCV data\n\n    mapping( address => Bond ) public bondInfo; // stores bond information for depositors\n\n    uint public totalDebt; // total value of outstanding bonds; used for pricing\n    uint32 public lastDecay; // reference time for debt decay\n\n    mapping (address => bool) public allowedZappers;\n\n\n\n\n    /* ======== STRUCTS ======== */\n\n    // Info for creating new bonds\n    struct Terms {\n        uint controlVariable; // scaling variable for price\n        uint minimumPrice; // vs principle value\n        uint maxPayout; // in thousandths of a %. i.e. 500 = 0.5%\n        uint fee; // as % of bond payout, in hundreths. ( 500 = 5% = 0.05 for every 1 paid)\n        uint maxDebt; // 9 decimal debt ratio, max % total supply created as debt\n        uint32 vestingTerm; // in seconds\n    }\n\n    // Info for bond holder\n    struct Bond {\n        uint payout; // Time remaining to be paid\n        uint pricePaid; // In DAI, for front end viewing\n        uint32 lastTime; // Last interaction\n        uint32 vesting; // Seconds left to vest\n    }\n\n    // Info for incremental adjustments to control variable \n    struct Adjust {\n        bool add; // addition or subtraction\n        uint rate; // increment\n        uint target; // BCV when adjustment finished\n        uint32 buffer; // minimum length (in seconds) between adjustments\n        uint32 lastTime; // time when last adjustment made\n    }\n\n\n\n\n    /* ======== INITIALIZATION ======== */\n\n    constructor ( \n        address _Utop,\n        address _principle,\n        address _treasury, \n        address _DAO,  \n        address _bondCalculator\n    ) {\n        require( _Utop != address(0) );\n        UTOP = IERC20(_Utop);\n        require( _principle != address(0) );\n        principle = IERC20(_principle);\n        require( _treasury != address(0) );\n        treasury = ITreasury(_treasury);\n        require( _DAO != address(0) );\n        DAO = _DAO;\n        // bondCalculator should be address(0) if not LP bond\n        bondCalculator = IBondCalculator(_bondCalculator);\n        isLiquidityBond = ( _bondCalculator != address(0) );\n    }\n\n    /**\n     *  @notice initializes bond parameters\n     *  @param _controlVariable uint\n     *  @param _vestingTerm uint32\n     *  @param _minimumPrice uint\n     *  @param _maxPayout uint\n     *  @param _fee uint\n     *  @param _maxDebt uint\n     */\n    function initializeBondTerms( \n        uint _controlVariable, \n        uint _minimumPrice,\n        uint _maxPayout,\n        uint _fee,\n        uint _maxDebt,\n        uint32 _vestingTerm\n    ) external onlyOwner() {\n        require( terms.controlVariable == 0, \"Bonds must be initialized from 0\" );\n        require( _controlVariable >= 40, \"Can lock adjustment\" );\n        require( _maxPayout <= 1000, \"Payout cannot be above 1 percent\" );\n        require( _vestingTerm >= 129600, \"Vesting must be longer than 36 hours\" );\n        require( _fee <= 10000, \"DAO fee cannot exceed payout\" );\n        terms = Terms ({\n            controlVariable: _controlVariable,\n            minimumPrice: _minimumPrice,\n            maxPayout: _maxPayout,\n            fee: _fee,\n            maxDebt: _maxDebt,\n            vestingTerm: _vestingTerm\n        });\n        lastDecay = uint32(block.timestamp);\n        emit InitTerms(terms);\n    }\n\n\n\n    \n    /* ======== POLICY FUNCTIONS ======== */\n\n    enum PARAMETER { VESTING, PAYOUT, FEE, DEBT, MINPRICE }\n    /**\n     *  @notice set parameters for new bonds\n     *  @param _parameter PARAMETER\n     *  @param _input uint\n     */\n    function setBondTerms ( PARAMETER _parameter, uint _input ) external onlyOwner() {\n        if ( _parameter == PARAMETER.VESTING ) { // 0\n            require( _input >= 129600, \"Vesting must be longer than 36 hours\" );\n            terms.vestingTerm = uint32(_input);\n        } else if ( _parameter == PARAMETER.PAYOUT ) { // 1\n            require( _input <= 1000, \"Payout cannot be above 1 percent\" );\n            terms.maxPayout = _input;\n        } else if ( _parameter == PARAMETER.FEE ) { // 2\n            require( _input <= 10000, \"DAO fee cannot exceed payout\" );\n            terms.fee = _input;\n        } else if ( _parameter == PARAMETER.DEBT ) { // 3\n            terms.maxDebt = _input;\n        } else if ( _parameter == PARAMETER.MINPRICE ) { // 4\n            terms.minimumPrice = _input;\n        }\n        emit LogSetTerms(_parameter, _input);\n    }\n\n    /**\n     *  @notice set control variable adjustment\n     *  @param _addition bool\n     *  @param _increment uint\n     *  @param _target uint\n     *  @param _buffer uint\n     */\n    function setAdjustment ( \n        bool _addition,\n        uint _increment, \n        uint _target,\n        uint32 _buffer \n    ) external onlyOwner() {\n        require( _increment <= terms.controlVariable.mul( 25 ) / 1000 , \"Increment too large\" );\n        require(_target >= 40, \"Next Adjustment could be locked\");\n        adjustment = Adjust({\n            add: _addition,\n            rate: _increment,\n            target: _target,\n            buffer: _buffer,\n            lastTime: uint32(block.timestamp)\n        });\n        emit LogSetAdjustment(adjustment);\n    }\n\n    /**\n     *  @notice set contract for auto stake\n     *  @param _staking address\n     *  @param _helper bool\n     */\n    function setStaking( address _staking, bool _helper ) external onlyOwner() {\n        require( _staking != address(0), \"IA\" );\n        if ( _helper ) {\n            useHelper = true;\n            stakingHelper = IStakingHelper(_staking);\n        } else {\n            useHelper = false;\n            staking = IStaking(_staking);\n        }\n        emit LogSetStaking(_staking, _helper);\n    }\n\n    function allowZapper(address zapper) external onlyOwner {\n        require(zapper != address(0), \"ZNA\");\n        \n        allowedZappers[zapper] = true;\n    }\n\n    function removeZapper(address zapper) external onlyOwner {\n       \n        allowedZappers[zapper] = false;\n    }\n\n\n    \n\n    /* ======== USER FUNCTIONS ======== */\n\n    /**\n     *  @notice deposit bond\n     *  @param _amount uint\n     *  @param _maxPrice uint\n     *  @param _depositor address\n     *  @return uint\n     */\n    function deposit( \n        uint _amount, \n        uint _maxPrice,\n        address _depositor\n    ) external returns ( uint ) {\n        require( _depositor != address(0), \"Invalid address\" );\n        require(msg.sender == _depositor || allowedZappers[msg.sender], \"LFNA\");\n        decayDebt();\n        \n        \n        uint priceInUSD = bondPriceInUSD(); // Stored in bond info\n        uint nativePrice = _bondPrice();\n\n        require( _maxPrice >= nativePrice, \"Slippage limit: more than max price\" ); // slippage protection\n\n        uint value = treasury.valueOf( address(principle), _amount );\n        uint payout = payoutFor( value ); // payout to bonder is computed\n        require( totalDebt.add(value) <= terms.maxDebt, \"Max capacity reached\" );\n        require( payout >= 10000000, \"Bond too small\" ); // must be > 0.01 Time ( underflow protection )\n        require( payout <= maxPayout(), \"Bond too large\"); // size protection because there is no slippage\n\n        // profits are calculated\n        uint fee = payout.mul( terms.fee )/ 10000 ;\n        uint profit = value.sub( payout ).sub( fee );\n\n        uint balanceBefore = UTOP.balanceOf(address(this));\n        /**\n            principle is transferred in\n            approved and\n            deposited into the treasury, returning (_amount - profit) Time\n         */\n        principle.safeTransferFrom( msg.sender, address(this), _amount );\n        principle.approve( address( treasury ), _amount );\n        treasury.deposit( _amount, address(principle), profit );\n        \n        if ( fee != 0 ) { // fee is transferred to dao \n            UTOP.safeTransfer( DAO, fee ); \n        }\n        require(balanceBefore.add(profit) == UTOP.balanceOf(address(this)), \"Not enough Time to cover profit\");\n        // total debt is increased\n        totalDebt = totalDebt.add( value ); \n                \n        // depositor info is stored\n        bondInfo[ _depositor ] = Bond({ \n            payout: bondInfo[ _depositor ].payout.add( payout ),\n            vesting: terms.vestingTerm,\n            lastTime: uint32(block.timestamp),\n            pricePaid: priceInUSD\n        });\n\n        // indexed events are emitted\n        emit BondCreated( _amount, payout, block.timestamp.add( terms.vestingTerm ), priceInUSD );\n        emit BondPriceChanged( bondPriceInUSD(), _bondPrice(), debtRatio() );\n\n        adjust(); // control variable is adjusted\n        return payout; \n    }\n\n    /** \n     *  @notice redeem bond for user\n     *  @param _recipient address\n     *  @param _stake bool\n     *  @return uint\n     */ \n    function redeem( address _recipient, bool _stake ) external returns ( uint ) {\n        require(msg.sender == _recipient, \"NA\");     \n        Bond memory info = bondInfo[ _recipient ];\n        // (seconds since last interaction / vesting term remaining)\n        uint percentVested = percentVestedFor( _recipient );\n\n        if ( percentVested >= 10000 ) { // if fully vested\n            delete bondInfo[ _recipient ]; // delete user info\n            emit BondRedeemed( _recipient, info.payout, 0 ); // emit bond data\n            return stakeOrSend( _recipient, _stake, info.payout ); // pay user everything due\n\n        } else { // if unfinished\n            // calculate payout vested\n            uint payout = info.payout.mul( percentVested ) / 10000 ;\n            // store updated deposit info\n            bondInfo[ _recipient ] = Bond({\n                payout: info.payout.sub( payout ),\n                vesting: info.vesting.sub32( uint32( block.timestamp ).sub32( info.lastTime ) ),\n                lastTime: uint32(block.timestamp),\n                pricePaid: info.pricePaid\n            });\n\n            emit BondRedeemed( _recipient, payout, bondInfo[ _recipient ].payout );\n            return stakeOrSend( _recipient, _stake, payout );\n        }\n    }\n\n\n\n    \n    /* ======== INTERNAL HELPER FUNCTIONS ======== */\n\n    /**\n     *  @notice allow user to stake payout automatically\n     *  @param _stake bool\n     *  @param _amount uint\n     *  @return uint\n     */\n    function stakeOrSend( address _recipient, bool _stake, uint _amount ) internal returns ( uint ) {\n        if ( !_stake ) { // if user does not want to stake\n            UTOP.transfer( _recipient, _amount ); // send payout\n        } else { // if user wants to stake\n            if ( useHelper ) { // use if staking warmup is 0\n                UTOP.approve( address(stakingHelper), _amount );\n                stakingHelper.stake( _amount, _recipient );\n            } else {\n                UTOP.approve( address(staking), _amount );\n                staking.stake( _amount, _recipient );\n            }\n        }\n        return _amount;\n    }\n\n    /**\n     *  @notice makes incremental adjustment to control variable\n     */\n    function adjust() internal {\n        uint timeCanAdjust = adjustment.lastTime.add32( adjustment.buffer );\n        if( adjustment.rate != 0 && block.timestamp >= timeCanAdjust ) {\n            uint initial = terms.controlVariable;\n            uint bcv = initial;\n            if ( adjustment.add ) {\n                bcv = bcv.add(adjustment.rate);\n                if ( bcv >= adjustment.target ) {\n                    adjustment.rate = 0;\n                    bcv = adjustment.target;\n                }\n            } else {\n                bcv = bcv.sub(adjustment.rate);\n                if ( bcv <= adjustment.target ) {\n                    adjustment.rate = 0;\n                    bcv = adjustment.target;\n                }\n            }\n            terms.controlVariable = bcv;\n            adjustment.lastTime = uint32(block.timestamp);\n            emit ControlVariableAdjustment( initial, bcv, adjustment.rate, adjustment.add );\n        }\n    }\n\n    /**\n     *  @notice reduce total debt\n     */\n    function decayDebt() internal {\n        totalDebt = totalDebt.sub( debtDecay() );\n        lastDecay = uint32(block.timestamp);\n    }\n\n\n\n\n    /* ======== VIEW FUNCTIONS ======== */\n\n    /**\n     *  @notice determine maximum bond size\n     *  @return uint\n     */\n    function maxPayout() public view returns ( uint ) {\n        return UTOP.totalSupply().mul( terms.maxPayout ) / 100000 ;\n    }\n\n    /**\n     *  @notice calculate interest due for new bond\n     *  @param _value uint\n     *  @return uint\n     */\n    function payoutFor( uint _value ) public view returns ( uint ) {\n        return FixedPoint.fraction( _value, bondPrice() ).decode112with18() / 1e16 ;\n    }\n\n\n    /**\n     *  @notice calculate current bond premium\n     *  @return price_ uint\n     */\n    function bondPrice() public view returns ( uint price_ ) {        \n        price_ = terms.controlVariable.mul( debtRatio() ).add( 1000000000 ) / 1e7;\n        if ( price_ < terms.minimumPrice ) {\n            price_ = terms.minimumPrice;\n        }\n    }\n\n    /**\n     *  @notice calculate current bond price and remove floor if above\n     *  @return price_ uint\n     */\n    function _bondPrice() internal returns ( uint price_ ) {\n        price_ = terms.controlVariable.mul( debtRatio() ).add( 1000000000 ) / 1e7;\n        if ( price_ < terms.minimumPrice ) {\n            price_ = terms.minimumPrice;        \n        } else if ( terms.minimumPrice != 0 ) {\n            terms.minimumPrice = 0;\n        }\n    }\n\n    /**\n     *  @notice converts bond price to DAI value\n     *  @return price_ uint\n     */\n    function bondPriceInUSD() public view returns ( uint price_ ) {\n        if( isLiquidityBond ) {\n            price_ = bondPrice().mul( bondCalculator.markdown( address(principle) ) ) / 100 ;\n        } else {\n            price_ = bondPrice().mul( 10 ** principle.decimals() ) / 100;\n        }\n    }\n\n\n    /**\n     *  @notice calculate current ratio of debt to Utop supply\n     *  @return debtRatio_ uint\n     */\n    function debtRatio() public view returns ( uint debtRatio_ ) {   \n        uint supply = UTOP.totalSupply();\n        debtRatio_ = FixedPoint.fraction( \n            currentDebt().mul( 1e9 ), \n            supply\n        ).decode112with18() / 1e18;\n    }\n\n    /**\n     *  @notice debt ratio in same terms for reserve or liquidity bonds\n     *  @return uint\n     */\n    function standardizedDebtRatio() external view returns ( uint ) {\n        if ( isLiquidityBond ) {\n            return debtRatio().mul( bondCalculator.markdown( address(principle) ) ) / 1e9;\n        } else {\n            return debtRatio();\n        }\n    }\n\n    /**\n     *  @notice calculate debt factoring in decay\n     *  @return uint\n     */\n    function currentDebt() public view returns ( uint ) {\n        return totalDebt.sub( debtDecay() );\n    }\n\n    /**\n     *  @notice amount to decay total debt by\n     *  @return decay_ uint\n     */\n    function debtDecay() public view returns ( uint decay_ ) {\n        uint32 timeSinceLast = uint32(block.timestamp).sub32( lastDecay );\n        decay_ = totalDebt.mul( timeSinceLast ) / terms.vestingTerm;\n        if ( decay_ > totalDebt ) {\n            decay_ = totalDebt;\n        }\n    }\n\n\n    /**\n     *  @notice calculate how far into vesting a depositor is\n     *  @param _depositor address\n     *  @return percentVested_ uint\n     */\n    function percentVestedFor( address _depositor ) public view returns ( uint percentVested_ ) {\n        Bond memory bond = bondInfo[ _depositor ];\n        uint secondsSinceLast = uint32(block.timestamp).sub32( bond.lastTime );\n        uint vesting = bond.vesting;\n\n        if ( vesting > 0 ) {\n            percentVested_ = secondsSinceLast.mul( 10000 ) / vesting;\n        } else {\n            percentVested_ = 0;\n        }\n    }\n\n    /**\n     *  @notice calculate amount of Utop available for claim by depositor\n     *  @param _depositor address\n     *  @return pendingPayout_ uint\n     */\n    function pendingPayoutFor( address _depositor ) external view returns ( uint pendingPayout_ ) {\n        uint percentVested = percentVestedFor( _depositor );\n        uint payout = bondInfo[ _depositor ].payout;\n\n        if ( percentVested >= 10000 ) {\n            pendingPayout_ = payout;\n        } else {\n            pendingPayout_ = payout.mul( percentVested ) / 10000;\n        }\n    }\n\n\n\n\n    /* ======= AUXILLIARY ======= */\n\n    /**\n     *  @notice allow anyone to send lost tokens (excluding principle or Utop) to the DAO\n     *  @return bool\n     */\n    function recoverLostToken(IERC20 _token ) external returns ( bool ) {\n        require( _token != UTOP, \"NAT\" );\n        require( _token != principle, \"NAP\" );\n        uint balance = _token.balanceOf( address(this));\n        _token.safeTransfer( DAO,  balance );\n        emit LogRecoverLostToken(address(_token), balance);\n        return true;\n    }\n}",
  "sourcePath": "/Users/kisharora/Developer/web3/paradiseDao/contracts/BondDepository.sol",
  "compiler": {
    "name": "solc",
    "version": "0.7.5+commit.eb77ed08.Emscripten.clang"
  },
  "schemaVersion": "3.4.4",
  "updatedAt": "2022-01-30T06:19:20.281Z",
  "devdoc": {
    "kind": "dev",
    "methods": {
      "bondPrice()": {
        "returns": {
          "price_": "uint"
        }
      },
      "bondPriceInUSD()": {
        "returns": {
          "price_": "uint"
        }
      },
      "currentDebt()": {
        "returns": {
          "_0": "uint"
        }
      },
      "debtDecay()": {
        "returns": {
          "decay_": "uint"
        }
      },
      "debtRatio()": {
        "returns": {
          "debtRatio_": "uint"
        }
      },
      "deposit(uint256,uint256,address)": {
        "params": {
          "_amount": "uint",
          "_depositor": "address",
          "_maxPrice": "uint"
        },
        "returns": {
          "_0": "uint"
        }
      },
      "initializeBondTerms(uint256,uint256,uint256,uint256,uint256,uint32)": {
        "params": {
          "_controlVariable": "uint",
          "_fee": "uint",
          "_maxDebt": "uint",
          "_maxPayout": "uint",
          "_minimumPrice": "uint",
          "_vestingTerm": "uint32"
        }
      },
      "maxPayout()": {
        "returns": {
          "_0": "uint"
        }
      },
      "payoutFor(uint256)": {
        "params": {
          "_value": "uint"
        },
        "returns": {
          "_0": "uint"
        }
      },
      "pendingPayoutFor(address)": {
        "params": {
          "_depositor": "address"
        },
        "returns": {
          "pendingPayout_": "uint"
        }
      },
      "percentVestedFor(address)": {
        "params": {
          "_depositor": "address"
        },
        "returns": {
          "percentVested_": "uint"
        }
      },
      "recoverLostToken(address)": {
        "returns": {
          "_0": "bool"
        }
      },
      "redeem(address,bool)": {
        "params": {
          "_recipient": "address",
          "_stake": "bool"
        },
        "returns": {
          "_0": "uint"
        }
      },
      "setAdjustment(bool,uint256,uint256,uint32)": {
        "params": {
          "_addition": "bool",
          "_buffer": "uint",
          "_increment": "uint",
          "_target": "uint"
        }
      },
      "setBondTerms(uint8,uint256)": {
        "params": {
          "_input": "uint",
          "_parameter": "PARAMETER"
        }
      },
      "setStaking(address,bool)": {
        "params": {
          "_helper": "bool",
          "_staking": "address"
        }
      },
      "standardizedDebtRatio()": {
        "returns": {
          "_0": "uint"
        }
      },
      "transferOwnership(address,bool,bool)": {
        "params": {
          "direct": "True if `newOwner` should be set immediately. False if `newOwner` needs to use `claimOwnership`.",
          "newOwner": "Address of the new owner.",
          "renounce": "Allows the `newOwner` to be `address(0)` if `direct` and `renounce` is True. Has no effect otherwise."
        }
      }
    },
    "version": 1
  },
  "userdoc": {
    "kind": "user",
    "methods": {
      "bondPrice()": {
        "notice": "calculate current bond premium"
      },
      "bondPriceInUSD()": {
        "notice": "converts bond price to DAI value"
      },
      "claimOwnership()": {
        "notice": "Needs to be called by `pendingOwner` to claim ownership."
      },
      "currentDebt()": {
        "notice": "calculate debt factoring in decay"
      },
      "debtDecay()": {
        "notice": "amount to decay total debt by"
      },
      "debtRatio()": {
        "notice": "calculate current ratio of debt to Utop supply"
      },
      "deposit(uint256,uint256,address)": {
        "notice": "deposit bond"
      },
      "initializeBondTerms(uint256,uint256,uint256,uint256,uint256,uint32)": {
        "notice": "initializes bond parameters"
      },
      "maxPayout()": {
        "notice": "determine maximum bond size"
      },
      "payoutFor(uint256)": {
        "notice": "calculate interest due for new bond"
      },
      "pendingPayoutFor(address)": {
        "notice": "calculate amount of Utop available for claim by depositor"
      },
      "percentVestedFor(address)": {
        "notice": "calculate how far into vesting a depositor is"
      },
      "recoverLostToken(address)": {
        "notice": "allow anyone to send lost tokens (excluding principle or Utop) to the DAO"
      },
      "redeem(address,bool)": {
        "notice": "redeem bond for user"
      },
      "setAdjustment(bool,uint256,uint256,uint32)": {
        "notice": "set control variable adjustment"
      },
      "setBondTerms(uint8,uint256)": {
        "notice": "set parameters for new bonds"
      },
      "setStaking(address,bool)": {
        "notice": "set contract for auto stake"
      },
      "standardizedDebtRatio()": {
        "notice": "debt ratio in same terms for reserve or liquidity bonds"
      },
      "transferOwnership(address,bool,bool)": {
        "notice": "Transfers ownership to `newOwner`. Either directly or claimable by the new pending owner. Can only be invoked by the current `owner`."
      }
    },
    "version": 1
  }
}