{
  "contractName": "VaultOwned",
  "abi": [
    {
      "anonymous": false,
      "inputs": [
        {
          "indexed": true,
          "internalType": "address",
          "name": "previousOwner",
          "type": "address"
        },
        {
          "indexed": true,
          "internalType": "address",
          "name": "newOwner",
          "type": "address"
        }
      ],
      "name": "OwnershipTransferred",
      "type": "event"
    },
    {
      "anonymous": false,
      "inputs": [
        {
          "indexed": true,
          "internalType": "address",
          "name": "newVault",
          "type": "address"
        }
      ],
      "name": "VaultTransferred",
      "type": "event"
    },
    {
      "inputs": [],
      "name": "owner",
      "outputs": [
        {
          "internalType": "address",
          "name": "",
          "type": "address"
        }
      ],
      "stateMutability": "view",
      "type": "function"
    },
    {
      "inputs": [],
      "name": "renounceOwnership",
      "outputs": [],
      "stateMutability": "nonpayable",
      "type": "function"
    },
    {
      "inputs": [
        {
          "internalType": "address",
          "name": "newOwner_",
          "type": "address"
        }
      ],
      "name": "transferOwnership",
      "outputs": [],
      "stateMutability": "nonpayable",
      "type": "function"
    },
    {
      "inputs": [
        {
          "internalType": "address",
          "name": "vault_",
          "type": "address"
        }
      ],
      "name": "setVault",
      "outputs": [],
      "stateMutability": "nonpayable",
      "type": "function"
    },
    {
      "inputs": [],
      "name": "vault",
      "outputs": [
        {
          "internalType": "address",
          "name": "",
          "type": "address"
        }
      ],
      "stateMutability": "view",
      "type": "function"
    }
  ],
  "bytecode": "0x608060405234801561001057600080fd5b50600080546001600160a01b03191633178082556040516001600160a01b039190911691907f8be0079c531659141344cd1fd0a4f28419497f9722a3daafe3b4186f6b6457e0908290a36103f0806100696000396000f3fe608060405234801561001057600080fd5b50600436106100575760003560e01c80636817031b1461005c578063715018a6146100845780638da5cb5b1461008c578063f2fde38b146100b0578063fbfa77cf146100d6575b600080fd5b6100826004803603602081101561007257600080fd5b50356001600160a01b03166100de565b005b6100826101ce565b610094610277565b604080516001600160a01b039092168252519081900360200190f35b610082600480360360208110156100c657600080fd5b50356001600160a01b0316610286565b610094610385565b6000546001600160a01b0316331461013d576040805162461bcd60e51b815260206004820181905260248201527f4f776e61626c653a2063616c6c6572206973206e6f7420746865206f776e6572604482015290519081900360640190fd5b6001600160a01b03811661017e576040805162461bcd60e51b815260206004820152600360248201526204941360ec1b604482015290519081900360640190fd5b600180546001600160a01b0319166001600160a01b0383811691909117918290556040519116907f3811c8bde9c524fca0e85a90109ab6e776e4f6e675fa7b219c7973abeacb6b2790600090a250565b6000546001600160a01b0316331461022d576040805162461bcd60e51b815260206004820181905260248201527f4f776e61626c653a2063616c6c6572206973206e6f7420746865206f776e6572604482015290519081900360640190fd5b600080546040516001600160a01b03909116907f8be0079c531659141344cd1fd0a4f28419497f9722a3daafe3b4186f6b6457e0908390a3600080546001600160a01b0319169055565b6000546001600160a01b031690565b6000546001600160a01b031633146102e5576040805162461bcd60e51b815260206004820181905260248201527f4f776e61626c653a2063616c6c6572206973206e6f7420746865206f776e6572604482015290519081900360640190fd5b6001600160a01b03811661032a5760405162461bcd60e51b81526004018080602001828103825260268152602001806103956026913960400191505060405180910390fd5b600080546040516001600160a01b03808516939216917f8be0079c531659141344cd1fd0a4f28419497f9722a3daafe3b4186f6b6457e091a3600080546001600160a01b0319166001600160a01b0392909216919091179055565b6001546001600160a01b03169056fe4f776e61626c653a206e6577206f776e657220697320746865207a65726f2061646472657373a26469706673582212206736349f4276ab184a882f4ae97ec651b220790de5048b5441ce3275142fbb8664736f6c63430007050033",
  "immutableReferences": {},
  "source": "// SPDX-License-Identifier: AGPL-3.0-or-later\npragma solidity 0.7.5;\n\ninterface IERC20 {\n  /**\n   * @dev Returns the amount of tokens in existence.\n   */\n  function totalSupply() external view returns (uint256);\n\n  /**\n   * @dev Returns the amount of tokens owned by `account`.\n   */\n  function balanceOf(address account) external view returns (uint256);\n\n  /**\n   * @dev Moves `amount` tokens from the caller's account to `recipient`.\n   *\n   * Returns a boolean value indicating whether the operation succeeded.\n   *\n   * Emits a {Transfer} event.\n   */\n  function transfer(address recipient, uint256 amount) external returns (bool);\n\n  /**\n   * @dev Returns the remaining number of tokens that `spender` will be\n   * allowed to spend on behalf of `owner` through {transferFrom}. This is\n   * zero by default.\n   *\n   * This value changes when {approve} or {transferFrom} are called.\n   */\n  function allowance(address owner, address spender) external view returns (uint256);\n\n  /**\n   * @dev Sets `amount` as the allowance of `spender` over the caller's tokens.\n   *\n   * Returns a boolean value indicating whether the operation succeeded.\n   *\n   * IMPORTANT: Beware that changing an allowance with this method brings the risk\n   * that someone may use both the old and the new allowance by unfortunate\n   * transaction ordering. One possible solution to mitigate this race\n   * condition is to first reduce the spender's allowance to 0 and set the\n   * desired value afterwards:\n   * https://github.com/ethereum/EIPs/issues/20#issuecomment-263524729\n   *\n   * Emits an {Approval} event.\n   */\n  function approve(address spender, uint256 amount) external returns (bool);\n\n  /**\n   * @dev Moves `amount` tokens from `sender` to `recipient` using the\n   * allowance mechanism. `amount` is then deducted from the caller's\n   * allowance.\n   *\n   * Returns a boolean value indicating whether the operation succeeded.\n   *\n   * Emits a {Transfer} event.\n   */\n  function transferFrom(address sender, address recipient, uint256 amount) external returns (bool);\n\n  /**\n   * @dev Emitted when `value` tokens are moved from one account (`from`) to\n   * another (`to`).\n   *\n   * Note that `value` may be zero.\n   */\n  event Transfer(address indexed from, address indexed to, uint256 value);\n\n  /**\n   * @dev Emitted when the allowance of a `spender` for an `owner` is set by\n   * a call to {approve}. `value` is the new allowance.\n   */\n  event Approval(address indexed owner, address indexed spender, uint256 value);\n}\n\nlibrary LowGasSafeMath {\n    /// @notice Returns x + y, reverts if sum overflows uint256\n    /// @param x The augend\n    /// @param y The addend\n    /// @return z The sum of x and y\n    function add(uint256 x, uint256 y) internal pure returns (uint256 z) {\n        require((z = x + y) >= x);\n    }\n\n    /// @notice Returns x - y, reverts if underflows\n    /// @param x The minuend\n    /// @param y The subtrahend\n    /// @return z The difference of x and y\n    function sub(uint256 x, uint256 y) internal pure returns (uint256 z) {\n        require((z = x - y) <= x);\n    }\n\n    /// @notice Returns x * y, reverts if overflows\n    /// @param x The multiplicand\n    /// @param y The multiplier\n    /// @return z The product of x and y\n    function mul(uint256 x, uint256 y) internal pure returns (uint256 z) {\n        require(x == 0 || (z = x * y) / x == y);\n    }\n\n    /// @notice Returns x + y, reverts if overflows or underflows\n    /// @param x The augend\n    /// @param y The addend\n    /// @return z The sum of x and y\n    function add(int256 x, int256 y) internal pure returns (int256 z) {\n        require((z = x + y) >= x == (y >= 0));\n    }\n\n    /// @notice Returns x - y, reverts if overflows or underflows\n    /// @param x The minuend\n    /// @param y The subtrahend\n    /// @return z The difference of x and y\n    function sub(int256 x, int256 y) internal pure returns (int256 z) {\n        require((z = x - y) <= x == (y >= 0));\n    }\n}\n\nabstract contract ERC20 is IERC20 {\n\n  using LowGasSafeMath for uint256;\n    \n  // Present in ERC777\n  mapping (address => uint256) internal _balances;\n\n  // Present in ERC777\n  mapping (address => mapping (address => uint256)) internal _allowances;\n\n  // Present in ERC777\n  uint256 internal _totalSupply;\n\n  // Present in ERC777\n  string internal _name;\n    \n  // Present in ERC777\n  string internal _symbol;\n    \n  // Present in ERC777\n  uint8 internal _decimals;\n\n  constructor (string memory name_, string memory symbol_, uint8 decimals_) {\n    _name = name_;\n    _symbol = symbol_;\n    _decimals = decimals_;\n  }\n\n  function name() public view returns (string memory) {\n    return _name;\n  }\n\n  function symbol() public view returns (string memory) {\n    return _symbol;\n  }\n\n  function decimals() public view returns (uint8) {\n    return _decimals;\n  }\n\n  function totalSupply() public view override returns (uint256) {\n    return _totalSupply;\n  }\n\n  function balanceOf(address account) public view virtual override returns (uint256) {\n    return _balances[account];\n  }\n\n  function transfer(address recipient, uint256 amount) public virtual override returns (bool) {\n    _transfer(msg.sender, recipient, amount);\n    return true;\n  }\n\n    function allowance(address owner, address spender) public view virtual override returns (uint256) {\n        return _allowances[owner][spender];\n    }\n\n    function approve(address spender, uint256 amount) public virtual override returns (bool) {\n        _approve(msg.sender, spender, amount);\n        return true;\n    }\n\n    function transferFrom(address sender, address recipient, uint256 amount) public virtual override returns (bool) {\n        _transfer(sender, recipient, amount);\n        _approve(sender, msg.sender, _allowances[sender][msg.sender]\n          .sub(amount));\n        return true;\n    }\n\n    function increaseAllowance(address spender, uint256 addedValue) public virtual returns (bool) {\n        _approve(msg.sender, spender, _allowances[msg.sender][spender].add(addedValue));\n        return true;\n    }\n\n    function decreaseAllowance(address spender, uint256 subtractedValue) public virtual returns (bool) {\n        _approve(msg.sender, spender, _allowances[msg.sender][spender]\n          .sub(subtractedValue));\n        return true;\n    }\n\n    function _transfer(address sender, address recipient, uint256 amount) internal virtual {\n      require(sender != address(0), \"ERC20: transfer from the zero address\");\n      require(recipient != address(0), \"ERC20: transfer to the zero address\");\n\n      _beforeTokenTransfer(sender, recipient, amount);\n\n      _balances[sender] = _balances[sender].sub(amount);\n      _balances[recipient] = _balances[recipient].add(amount);\n      emit Transfer(sender, recipient, amount);\n    }\n\n    function _mint(address account_, uint256 amount_) internal virtual {\n        require(account_ != address(0), \"ERC20: mint to the zero address\");\n        _beforeTokenTransfer(address( this ), account_, amount_);\n        _totalSupply = _totalSupply.add(amount_);\n        _balances[account_] = _balances[account_].add(amount_);\n        emit Transfer(address(0), account_, amount_);\n    }\n\n    function _burn(address account, uint256 amount) internal virtual {\n        require(account != address(0), \"ERC20: burn from the zero address\");\n\n        _beforeTokenTransfer(account, address(0), amount);\n\n        _balances[account] = _balances[account].sub(amount);\n        _totalSupply = _totalSupply.sub(amount);\n        emit Transfer(account, address(0), amount);\n    }\n\n    function _approve(address owner, address spender, uint256 amount) internal virtual {\n        require(owner != address(0), \"ERC20: approve from the zero address\");\n        require(spender != address(0), \"ERC20: approve to the zero address\");\n\n        _allowances[owner][spender] = amount;\n        emit Approval(owner, spender, amount);\n    }\n\n  function _beforeTokenTransfer( address from_, address to_, uint256 amount_ ) internal virtual { }\n}\n\nlibrary Counters {\n    using LowGasSafeMath for uint256;\n\n    struct Counter {\n        uint256 _value; // default: 0\n    }\n\n    function current(Counter storage counter) internal view returns (uint256) {\n        return counter._value;\n    }\n\n    function increment(Counter storage counter) internal {\n        counter._value += 1;\n    }\n\n    function decrement(Counter storage counter) internal {\n        counter._value = counter._value.sub(1);\n    }\n}\n\ninterface IERC2612Permit {\n\n    function permit(\n        address owner,\n        address spender,\n        uint256 amount,\n        uint256 deadline,\n        uint8 v,\n        bytes32 r,\n        bytes32 s\n    ) external;\n\n    function nonces(address owner) external view returns (uint256);\n}\n\nabstract contract ERC20Permit is ERC20, IERC2612Permit {\n    using Counters for Counters.Counter;\n\n    mapping(address => Counters.Counter) private _nonces;\n\n    // keccak256(\"Permit(address owner,address spender,uint256 value,uint256 nonce,uint256 deadline)\");\n    bytes32 public constant PERMIT_TYPEHASH = 0x6e71edae12b1b97f4d1f60370fef10105fa2faae0126114a169c64845d6126c9;\n\n    bytes32 public DOMAIN_SEPARATOR;\n\n    constructor() {\n        uint256 chainID;\n        assembly {\n            chainID := chainid()\n        }\n\n        DOMAIN_SEPARATOR = keccak256(\n            abi.encode(\n                keccak256(\"EIP712Domain(string name,string version,uint256 chainId,address verifyingContract)\"),\n                keccak256(bytes(name())),\n                keccak256(bytes(\"1\")), // Version\n                chainID,\n                address(this)\n            )\n        );\n    }\n\n    function permit(\n        address owner,\n        address spender,\n        uint256 amount,\n        uint256 deadline,\n        uint8 v,\n        bytes32 r,\n        bytes32 s\n    ) public virtual override {\n        require(block.timestamp <= deadline, \"Permit: expired deadline\");\n\n        bytes32 hashStruct =\n            keccak256(abi.encode(PERMIT_TYPEHASH, owner, spender, amount, _nonces[owner].current(), deadline));\n\n        bytes32 _hash = keccak256(abi.encodePacked(uint16(0x1901), DOMAIN_SEPARATOR, hashStruct));\n\n        address signer = ecrecover(_hash, v, r, s);\n        require(signer != address(0) && signer == owner, \"ERC20Permit: Invalid signature\");\n\n        _nonces[owner].increment();\n        _approve(owner, spender, amount);\n    }\n\n    function nonces(address owner) public view override returns (uint256) {\n        return _nonces[owner].current();\n    }\n}\n\ninterface IOwnable {\n  function owner() external view returns (address);\n\n  function renounceOwnership() external;\n  \n  function transferOwnership( address newOwner_ ) external;\n}\n\ncontract Ownable is IOwnable {\n    \n  address internal _owner;\n\n  event OwnershipTransferred(address indexed previousOwner, address indexed newOwner);\n\n  constructor () {\n    _owner = msg.sender;\n    emit OwnershipTransferred( address(0), _owner );\n  }\n\n  function owner() public view override returns (address) {\n    return _owner;\n  }\n\n  modifier onlyOwner() {\n    require( _owner == msg.sender, \"Ownable: caller is not the owner\" );\n    _;\n  }\n\n  function renounceOwnership() public virtual override onlyOwner() {\n    emit OwnershipTransferred( _owner, address(0) );\n    _owner = address(0);\n  }\n\n  function transferOwnership( address newOwner_ ) public virtual override onlyOwner() {\n    require( newOwner_ != address(0), \"Ownable: new owner is the zero address\");\n    emit OwnershipTransferred( _owner, newOwner_ );\n    _owner = newOwner_;\n  }\n}\n\ncontract VaultOwned is Ownable {\n  \n  address internal _vault;\n\n  event VaultTransferred(address indexed newVault);\n\n  function setVault( address vault_ ) external onlyOwner() {\n    require(vault_ != address(0), \"IA0\");\n    _vault = vault_;\n    emit VaultTransferred( _vault );\n  }\n\n  function vault() public view returns (address) {\n    return _vault;\n  }\n\n  modifier onlyVault() {\n    require( _vault == msg.sender, \"VaultOwned: caller is not the Vault\" );\n    _;\n  }\n\n}\n\ncontract UTOPERC20Token is ERC20Permit, VaultOwned {\n\n    using LowGasSafeMath for uint256;\n\n    constructor() ERC20(\"Utopia\", \"UTOP\", 9) {\n    }\n\n    function mint(address account_, uint256 amount_) external onlyVault() {\n        _mint(account_, amount_);\n    }\n\n    function burn(uint256 amount) external virtual {\n        _burn(msg.sender, amount);\n    }\n     \n    function burnFrom(address account_, uint256 amount_) external virtual {\n        _burnFrom(account_, amount_);\n    }\n\n    function _burnFrom(address account_, uint256 amount_) internal virtual {\n        uint256 decreasedAllowance_ =\n            allowance(account_, msg.sender).sub(amount_);\n\n        _approve(account_, msg.sender, decreasedAllowance_);\n        _burn(account_, amount_);\n    }\n}",
  "sourcePath": "/Users/kisharora/Developer/web3/paradiseDao/contracts/UTOP.sol",
  "compiler": {
    "name": "solc",
    "version": "0.7.5+commit.eb77ed08.Emscripten.clang"
  },
  "schemaVersion": "3.4.4",
  "updatedAt": "2022-01-30T06:19:21.174Z",
  "devdoc": {
    "kind": "dev",
    "methods": {},
    "version": 1
  },
  "userdoc": {
    "kind": "user",
    "methods": {},
    "version": 1
  }
}